S00F00004D595F4D5154542E73726563CA
S1130000F8250020495200004552000045520000E6
S113001000000000000000000000000000000000DC
S11300200000000000000000000000004552000035
S1130030000000000000000045520000455200008E
S113004045520000455200004552000009350000A9
S1130050E52F0000455200004552000045520000C3
S113006045520000A1390000B1390000C139000037
S1130070D1390000E1390000F139000015520000C7
S11300802552000035520000455200004552000040
S1130090455200000000000000000000455200002E
S11300A0652F0000455200004552000045520000F3
S11300B010B5064C2378002B07D1054B002B02D03A
S11300C0044800E000BF0123237010BD7800002025
S11300D000000000A894000008B5084B002B03D0D2
S11300E00748084900E000BF07480368002B03D015
S11300F0064B002B00D0984708BDC0460000000006
S1130100A89400007C000020A894000000000000D7
S113011010B50020084B9847084CFA218900A047E5
S1130120074B1860FA218900A047064B1860052286
S1130130054B1A6010BDC046B9490000A56B00000C
S1130140040000200000002010E000E030B5084B5F
S11301501C68084A00258021490206E0002C04D0CE
S11301605460956013680B42FCD00138F6D230BD60
S11301700400002010E000E008B5034B1B68002BCE
S113018000D0984708BDC0469400002038B5002828
S113019006D0041C034D0120A847013C002CFAD1D1
S11301A038BDC0464D010000F8B5084C80277F05D6
S11301B067618026360566616420054DA847A761FE
S11301C00A20A847A6616420A847F8BD004400415E
S11301D08D01000070B582B00023134A136001AC96
S11301E001256570A37025701B20211C0F4EB0479C
S11301F01C20211CB0472820211CB0470C4B1B6835
S11302001D4203D00A4B1B689A0701D4094B984737
S1130210094B98470122094B1A70BFF35F8F62B6EE
S1130220002002B070BDC04694000020653100007B
S113023010E000E011010000A901000010000020FE
S113024010B584B00E4B186001AC201C0D4B9847C0
S11302502923019300236360012323720223E372A1
S11302600920211C084B9847084809210022084B03
S1130270984709200021074B984704B010BDC04699
S113028094000020D9300000ED3000007901000016
S1130290752F0000A52F000008B5002804D0092000
S11302A00021044B984703E009200021024B9847A2
S11302B008BDC046A52F0000C52F000030B591B081
S11302C02E4C0E23237000236370A37001A9012216
S11302D04A708B700A700E20294B98472378D909ED
S11302E00022002903D15A09D201264812181F21DD
S11302F00B400121081C9840906102AA1170002350
S113030053609360C0208003D0601374537491745D
S1130310D17413752421535409930A931A4B93628D
S11303201A4BD36201235B421363194B5363194B7A
S11303309361194819491A4B984700281AD1164D48
S11303402C68201C174B98471F2318400123834017
S1130350181C154B18602A68D369002BFCD122683D
S1130360022313432360114B98470120104B9847F5
S1130370002000E0FA2040B211B030BDE0020020BD
S1130380653100000044004102000C0002000D0031
S113039002000F00001BB700E4020020001000421E
S11303A0013A00007539000000E100E0A9010000F5
S11303B08D010000F0B55F4656464D464446F0B404
S11303C087B003286CD10E684D680F8900226B46F4
S11303D0DA751733002E05D0002D5FD10124029564
S11303E01D1C04E00024012002906E461736374895
S11303F037490122374B9847002F42D0334B9A4656
S11304000121042200208446042399461E208046AC
S1130410634263410393347850460368187E08426C
S1130420FCD0187E0842FCD09C62187E1042FCD09E
S1130430264884790195187E1042FCD05D8B604675
S1130440154205D0588B4D46284380B25883404608
S1130450012C04D19D6AED05ED0DAB4602E09D6AC9
S1130460EDB2AB460028E6D1019D58462870013F05
S1130470BFB2039BED18029C63426341F618002F40
S1130480C9D1124B196802220B7E1342FCD00F48CB
S11304900F4900220F4B984700200EE0FA200CE091
S11304A00D480E49862252000D4B98470D480E4BBD
S11304B098470D200D4B9847FF2040B207B03CBC35
S11304C090469946A246AB46F0BDC046E4020020E1
S11304D0E0020020DD3B0000DC810000CC81000054
S11304E0356F0000F081000055700000696F000056
S11304F038B50B4D2C68201C0A4B98471F23184015
S113050001238340181C8023074AD0502A68D369EA
S1130510002BFCD12368022293432360002038BDC2
S1130520E40200207539000000E100E0002A06D052
S113053082180B780370013001319042F9D1704771
S1130540002A04D08218017001309042FBD1704718
S1130550031C0278002A07D00020013080B2013346
S11305601A78002AF9D100E000207047024B1A786B
S11305700132D2B21A7070479C0000207047C04606
S113058000B583B00120094B9847094801A9094BDC
S11305909847002806D10221019B19430191044880
S11305A0054B984740B203B000BDC0469902000015
S11305B0701000006D1900007919000008B5104B87
S11305C01B78002B13D10F4B1B78032B04D00D4B3E
S11305D01B780020042B0BD10B4B984700280CD11F
S11305E00A480B490B4B9847002801D005E000202E
S11305F0034B1A780132D2B21A7040B208BDC04619
S1130600B4000020A4000020D912000074100000DF
S11306107856000079190000014B18707047C046E5
S1130620A400002000B583B0174B1B78002B04D026
S1130630154B1A78013AD2B21A70134B1B7800206A
S1130640002B1ED1114B1B78032B03D00F4B1B78AF
S1130650042B16D1002301930D480E490E4B9847E5
S113066000280ED1012001A90C4B9847002808D17D
S113067001998B0705D50223994301910120064B6B
S1130680984740B203B000BDB4000020A40000208D
S11306907410000021430000791900006D19000056
S11306A0F0B557464E464546E0B486B082460D1C2A
S11306B0914698460EAB04CB1E8810AB1F887F234F
S11306C00B4005AC6370207008236380002A05D0BA
S11306D062889219BA1892B2628004E005AB5A8813
S11306E0424492B25A80554B9847041E00D08BE086
S11306F0002303936A46D3800293029B524613431A
S11307000293029B2D021D43029505AB5B88029A5E
S11307101B0413430293029949484A4B9847041E09
S113072000D083E000230293029A0223134302932E
S113073002994548434B9847041E77D100220392FF
S11307406B46DA80DA8892B2404B9A421DD83E4B0F
S11307509A463F4D504602A9A847002815D1029B4E
S11307609A0708D43B4803A9394B984700280CD072
S11307700023039309E06C46E38801339BB2E380D2
S1130780E28892B2314B9A42E4D9039B002B4CD0BD
S1130790039B049305A94B889BB24B8004980822C1
S11307A02D4B9847041E41D1049B083304934B46B8
S11307B0002B09D0049849464246274B9847041E0B
S11307C034D1049B434404930E9A002A0ED0049B14
S11307D04246BF1AFF18049704980E99321C1E4B08
S11307E09847041E22D1049BF6180496039B9B0091
S11307F00293029A02231343029302991748114B5E
S11308009847041E12D10CE0154816499622FF326F
S1130810154B98471548164B98470D20154B98478C
S113082004E0154B9847041C00E0FD2460B206B0B8
S11308301CBC90469946A246F0BDC046BD050000CA
S11308408C1000007919000078100000E703000004
S11308506D19000000041500F91900006C10000067
S1130860DC81000014820000356F00003882000033
S113087055700000696F000025060000F0B55F4662
S113088056464D46E0B486B0A44A92469146A44EDC
S113089037E14A461378013BDBB21370A14FB047EE
S11308A0041E00D010E1A04803A9A04B9847041EE1
S11308B000D0FCE0039BDB0700D4ECE000209C4B61
S11308C09847994803A9994B9847041E00D00CE116
S11308D001230399994303919348964B9847041E27
S11308E000D002E1904803A9904B9847041E0FD012
S11308F08C489149E0225200904B98479048914B84
S113090098470D20904B98470120894B9847ECE07D
S113091000228E4B1A70039A93041B0D9B4600D140
S1130920ACE0002305938A4805A9804B9847041E30
S11309300FD07C488049E7225200804B9847854875
S1130940804B98470D20804B98470120784B98475F
S1130950C9E004AD0598291C04227F4B9847041C68
S11309606B889BB26B8000280FD06E487249EB22D3
S11309705200724B98477948724B98470D20724B3E
S1130980984701206A4B9847ADE004AB5B889BB263
S11309909B451DD004AB5B885A46D31A042B17DD44
S11309A060486549E022FF32644CA04704A94A88A4
S11309B092B20B78DBB24978009169485946A04756
S11309C00D20614B98470120594B9847FA248AE03F
S11309D004AB1B78012B0DD1624B1B68002B3BD061
S11309E004AA5078C0B25188083989B2059A0832ED
S11309F0984731E004AB1B78022B0DD15A4B1C688D
S1130A00002C29D004AB5878C0B25988083989B26F
S1130A10059A0832A0471FE004AB1B78042B0DD1C4
S1130A20524B1B68002B17D004AA5078C0B25188CF
S1130A30083989B2059A083298470DE039483E4989
S1130A40FC2252003D4B984749483E4B98470D20A5
S1130A503D4B9847FA2446E03C4B1B78002B3FD192
S1130A6030483549434A354B98474348354B9847B6
S1130A700D20354B9847414B984731E029482E4982
S1130A803F4A2E4B98473F482E4B98470D202E4BFC
S1130A909847FE2429E0234827493B4A274CA0478E
S1130AA03A480399A0470D20274B984718E01D4862
S1130AB0214985229200214B98473548214B98477C
S1130AC00D20214B984710E0381C1B49314A1B4B21
S1130AD0984731481B4B98470D201B4B984704E01F
S1130AE02E4B9847041C002C0BD00E482C492D4A41
S1130AF0124DA84761B22C48A8470D20124B9847C5
S1130B00CDE652461378002B00D0C2E6002006B092
S1130B101CBC91469A46A346F0BDC0469C000020EA
S1130B20BD050000DC810000701000006D1900009C
S1130B30990200007919000030820000356F00002E
S1130B405482000055700000696F0000AC00002062
S1130B508410000078820000851900009C82000047
S1130B60B482000098000020A8000020B0000020FB
S1130B70F4820000FF0100000C83000081050000E6
S1130B8007020000308300000E02000044830000CE
S1130B90608300001A020000848300002506000020
S1130BA00482000039020000A4830000F0B54F461F
S1130BB04646C0B483B0051C0F1C161C984600287A
S1130BC003D0002901D0002A14D14346002B04D0BD
S1130BD001222F4B1A702F4B98472F482F49304A28
S1130BE0304B98473048314B98470D20304B98474D
S1130BF0F42446E02F4869462F4A9047041E40D10A
S1130C00009B99462D4801A92B4B9847041E38D1C7
S1130C10281C391C321C2A4B9847041E31D14B46E0
S1130C209F043F0DBE420DD91B481C49254A1D4C4B
S1130C30A0472548311C3A1CA0470D201C4B98475F
S1130C40F4241EE0019B9D4203D3AD19FF18BD425D
S1130C500CD9114811491D4A124B98471C48134B93
S1130C6098470D20124B9847F4240AE0BD4202D065
S1130C704346002B05D00122054B1A70054B9847BB
S1130C80041C60B203B00CBC90469946F0BDC0464B
S1130C90AC00002081050000DC8100008884000095
S1130CA05E020000356F0000D48300005570000020
S1130CB0696F0000701000006D19000084100000BE
S1130CC08519000071020000F4830000770200001F
S1130CD03884000038B5041E022C09D0022802D83A
S1130CE0012809D014E003280ED0042808D00FE00E
S1130CF00E4B1960002017E00D4B1960002013E023
S1130D000C4B196000200FE00B4B196000200BE026
S1130D100A480B490B4A0C4DA8470C48211CA8470C
S1130D200D200B4B9847F42040B238BDA80000209A
S1130D3098000020B0000020A0000020DC8100000A
S1130D4020820000A6020000356F00007C840000B1
S1130D50696F000008B50023094A1360094A13604B
S1130D60094A1370094A1370094A137009480A4B57
S1130D709847032009490A4B9847002008BDC046FC
S1130D8098000020A8000020B4000020A400002047
S1130D909C0000206D050000410200007D0500005C
S1130DA0D50C000030B59FB0041C151C2C2811D1A3
S1130DB0101C03A9042200237C4CA047002800D067
S1130DC0F1E07B4B1B68002B00D1ECE02C2003A945
S1130DD09847E8E0062811D1101C03A9302201230A
S1130DE0724CA047002800D0DDE0714B1B68002B3B
S1130DF000D1D8E0062003A99847D4E00E2800D1FA
S1130E00D1E0362811D1101C03A910220023674C0D
S1130E10A047002800D0C6E0654B1B68002B00D11A
S1130E20C1E0362003A99847BDE0332816D103A8B2
S1130E30002164225F4B9847281C03A964220023E5
S1130E405A4CA047002800D0ADE0594B1B68002B3A
S1130E5000D1A8E0332003A99847A4E0382823D17F
S1130E60101C03A904220023504CA047002800D0E2
S1130E7099E05148514CA0470398FF23191C0140A5
S1130E80020A1A40050C2B40000E00904C48A04763
S1130E900D204C4B9847464B1B68002B00D182E039
S1130EA03820002198477EE0112816D10022464BB5
S1130EB01A70281C03A9042200233C4CA0470028D4
S1130EC071D103AB1A78414B1A70394B1B68002B54
S1130ED069D0112003A9984765E013280FD1101C8D
S1130EE003A92C220023314CA04700285BD1304BAE
S1130EF01B68002B57D0132003A9984753E00428FC
S1130F000FD1101C1CA904220023284CA047002840
S1130F1049D1274B1B68002B45D004201CA99847B6
S1130F2041E015280FD1101C1CA9042200231F4CDA
S1130F30A047002837D11E4B1B68002B33D0152047
S1130F401CA998472FE009280FD1101C03A964227B
S1130F500123164CA047002825D1154B1B68002BF4
S1130F6021D0092003A998471DE02A280FD1101C7D
S1130F7003A9042201230D4CA047002813D10C4BD4
S1130F801B68002B0FD02A2003A998470BE01048B8
S1130F90104988225200094DA8470F48211CA84730
S1130FA00D20084B98471FB030BDC046AD0B000064
S1130FB0B800002041050000A0840000356F000047
S1130FC0AC840000696F0000BC000020BD0000205C
S1130FD0DC81000094840000CC84000010B5026819
S1130FE00C4B1A6000220C4B1A7000200B4B9847D4
S1130FF0041E0CD100200A4B9847041E04D1012082
S11310000849094B984702E00020084B984760B212
S113101010BDC046B8000020BC0000206D1A0000BE
S1131020550D0000A50D0000D50C0000711C00003A
S113103008B5014B984708BD7D080000F0B5574638
S11310404E464546E0B4A0B081460F1C141C1E1C3D
S113105028AB1B88984629AB1B789A46012A19D0DD
S1131060002E09D0301C604B9847002804D0301C57
S11310705D4B984740280DD95C485D49D922520000
S11310805C4B98475C485D4B98470D205C4B9847F8
S1131090F420A1E07B1E1F2B0DD954485449BA22D9
S11310A0FF32544B98475748544B98470D20544BA4
S11310B09847F42090E041460D290FD9FF290DD01F
S11310C04A484B49E12252004A4B98474E484B4B01
S11310D098470D204A4B9847F4207DE005AD6846BB
S11310E05A3049463A1C494B9847EF194037002378
S11310F0BB7144234246EA525246531E9A41672327
S1131100EA544123EC54032C38D13378013BDBB24D
S113111005AA1370032B0ED934483549DA22FF325D
S1131120344CA04705AB19783948A0470D20344BFF
S11311309847F42050E07278511E05AB5970102383
S1131140111C99430B290ED028482949F02252003A
S1131150284CA04705AB59782E48A0470D20284BB2
S11311609847F42038E0B11C68461630274B98475E
S1131170737805AAD31800229A7023E0022C09D1AF
S1131180301C194B9847421CD2B205A8311C1F4B86
S1131190984717E0042C05D105A8311C3E221B4BAF
S11311A098470FE0012C0DD010481149FA22FF3264
S11311B0104B98471848114B98470D20104B9847EF
S11311C0F42009E0002300930193029301202821D5
S11311D005AA6C23114CA04740B220B01CBC904619
S11311E09946A246F0BDC04651050000DC810000CE
S11311F078860000356F0000788500005570000087
S1131200696F0000888500009C8500002D050000A2
S1131210A8850000C4850000E0850000A106000048
S113122010B582B004AC2488009400240194024CCC
S1131230A04702B010BDC0463D100000002070471A
S113124010B584B0021C0023009301930293012083
S11312503D210423014CA04704B010BDA1060000A9
S113126070B586B0041C05AA107051700023009359
S11312700193029301202D210423094DA847061C44
S11312800848094DA8470948211CA8470D20084BC8
S11312909847201C074B9847301C06B070BDC046C9
S11312A0A1060000A0840000356F000054860000F1
S11312B0696F00001906000010B584B00023009384
S11312C001930293012005210022024CA04704B09F
S11312D010BDC046A1060000F0B55F4656464D4617
S11312E04446F0B483B0012001A9394B98478046A5
S11312F0002400280BD0374837494B22374B9847F6
S11313003748384B98470D20374B98474CE0374BBC
S11313109B46374B9A462E4B99460221019B194313
S11313200120D847534618686946C84780460028B4
S113133006D1009B002B03D02E4D2F4F2C4E29E0BD
S11313400E222B4B1A600E206946214B984780468B
S11313500028F1D01F4820496122204B9847274894
S1131360204B98470D20204B98471DE00120B8479B
S113137030686946164B9847009B5B070AD41548AA
S113138015497422154B98471D48164B98470D2054
S1131390154B9847009B5B0706D40134201C03219E
S11313A0A8470029E2D002E0434658B209E00221EE
S11313B0019B194301200D4B9847009B5B07ACD55B
S11313C0F2E703B03CBC90469946A246AB46F0BD5A
S11313D06D190000DC810000B8870000356F000043
S11313E0A486000055700000696F000079190000A0
S11313F00C0000202D6C00008D010000C48600004C
S1131400E486000000B583B000230193012001A904
S1131410064B984701998B0705D5022399430191FF
S11314200120034B984703B000BDC0466D1900006E
S11314307919000038B50620DB210C4CA0470720A1
S11314400621A0470A200A4DA847A42040010021F4
S1131450A04708480021A0470A20A84706200021E9
S1131460A04707200021A04738BDC04679190000D5
S11314708D0100008414000000B583B0164801A952
S1131480164B984700281ED180214900019B19431F
S113149001911148124B9847002816D1D0204001E1
S11314A001A90E4B9847002811D180214902019BC4
S11314B019430191D0204001094B9847002300288B
S11314C006D0FA2304E0FA2302E0FA2300E0FA2328
S11314D058B203B000BDC046081400006D190000E6
S11314E07919000010B582B025480021254CA04789
S11314F025480021A04725480021A047244801A9E8
S1131500244B984700280AD023482449CA22244B54
S113151098472448244B98470D20244B9847012191
S1131520019A114301911A48164CA0472048012101
S1131530A047041CA020400101A9164B9847241879
S1131540E4B2019B5A0501D4E4B208E019491940F8
S11315500191A02040010B4B98472418E4B280214C
S1131560C900019B19430191A0204001054B9847F4
S11315702418E4B20120104B984760B202B010BDA9
S11315800C000C00791900008C100000AC0702005C
S1131590181100006D190000DC8100008C86000029
S11315A0356F00000887000055700000696F000067
S11315B014001500FFFBFFFF8D01000000B583B090
S11315C0214B1B68002B3AD1802040011E491F4B40
S11315D09847002803D000221B4B1A602DE01C48BA
S11315E001A91A4B9847002803D00022164B1A6011
S11315F023E0154B1B68174A934206D10199012930
S113160012D0154A104B1A600EE0144A93420BD1C3
S1131610019B032B08D0042B03D1114A0A4B1A60F7
S113162002E0104A084B1A60074B0F4A19680A4037
S1131630A021C9020A431A6001E0002001E0024B24
S1131640186803B000BDC046C00000206D1900003A
S1131650F4130000A0021000A1021000B002100058
S1131660B1021000B2021000FFFFF0FF08B5064BF4
S113167098470005000D054B984203D904480549D5
S1131680054B984708BDC046BD150000AF020000D9
S1131690481E0000CE6984B779190000F8B5084CDB
S11316A0201C084B98470126071CB743201C391CF3
S11316B0054DA847391C3143201CA847F8BDC04636
S11316C028140000611900007919000010B5064CB7
S11316D0201C064B98470423011C1943201C044B6F
S11316E09847044B984710BD1C1400006119000072
S11316F0791900009D16000010B5044B9847041E8C
S113170001D1034B9847201C10BDC046D9120000DC
S11317103514000010B5074B9847A0204001002164
S1131720054B9847041C3220044B9847044B9847B8
S1131730201C10BDCD160000791900008D01000099
S11317406D160000F0B5474680B480461B4D1C4C16
S11317501C4E281CA047002802DB0120B047F8E7F4
S11317601948174B9847C30719D508E00120B84713
S11317701648B047013C002C0ED0A842F6D143468F
S1131780022B03D112481349134B98470F481349AE
S1131790114B9847002000E0FB2040B20BE00120F1
S11317A0084B98470948064B9847FA24E4000C4D27
S11317B0044F034EE1E704BC9046F0BD1410000052
S11317C0611900008D010000BC0702000C000C0030
S11317D0AC0702007DD51C3C79190000612F52EF43
S11317E09ED0AD1070B582B0144B0193144B00938E
S11317F002280CD1134B0193134B009307E00220F2
S1131800B0470198A847013C002C04D111E00F4CCB
S113181000200F4E0F4D009B8342F0D1009A002010
S1131820074B9A4206D1054800210B4B98470020EC
S113183000E0FB2040B202B070BDC0468C10000036
S113184036265302AC070200C3C15DD7D10700009E
S11318508D0100006119000079190000F0B54746B8
S113186080B482B000230193A020400101A9294B38
S1131870984700280AD028482849294A294B9847DC
S113188029482A4B98470D20294B98472949019A02
S113189011400191A0204001274B9847061C0A24BF
S11318A000280CD01C481D49244A1E4B9847244844
S11318B01E4B98470D201E4B9847301C25E0A02551
S11318C06D01144F1C4B9846281C01A9B847061EED
S11318D00DD0114811498B229200124B9847194898
S11318E0124B98470D20124B9847301C0DE0019B7A
S11318F05A0509D50F4919400191281CC047013CDC
S1131900E4B2002CE0D100E0002040B202B004BCFC
S11319109046F0BD6D190000DC810000988600003F
S11319201F020000356F0000308700005570000072
S1131930696F0000FFFBFFFF79190000250200001A
S1131940488700006087000008B5014B984708BD30
S1131950BD02000008B5014B984708BDF104000022
S113196008B5014B984708BD8922000008B5014B12
S1131970984708BD9D22000008B5014B984708BD53
S1131980B5220000F8B55F4656464D464446F0B4CD
S11319908B46161C164B1B88083B9BB298461D1C95
S11319A09A4208D8041C00275B46D919B2B2201CFD
S11319B0104B984714E0D61A041C00270B1A9A46B9
S11319C00C4B994653461919201C4246C847002817
S11319D006D17F196419731BAE42E5D91E1CF1E7C9
S11319E040B23CBC90469946A246AB46F8BDC046C0
S11319F008000020F1230000F8B55F4656464D4626
S1131A004446F0B48B46161C164B1B88083B9BB20D
S1131A1098461D1C9A4208D8041C00275B46D91915
S1131A20B2B2201C104B984714E0D61A041C0027AD
S1131A300B1A9A460C4B994653461919201C4246D8
S1131A40C847002806D17F196419731BAE42E5D933
S1131A501E1CF1E740B23CBC90469946A246AB46F8
S1131A60F8BDC04608000020CD240000F0B55F4654
S1131A7056464D464446F0B48DB0002805D0007853
S1131A80023843425841451C00E0012500205A4BCE
S1131A909847041E0BD059485949A422594B9847DA
S1131AA059485A4B98470D20594B98479CE0594B3D
S1131AB09847041C0A20584B9847002C0BD04F48D9
S1131AC04F49AF224F4B98475448504B98470D20ED
S1131AD04F4B984786E052484A4CA047514B984791
S1131AE0011C5148A0470D20494B98474F4B98473C
S1131AF0041E77D14E4B98474E4B98474E4B984710
S1131B00041E6FD1281C4D4B9847041E6AD1281C13
S1131B104B4B9847041E65D1022D65D0494B98471D
S1131B20041E0BD035483649DC22364B98474648CC
S1131B30364B98470D20364B984753E0A52040017B
S1131B400021424B9847002189460391404803A94C
S1131B50404B9847039F3B0C9A4699B28B46BBB2C5
S1131B601A0A00921B090F26334001932D4B984704
S1131B702B4B9846181C234DA8473B1C3340364832
S1131B800099019AA8470D20214FB8474046A8471D
S1131B905A46110A12093240534633402F48A84787
S1131BA00D20B8474046A8472D48122103224B4632
S1131BB0A8470D20B84704AB009919706A460199EB
S1131BC051741A88274B9A420ED00C480C49EC22C7
S1131BD00C4B984724480D4B98470D200C4B9847C5
S1131BE0F32401E0214B984760B20DB03CBC904611
S1131BF09946A246AB46F0BD49190000DC810000BD
S1131C00E0880000356F0000C887000055700000B0
S1131C10696F0000F91600008D010000F4870000D0
S1131C20A0840000BD150000E48700001517000023
S1131C30CD22000005140000E51400004517000043
S1131C40E5170000791400001488000079190000D9
S1131C50AC0702006D1900003488000050880000B1
S1131C606C880000120300008888000055190000E9
S1131C7010B5134B9847041E0CD012481249812208
S1131C805200124B98471248124B98470D20124BA2
S1131C90984712E0114B9847041E0CD009480A4992
S1131CA084225200094B98470D480A4B98470D204F
S1131CB0094B984701E00B4B984760B210BDC046F2
S1131CC05D180000DC810000EC880000356F000026
S1131CD0A488000055700000696F000055190000C9
S1131CE0C48800007922000000B585B001AB002251
S1131CF00192029019810320191C024B984705B0E8
S1131D0000BDC046B5030000F0B583B0061ECF2E5B
S1131D1004D0031C3B33DBB2012B07D868460730E1
S1131D200121254B98470023002841D10B246D46FF
S1131D300735214F281C0121B84700280DD01F4822
S1131D401F493C22FF321F4B98471F481F4B98479F
S1131D500D201F4B984700232AE02B78B34204D16F
S1131D600B246D460735144E04E0013CE4B2002C0C
S1131D70E0D1F5E7281C0121B04700280DD00F4819
S1131D800F494A22FF320F4B98470F480F4B984791
S1131D900D200F4B984700230AE02B78002B04D02A
S1131DA0013CE4B2002CE5D101E0012300E0012371
S1131DB058B203B0F0BDC046E91C0000DC8100004D
S1131DC0208E0000356F00007C89000055700000F3
S1131DD0696F0000F0B55F4656464D464446F0B480
S1131DE083B082460F1C934600229046404E8023C7
S1131DF09B019F4202D8BBB2994602E080239B011B
S1131E0099460A246D460335281C0121B047002851
S1131E100DD0384838496C22FF32384B984738483F
S1131E20384B98470D20384B9847002057E02B78C3
S1131E301B090F2B05D0013CA4B223B20133E3D11B
S1131E4002E024B2002C0EDC2A482B497822FF320F
S1131E502A4CA0476B46D9782C48A0470D202A4B22
S1131E60984700203BE04A4694B2434618B2504497
S1131E70211C1F4A904700280DD01E481E49C0222D
S1131E8052001E4B984722481E4B98470D201E4B6C
S1131E909847002023E05B46002B17D11D4A137896
S1131EA0002B13D101A80221114B984700280DD013
S1131EB0104811498C22FF32104B98471648114B99
S1131EC098470D20104B9847002008E04246A3187D
S1131ED09BB298463F1BBFB2002F88D1012040B26D
S1131EE003B03CBC90469946A246AB46F0BDC04602
S1131EF0E91C0000DC810000488F0000356F000001
S1131F00B089000055700000696F0000E48900008A
S1131F10148A0000C4000020448A000000B585B083
S1131F2001AB01900022029219810320191C024B7B
S1131F30984705B000BDC046B503000070B584B035
S1131F4008AC257801AC20703F30C4B20E2C00D907
S1131F509CE0A000524C2058874601AB0A0C5A70F2
S1131F600A0A9A70D970052193E00B0ADBB2002D9E
S1131F7002D101AA537004E080225242134301AA01
S1131F80537001AB99700022DA70052181E001AB36
S1131F9000225A709A70DA7005217AE001AB0022AF
S1131FA05A709A70DA70052173E001ABFF225A70FF
S1131FB09A70DA7005216CE001AA080C5070080AC6
S1131FC09070D170190A11715371072161E001AA4F
S1131FD0080C5070080A9070D170190C1171190A0C
S1131FE051719371082154E00B0ADBB2002D02D128
S1131FF001A8437004E080204042034301A84370D9
S113200001AB9970110ED970110C1971110A597123
S11320109A7108213DE001AB080C5870080A9870C9
S1132020D970110E1971110C5971110A9971DA7163
S113203009212EE04E1E002E0DD001AB03226A446E
S113204055187F22174C187852004240A25C013385
S1132050AB42F8D100E07F22520001AB9A5501E077
S11320600139C9B201A8104B9847012300280ED0AA
S11320700E480F498E2252000E4B98470E480F4BC4
S113208098470D200E4B9847002300E0002358B2D8
S113209004E00C4B1B78002BCCD0E1E704B070BDFE
S11320A0FC880000488E00001D1F0000DC81000039
S11320B074890000356F0000788A000055700000B4
S11320C0696F0000C400002070B582B0041C0A1CB3
S11320D0302802D80123C32501E00023C925009339
S11320E0281C211C0423164EB04701280CD0154887
S11320F01549164A164DA8471648211CA8470D2015
S1132100154B9847002318E0281C144B98470123CB
S1132110012812D00B480C49114A0D4DA84711480B
S1132120211CA8470D200C4B984700230093CF2077
S113213000210022024CA047002358B202B070BD17
S11321403D1F0000DC81000054890000FF010000F5
S1132150356F0000A48A0000696F0000091D0000AB
S113216005020000D08A0000F0B5474680B484B070
S1132170041C8846FF2802D80126C42501E0002655
S1132180CA250096281C211C002204232C4FB84782
S113219001280CD02B482C492C4A2D4DA8472D48FA
S11321A0211CA8470D202C4B9847002042E0281CF6
S11321B02A4B9847012813D022482349284A244D02
S11321C0A8472848211CA8470D20234B98470023E3
S11321D00093CF2000210022194CA047002029E0C1
S11321E003A80421321C204B9847012813D015481A
S11321F015491E4A164B98471D481E4B98470D20FB
S1132200154B984700230093CF20002100220C4C4B
S1132210A04700200EE003AB597809029A78120413
S113222011431A781143DA7812060B1C1343424601
S11322301360012040B204B004BC9046F0BDC04617
S11322403D1F0000DC8100002C8E000059020000BC
S1132250356F0000088B0000696F0000091D000045
S11322605F020000348B0000D51D000067020000EF
S1132270688B0000557000000022024B1A70002089
S11322807047C046C400002000B583B001A9024BCA
S11322909847019803B000BD6921000008B5044BBC
S11322A09847012801D1002000E0FA2040B208BD7F
S11322B06921000008B5044B9847012801D100208A
S11322C000E0FA2040B208BDC920000010B582B079
S11322D000230093354A137035486946354B9847B7
S11322E0002820D10122314B1A7033483349344A33
S11322F0344B98473448354B98470D20344B984716
S11323002B4869462B4B9847041E0CD12A482B496D
S1132310B72292002B4B98472E482C4B98470D2000
S11323202B4B98473FE0214B1B78002B19D17C2382
S1132330009999435023194300911D48264B98470F
S1132340041E0BD11C481D49244A1E4B984724489F
S11323501E4B98470D201E4B984724E00122134B37
S11323601A708020400101A9124B984700280DD112
S113237011481249BC229200124B98471948134B3A
S113238098470D20124B9847FA240CE0084C201C67
S1132390154B98477023011C994350231943201C63
S11323A0124B9847002460B202B010BDC400002054
S11323B024E8000069210000DC8100004889000055
S11323C0D9020000356F0000888B000055700000B2
S11323D0696F0000D88B0000C9200000E6020000ED
S11323E0048C0000388C000089220000B522000013
S11323F0F0B583B0041C0F1C151C00230093C820E7
S1132400211C00222B1C254EB04701280CD0244847
S11324102449A2229200244DA8472448211CA847FD
S11324200D20234B984735E0C820224B98470128BC
S113243012D01B481B49204A1B4DA8471F48211C8A
S1132440A8470D201A4B984700230093CF20002162
S11324500022124CA0471DE0381C291C0022184BF6
S113246098470023012813D00D480E49A622920054
S11324700D4B98471348144B98470D200C4B984725
S113248000230093CF2000210022044CA04701E048
S113249058B201E0FA23FBE703B0F0BD3D1F000092
S11324A0DC8100003C8E0000356F00005C8C000075
S11324B0696F0000091D00008E0200008C8C000072
S11324C0D51D0000C48C000055700000F0B55746BF
S11324D04E464546E0B484B0051C8846141C0023CF
S11324E00093C720291C0022231C554EB047012805
S11324F00BD054485449554A554CA0475548291CBB
S1132500A0470D20544B98478FE0C720534B984762
S1132510012812D04B484C49514A4D4CA0475148D0
S1132520291CA0470D204C4B984700230093CF2033
S113253000210022424CA04777E0002203AB1A801E
S113254000258027BF01BA46474B9946261CBC424A
S113255000D95646B6B2002D04D10123BC4206D898
S1132560032304E0A7429B415B420322D31A68463B
S11325700B3010225242134303700121C847002834
S11325800CD030483949DE225200314B9847384844
S1132590384B98470D20304B984733E028B24044DD
S11325A0311C314B984700280CD026482F49C622AD
S11325B0FF32274B984730482E4B98470D20264B27
S11325C098471FE02D4B1B78002B12D103A8022142
S11325D0254B984700280CD01A482449D022FF32B2
S11325E01B4B98472648234B98470D201A4B984776
S11325F008E07519ADB2A41BA4B2002CA6D116E054
S113260040B216E00F4810491E4A114B98471E4825
S1132610184B98470D20104B984700230093CF2068
S113262000210022064CA04701E0FA20E8E7002040
S1132630E6E704B01CBC90469946A246F0BDC046ED
S11326403D1F0000DC8100006489000023020000BB
S1132650356F0000EC8C0000696F0000091D00005C
S1132660290200001C8D00001D1F00003889000095
S1132670548D0000557000008C8D0000C4000020B3
S1132680C08D00003A020000F88D0000F0B55F46EE
S113269056464D464446F0B483B00E1C92469846C6
S11326A00CAB1D88002D59D04200121892002F4BFC
S11326B0D358002B52D0131C2C4AD3189B889BB29E
S11326C0002B4BD043001B189B00D3189B79012B84
S11326D044D1F58043001918890089469346CB44B8
S11326E04346804601935A469388EB1A1BB2002B4B
S11326F006DD1E4F3B1C4B449C88A4B2002301E022
S11327002C1C01234846194FC1590198221C184F0B
S1132710B847002819D1154B4846C3583360B480D4
S1132720F3881B1BF380134B1B68002B05D0114B44
S11327301B6840465146321C98472D1BADB2019A86
S113274012190192002DCED108E00B480B4CA04782
S11327500B48291CA0470D200A4B984703B03CBCEA
S113276090469946A246AB46F0BDC04624030020DD
S1132770AD0B0000A8030020A0840000356F00000A
S1132780588F0000696F0000F0B55F4656464D460D
S11327904446F0B49BB00D1C141C41281AD1101CE3
S11327A009A904220023A14CA047002800D036E147
S11327B009AB5A7805AB1A709D4B1B68002B00D1EE
S11327C02DE19B4B1B6809AA00201056012105AA84
S11327D0984724E142281AD1101C09A90422002395
S11327E0924CA047002800D019E109AB5A7805ABF8
S11327F01A708F4B1B68002B00D110E18C4B1B68A7
S113280009AA00201056022105AA984707E1432887
S113281044D1101C05A90C220023844CA047002895
S113282000D0FCE005AB5A7A53B2002B1FDB5900F1
S1132830C91889007F4841180020C8710120887197
S11328407D490888013080B20880098889B200294E
S113285004D179490888013080B208807649098812
S113286089B25800C3189B007248C318598109AB38
S11328701A7002229A8005AA5188D980069A0B926E
S11328806B4B1B68002B00D1C9E0694B1B6805AA80
S113289008201056042109AA9847C0E0442801D012
S11328A04B281AD1201C09A9042200235F4CA047FD
S11328B0002800D0B3E009AA107805AB187052784C
S11328C05A705B4B1B68002B00D1A8E0584B1B6867
S11328D040B2052105AA9847A1E04A2813D1101C4B
S11328E009A944220023514CA047002800D096E0B7
S11328F01999524B1B68002B00D190E04F4B1B6879
S113290009A898478BE0462806D0482807D04D28C8
S113291057D10620804604E00621884601E00922BA
S11329209046201C05A910220023404EB0470028E1
S113293075D105AE337B0393F08984465FB23D4B7A
S11329407A00D11989005818002101723089814612
S113295071898A4609A970884881069E0C96D21905
S113296092009B185A8992B2624521D149460BB212
S1132970002B0CDDAB420ADA039A50B251466318BD
S11329804A46009209A942462D4CA04747E009ABAC
S11329904846988000230993254B1B68002B3ED0A2
S11329A0234B1B68039948B2414609AA984736E06D
S11329B0102D34D900200021002201231B4CA047F4
S11329C02DE0452805D0472805D007254C2803D0FD
S11329D025E0072500E00825201C09A9082200237A
S11329E0124CA04700281AD109AB18789A88598844
S11329F005AB198043B25900CB189B000D49CB1885
S1132A0008335B889BB2934209D1094B1B68002BA6
S1132A1005D0074B1B6840B2291C05AA98471BB078
S1132A203CBC90469946A246AB46F0BDAD0B0000B7
S1132A30A803002024030020C6000020AC030020CB
S1132A408D26000008B50A4B1B78002B0ED10948CF
S1132A5000218422084B984702200849084B9847D4
S1132A600122034B1A700022064B1A8008BDC0468F
S1132A70C500002024030020410500008927000030
S1132A80D50C0000C6000020024B1860024B1960F0
S1132A907047C046A8030020AC03002030B587B0BF
S1132AA0FF24022847D1012947D00B2407200229FB
S1132AB045D0FF243FE0011C43001B189B00EB188A
S1132AC09B79002B32D14B005B189B00224CE318FE
S1132AD001249C71214B1C880134A4B21C801B88E6
S1132AE09BB2002B04D11D4B1C880134A4B21C8062
S1132AF01A4B1C88A4B24B005B189B00164DEB18B4
S1132B005C81C4B2D30716D505AA14704B005918BA
S1132B1089006B180121D97100230093019302935A
S1132B200220502104230E4DA84704E00130C0B216
S1132B308442C0D8FF2460B20BE007240020011CAB
S1132B4043001B189B00044DEB189B79002BBAD053
S1132B50ECE707B030BDC04624030020C6000020C7
S1132B60A106000070B588B0041E36DB002936D0FB
S1132B7043001B189B001E48C3189B79012B30D1BE
S1132B80002A30D063001B199B00C318DB7944264C
S1132B90DA0707D563001B199B00C318DA7905AB64
S1132BA05A724B2605AD2C72281C0822114B9847EB
S1132BB063001C19A4000E4B1C1963896B8100234C
S1132BC00093019302930220311C2A1C0C230A4C0B
S1132BD0A047002808D0F72006E0FA2004E0FA20F5
S1132BE002E0FA2000E0FA2040B208B070BDC0460E
S1132BF0240300202D050000A106000030B589B093
S1132C000C1C002836DB002936D0AF23DB009A42A7
S1132C1034D843001B189B001B49CB189B79012B0C
S1132C202ED104AB18705A80410009188900164D42
S1132C3069180831498899814423062800DC502307
S1132C4041000818800010490818C179C80701D448
S1132C50452001E04C20552380210143009401923A
S1132C600293022004AA1023084CA047002808D08D
S1132C70074806E0074804E0064802E0054800E08B
S1132C80044800B209B030BD24030020A1060000AE
S1132C90F2FF0000FAFF000070B586B000283BDBAD
S1132CA000293BD0002A3BD044002418A4001F4D27
S1132CB02C19A479012C35D12C1C45002E18B600F2
S1132CC03151A1198A80097A002200292BD1A21935
S1132CD001211172D2794D21D40700D44621002B51
S1132CE003D101235B42049300E0049304AA10710E
S1132CF04300181880000D4B18184389D380002313
S1132D0000930193029302200823094CA047002258
S1132D10002808D0074A06E0074A04E0064A02E011
S1132D20054A00E0044A10B206B070BD2403002036
S1132D30A1060000F2FF0000FAFF000030B587B0E2
S1132D40041E2EDB43001B189B00194AD3189B79E1
S1132D50012B28D105AA107043001B189B001449AD
S1132D60CB185889508000229A715A81DB794E2100
S1132D70DA0700D44921002300930193029302202F
S1132D8005AA04230B4DA847051E00D0F7256000B3
S1132D9000198000064BC01800210C22064B9847EE
S1132DA002E0FA2500E0FA2568B207B030BDC0465B
S1132DB024030020A106000041050000F0B583B003
S1132DC00023019300240426002503780130311CDC
S1132DD02A1C2E2B1FD0002B20D0303BDBB2092B1A
S1132DE015D89700D2195200D218D2B203780139FB
S1132DF0C9B201300029ECD10BE00134042CE4D138
S1132E0001A869460422084B9847019809E000206C
S1132E1007E0002005E06B46E254EEE76B46E2541F
S1132E20EBE703B0F0BDC0462D05000010B584B03B
S1132E30041C0D4B9847C3B2402B0ED8FF231840F7
S1132E40431C00210091019102910220CA21221CFD
S1132E50064CA047002803D001E0FA2000E0F72048
S1132E6040B204B010BDC04651050000A1060000E8
S1132E700C4B1B68002B10D1EFF31083002B09D1EE
S1132E8072B6BFF35F8F0022074B1A700122074B03
S1132E901A7002E00022054B1A70024B1A680132C4
S1132EA01A607047C800002010000020CC000020E9
S1132EB0084B1A68013A1A601B68002B09D1064BAB
S1132EC01B78002B05D00122044B1A70BFF35F8FCF
S1132ED062B67047C8000020CC000020100000201B
S1132EE0F0B583B001AC012565700027A77025708B
S1132EF01720211C064EB04780221204054B9A610C
S1132F00277065703720211CB04703B0F0BDC04660
S1132F10653100000044004138B58000104BC458AE
S1132F2022689579237E1D40637E1D40EB0705D5FD
S1132F30201C62689047012322689371AB0705D572
S1132F40201CA2689047022322689371EB0605D5E2
S1132F50201C62699047236810229A7138BDC046CC
S1132F60B003002008B50020014B984708BDC046B7
S1132F70192F00001723002A0FD18B00084A9A58F2
S1132F80002A04D1191C064BC850002305E01D2358
S1132F90121A501E824152421340181C7047C046F8
S1132FA0B80300201723002907D100231F2800D8C5
S1132FB0034B01228240DA600023181C7047C0468C
S1132FC0001800401723002907D100231F2800D828
S1132FD0034B012282409A600023181C7047C046AC
S1132FE00018004070B50022164B1A7000231F26EB
S1132FF0154D144C1F2B10D919E0144900E0002181
S11330000A619B005B59002B00D098472378013359
S1133010DBB223700F2B14D8ECE7321C1A400121C9
S113302091400A1C094909691142E6D1EEE7321CB4
S11330301A40012191400A1C002109691142DED184
S1133040E4E770BDB4030020B8030020001800407A
S1133050054B197802220A431A701A1C53785BB282
S1133060002BFBDB7047C0460018004000B583B05E
S1133070124B996940220A439A6101A900230B70FB
S113308005200F4B984705200E4B98470E4B197897
S113309001220A431A701A1C53785BB2002BFBDB23
S11330A00A4B191C4031002204C38B42FCD110226C
S11330B0074B1A60074B984703B000BD000400405B
S11330C0D14A0000454A000000180040B80300201F
S11330D000E100E05130000000230360436001225E
S11330E00272427283720223C3727047F0B583B0D6
S11330F0051C0C1C01A900234B70CB7063680B707A
S1133100237A8B702078154B984700231F2D00D805
S1133110134B072129408900E07AA27A002A01D0C2
S113312008221043EA0892009A18966988400F27EB
S11331308F40BE43311C01439161627A002A06D05C
S11331405A690121A9400D1C15435D6104E05A69C7
S11331500121A9408A435A6103B0F0BDAD4B000080
S11331600018004000B583B001AB80221A700A78C1
S11331705A704A789A708A78DA70191C014B984709
S113318003B000BDAD4B000010B5CA88C388D21A85
S113319092060C7964044B799B0523438C782403B1
S11331A0234313430279002A05D1CA78002A02D0A6
S11331B0802252021343487880010A78104318434E
S11331C010BDC04610B58C0EC388E318D3808B01A4
S11331D01B0F53718B02DB0E13710379002B03D089
S11331E0CB03DB0E937005E00B041B0F9370CB0332
S11331F0DB0FD3700B059B0E53703F2319401170E6
S113320010BDC04601680822054B1A600268937A13
S11332105BB2002BFBDB0A88022313430B8070474D
S113322000E100E010B5016808248023054AD45069
S11332300268937A5BB2002BFBDB0B880222934378
S11332400B8010BD00E100E038B5041C0568074B95
S113325098470023238263822268937A5BB2002B0F
S1133260FBDB2A88012313432B8038BD2532000061
S113327010B50468034B9847A37A5BB2002BFBDBC1
S1133280206110BD8931000010B50A1C0368417922
S1133290002906D1054959800468A17A49B2002958
S11332A0FBDB1969024B984710BDC0460080FFFF45
S11332B0C531000070B50E1C141C05681723012AC3
S11332C00BD8074B9847AB7A5BB2002BFBDBE400CF
S11332D02D19A861337A2B770023181C70BDC046C2
S11332E08931000030B583B0041C151C01601C4BEF
S11332F0996920220A439A6101A902230B700420D0
S1133300184B98470420184B9847201C174B984794
S11333102B792371EB786371EB88E380144B1C6089
S113332023682A882979002902D008210A4301E068
S113333048210A43A978002901D080210A431A8030
S1133340EA78002A04D059888022D2010A435A809C
S1133350291C0831201C0022064B984703B030BDBD
S113336000040040D14A0000454A000049320000F0
S1133370F8030020B532000038B50C1C016817238F
S1133380012A08D8D2008D18A969221C034B98473A
S11333902B7F23720023181C38BDC046C5310000A2
S11333A070B586B0041C066804A93E4B984723797F
S11333B0002B1CD004AB98780B22824292415242DB
S11333C0DA700C21384B9847C9B2002947D10C2236
S11333D004AB9A7045E00C2201AB9A70002525716C
S11333E0201C01A90022314B9847257128E004AB29
S11333F0DB78002B06D004AB9A780C329A7000224A
S1133400DA7043E004AB9B780C2B3FD1002204AB71
S11334109A703BE001A98B780C338B700023CB703E
S113342001232371201C0022204B984706E001ABA6
S11334309B780C2B02D1002201AB9A7001232371DB
S1133440201C1B4B98473288402353403380201C58
S1133450184B9847201C04A9174B984720E004AB4D
S1133460997001AD201C291C0022144B9847A878A0
S11334700B2383429B415B42EB700C210A4B984720
S1133480C9B20029A7D001AB9970A7E701AD201CF0
S1133490291C0022094B9847EB78002BC7D0B9E7C9
S11334A006B070BD893200002D6C0000B5320000FA
S11334B0253200000532000071320000793300002B
S11334C0012A01D917200AE0931C9B001950038A92
S11334D0012191400A1C1A4392B2028200207047D3
S11334E010B50368012902D18022DA7104E00122B7
S11334F08A4001242240DA71438A01228A40111C45
S1133500194389B2418210BD10B50E4B1B681C686B
S11335105A8A198A081C1040227AE1790A40D10992
S113352006D0810701D5DB6898478023237207E022
S1133530D10705D5C20701D59B689847012323729B
S113354010BDC046F803002010B5031C49084020F4
S113355099420CD30024C91A601C80B28B4201D852
S1133560041CF8E74020FF2C01D81480002010BD73
S1133570F0B55F4656464D464446F0B487B0061C47
S11335800D1C049210AA1078321C424340248A4233
S113359000D9B3E0002B4BD10021321C5E4CA04774
S11335A083462E1C002700200021002200233F24F4
S11335B0A4460125A846029003916146203903D40C
S11335C040468840814605E0202165464C1B404624
S11335D0E040814641466446A1408A46101C191CBD
S11335E080185941021C0B1C5D464C46254202D0F2
S11335F0424602430B1C9F420CD801D1964209D883
S1133600921BBB415046029D28434946039C2143DB
S1133610029003916546013DAC46CED202980399CF
S11336203C4B3B4A121A8B41120C1B041A4362E0B6
S11336300022012B5FD14F0FB946CD00AB460021CC
S1133640321C0023344CA047061C0F1C0023012508
S1133650029603979A465046C0B2059000218846C8
S1133660002200233F24271C203F03D42E1CBE40ED
S1133670019604E02020071B291CF94001912E1C0F
S1133680A6400096101C191C80185941021C0B1CE2
S11336905F463740BC46019E4F463E4067463E4328
S11336A002D02A1C02430B1C039898420BD802D167
S11336B00299914207D8029E039F921BBB41474641
S11336C000980743B846013CCDD2414652468B1A76
S11336D0DB08124CA34208D9059A0132D2B20592F2
S11336E00126B2445746082FB5D14024059808282E
S11336F004D042031A43049C22800024201C07B0F7
S11337003CBC90469946A246AB46F0BDC046C04676
S11337100000000001000000056D0000FF1F000014
S113372010B582B0041C0F4B1B78002B01D000296C
S11337300DD001A90C7013200B4B984713200B4B91
S11337409847084B5C7001221A70002007E0054B73
S11337505A781D20141B621E94416442204002B01A
S113376010BDC046D0000020D14A0000454A0000E8
S1133770444B984233D006D8434B98420DD0434B28
S113378098421BD06FE0424B98424AD0414B98423A
S113379058D0414B984266D132E0012965D00029C6
S11337A004D0022906D0032906D001E03B4867E093
S11337B0002065E03A4863E03A4861E0012956D0C8
S11337C0002904D0022906D0032906D001E00320F1
S11337D056E0002054E0344852E0344850E00129D7
S11337E047D0002904D0022906D0032906D001E0DD
S11337F02F4845E0002043E02E4841E02E483FE0BA
S1133800012938D0002904D0022906D0032906D082
S113381001E02A4834E0002032E0294830E0294819
S11338202EE0012929D0002904D0022906D0032939
S113383006D001E0244823E0002021E023481FE0D3
S113384023481DE001291AD0002904D0022906D0FA
S1133850032906D001E01F4812E0002010E01E48B2
S11338600EE01E480CE000200AE01D4808E01D4858
S113387006E01D4804E01D4802E01D4800E01D4824
S11338807047C0460010004200080042000C00428D
S113389000180042001C004200140042030004000F
S11338A0030006000300070003001E0003001F00BE
S11338B00300080003000A0003000B0003001000CB
S11338C0030012000300130003000C0003000E00A9
S11338D003000F0003001600030018000300190082
S11338E003000500030001000300090003001100A8
S11338F003000D000300170070B586B00C4A6B4638
S113390070CA70C332CA32C3009E864206D00123F5
S11339109A0069465258824203D100E00023D8B28B
S113392003E00133062BF3D1002006B070BDC0467E
S1133930B48F00007047C046F0B50A4B1B78002BCB
S11339400CD1094F094E0A4D0024DE515A19146056
S11339500433182BF9D10122024B1A708000024B58
S1133960C150F0BDD4000020D8000020353900003B
S1133970FC03002010B582B0041C684605490622E9
S1133980054B9847201C054B98476B46185602B0C8
S113399010BDC046CC8F0000A96D0000F9380000AE
S11339A008B5024B1B680020984708BDD8000020CA
S11339B008B5024B5B680120984708BDD800002079
S11339C008B5024B9B680220984708BDD800002028
S11339D008B5024BDB680320984708BDD8000020D7
S11339E008B5024B1B690420984708BDD800002085
S11339F008B5024B5B690520984708BDD800002034
S1133A00F0B5474680B488B0051C0C1C161C296010
S1133A100B681C209A0700D5C1E00B680520DA0763
S1133A2000D5BCE0081C604B9847604B196A821CA7
S1133A30012797403A1C0A431A6207A92427F35D19
S1133A400B701430C0B28046594B98474046594BCE
S1133A509847F05D0021584B98473378012B00D0EC
S1133A609AE022680C231343236095E0EA18D1609E
S1133A7004331C2BFAD10023EB62AB620024AB8627
S1133A802B863623EC543723EC543823EC5403238D
S1133A906B722C712868444B9847071C4749484B64
S1133AA09847BF00474BFD502F6802AB80221A7025
S1133AB05C7001229A70DC703378002B02D10022F2
S1133AC002AB9A70B36A0393F06A0490326B059266
S1133AD0736B06930024E1B2A30003AA985800284C
S1133AE002D1381C384A9047431C06D06A461072EB
S1133AF0000CC0B202A9354B98470134042CEAD11A
S1133B0033786B71337CAB71B37CEB71337D2B7287
S1133B1000226B46DA803378012B14D12868224BBB
S1133B2098471430C0B22A4B9847011CB0696A46C2
S1133B300632284B9847031C1720002B2FD16B46C5
S1133B4006331B783B73B26870680243F3681A4308
S1133B50337C717C002903D11F498978880701D5FA
S1133B6080210A43B17C002902D0802189020B43C1
S1133B70F17C002902D0802189000B43317D00298A
S1133B8002D0802189010B4339680A433A607A687C
S1133B9013437B60002002E00023002166E708B0A5
S1133BA004BC9046F0BDC046F93800000004004053
S1133BB0D14A0000454A000021370000C93C0000FA
S1133BC039390000FC03002071370000AD4B0000C0
S1133BD0ED4A0000493500000020004110B5447949
S1133BE01523012C6CD1047A0023002C68D1002AFF
S1133BF057D04B78002B44D00268137EDC070FD4D7
S1133C000B78D9090022002903D15A09D2012D4980
S1133C1052181F210B4001219940916105234FE067
S1133C200B78DC090022002C03D15A09D201254C5F
S1133C3012191F24234001249C405461897803688D
S1133C401A7ED40700D59962C2790023002A37D19D
S1133C5002680421137E0B42FCD0117E00234C0722
S1133C602ED5538B590703D5518B04230B43538310
S1133C708379012B02D1936A002321E0936A002304
S1133C801EE00B78D9090022002903D15A09D20178
S1133C900C4C12191F210B40012199405161002342
S1133CA00EE00B78D9090022002903D15A09D20168
S1133CB0044952181F210B400121994091610023AE
S1133CC0181C10BD00440041F8B58000674BC4586F
S1133CD025683623E35C3722A25C171C1F402B7E29
S1133CE0AE7D1E40F1073BD56379012B38D1637A51
S1133CF0002B0FD15E4B1B88AB62638E013B9BB2E2
S1133D006386638E9BB2002B01D101232B756379EB
S1133D10012B25D1637A002B22D02268E36A19781B
S1133D20C9B2581CE062A079012804D15878000275
S1133D3001430233E362CB05DB0D9362A38E013BA7
S1133D409BB2A386A38E9BB2002B09D101232B75B2
S1133D50637A012B04D1E379002B01D10223AB75E3
S1133D60720761D56B8B590714D5637A012B0BD07D
S1133D701E223823E2540323637205232B753A076A
S1133D8002D5201CA3699847AB6A6A8B04231343AA
S1133D906B8349E0637A012B16D123689B6A638E97
S1133DA0013B9BB26386638E9BB2002B3CD1042300
S1133DB02B7500223823E25403236372F90733D5A9
S1133DC0201CE26890472FE023689A6AD205D20D3E
S1133DD0D3B2A16A0B70A36A591CA162A17901290B
S1133DE004D1120A5A70A36A0133A362238E013BE1
S1133DF09BB22386238E9BB2002B15D1002238233D
S1133E00E25404232B75637A022B05D17A070BD570
S1133E10201C6369984707E0637A002B04D1B90733
S1133E2002D5201C22699047B30714D56379012B6E
S1133E3011D1637A012B0ED1E379002B0BD102232C
S1133E402B750323637200223823E254F90702D549
S1133E50201CE2689047F60907D080232B752B7647
S1133E607B0602D5636A201C9847F8BDFC0300203A
S1133E7014040020F0B55F4656464D464446F0B45F
S1133E8091B0051C0C1C161C2960081CAD4B9847EE
S1133E90021C23680520D90700D54BE123681C20A8
S1133EA09F0700D546E1A84B186A911C01278F4053
S1133EB0391C014319620FA92D27F35D0B701432CD
S1133EC0D2B29046101CA14B98474046A04B98474D
S1133ED0F05D00219F4B9847F37A6B712423F35CC8
S1133EE0AB712523F35CEB71F37E2B72337F6B7222
S1133EF029688846081C934B9847143000226B4667
S1133F00DA84328A02928023DB019A4221D0802310
S1133F10DB019A4204D880239B019A4211D008E025
S1133F20C023DB01029F9F420FD080231B029F42CC
S1133F3003D01027069700270EE0032706970027D3
S1133F400AE010270697012706E0082706970127AD
S1133F5002E008270697002731680391F26891462A
S1133F6073690493317E8A462623F35C9B46736807
S1133F70002B13D08022520593422ED12723F35CC9
S1133F80002B2ED1376AC0B2734B9847011C381CE2
S1133F906A462632714B9847031C1FE02723F35CC3
S1133FA0002B0AD0069A0092306AB16A6A46263219
S1133FB03B1C6B4FB847031C10E0316A0791C0B239
S1133FC0654B9847011C069A009207986A46263268
S1133FD03B1C634FB847031C00E00023181E00D0AD
S1133FE0A8E0737E002B02D0B37E41468B732A680F
S1133FF0029FD369002BFCD102976B4626331B88A2
S1134000424693814B46039F3B43049F3B43716865
S11340100B43029F1F43524613021F4359464B074B
S11340201F432723F35C002B01D104231F43717E1C
S11340308902337F5B021943F27AB37A134319433B
S1134040737F1B0219432423F35C5B041943252368
S1134050F35C1B0419433389FF2B0BD0F27E002A37
S113406003D0A022D204174302E080225204174353
S1134070194305E0F37E002B02D08023DB041F43A9
S11340802C23F35C002B03D1364B9B789A0701D584
S113409080231F432A68D369002BFCD1434659600F
S11340A02A68D369002BFCD141460F600EAB8022F5
S11340B01A7000225A70DA709A70326B0A92736B1B
S11340C00B93B76B0C97F66B0D9600270EAEF9B2F7
S11340D0BB000AAA9858002802D1201C224A904703
S11340E0431C05D03070000CC0B2311C1F4A9047ED
S11340F00137042FEBD10023EB602B616B61AB61C3
S1134100EB612B62AB626B620022EB85AB853023E3
S1134110EA543123EA543223EA543323EA54286814
S1134120084B9847041C1249124B9847A400124BA1
S1134130E550002011B03CBC90469946A246AB46DF
S1134140F0BDC046F938000000040040D14A000028
S1134150454A000021370000ED4A000049350000BF
S1134160713500000020004171370000AD4B0000A4
S11341703942000039390000FC03002010B5021C4C
S11341800368C4791C20002C0DD0D28D92B2052076
S1134190002A08D1DA69002AFCD1198502211A7E85
S11341A00A42FCD0002010BD10B5031C04688279BB
S11341B01C20002A33D09B8D9BB20520002B2ED1CE
S11341C0237E5A072BD5E369002BFCD1638BDBB22A
S11341D09A0621D09A0703D5022363831A201EE08E
S11341E05A0703D5042363831E2018E0DA0703D596
S11341F001236383132012E0DA0605D5628B1023B2
S11342001343638342200AE09A0605D5628B202378
S113421013436383412002E0238D0B80002010BDF3
S1134220931C9B00C3185960012393401A1C30232C
S1134230C15C0A43C2547047F8B58000644BC5584A
S11342402C68E369002BFCD1237EA67D1E4031231C
S1134250EB5C3022AF5C1F40F10720D5EB8D9BB2A5
S1134260002B1AD0AB6A1A78D2B2591CA9626979A8
S1134270012904D1597809020A430233AB62D305F8
S1134280DB0D2385EB8D013B9BB2EB85002B06D127
S1134290012323750223A37501E001232375B207CB
S11342A009D50223237500223323EA54FB0702D5E0
S11342B0281CE968884772076AD5AB8D9BB2002B2E
S11342C064D0638BDBB2190702D43F22134001E0B0
S11342D037221340002B37D09A0707D51A223223EE
S11342E0EA54628B02231343638327E0590707D5FB
S11342F01E223223EA54628B0423134363831DE09A
S1134300DA0707D513223223EA54628B01231343BD
S1134310638313E0D90607D542223223EA54628B21
S113432010231343638309E020221A4206D041225A
S11343303223EA54628B2023134363837A0727D5FD
S1134340281C6B69984723E0228DD205D20DD3B285
S1134350696A0B706B6A591C69626979012904D115
S1134360120A5A706B6A01336B62AB8D013B9BB2CC
S1134370AB85002B0CD10423237500223223EA548D
S1134380BA0705D5281C2B69984701E00423237537
S1134390F10607D5102323752376FA0602D5281CC7
S11343A0EB699847B10607D52023237523763A078E
S11343B002D5281CAB699847310707D50823237514
S11343C02376BA0602D52B6A281C9847F8BDC04646
S11343D0FC03002008B5082834D880001B4B1B5868
S11343E09F468020000230E0194B18692DE0194BDC
S11343F0186A8005800F184BC340181C25E0144B25
S1134400586922E0124B1B68022018401DD0114944
S11344101022CB681A42FCD00D4B1B685A0713D5E7
S113442000200E4B98470A4B9B681B041B0C5843F7
S11344300BE05023074AD35C00205A0705D5044BF0
S1134440D86802E0002000E0054808BDD48F0000D1
S1134450F00000200008004000127A00ED4A00003D
S1134460006CDC0270B50C4B1C6A017885784078CE
S11344700122104080014026B44304432A40D00165
S113448080229443221C0243032001400902034872
S113449002400A431A6270BD00080040FFFCFFFF9F
S11344A0F0B54F464646C0B4194A946941788C46E3
S11344B005780679C77843799946807801231840AE
S11344C0800004218C43044360461840C000082146
S11344D08C430443181C384080014027BC430443E8
S11344E0181C3040C0018026B443044307202840F0
S11344F00002084D2C40044349460B40190306486A
S1134500231C03400B4393610CBC90469946F0BDB9
S113451000080040FFF8FFFFFFEFFFFFF0B55F4624
S113452056464D464446F0B4254A948A4578037865
S1134530594259418A4683789C46C1788846037912
S11345409946467B077B817B8B4680681D4B58616F
S113455001235146880004218C43044348461840F3
S1134560C00008218C430443404618400001102138
S11345708C43044360461840400120218C4304438B
S1134580181C384080014027BC430443181C3040A9
S1134590C0018026B44304430720284000020A4D8A
S11345A02C40044359460B4019030848231C03407C
S11345B00B4393823CBC90469946A246AB46F0BD61
S11345C000080040F0000020FFF8FFFFFFEFFFFFAE
S11345D010B5027A9206120C43899B059B0D1A436F
S11345E0154B5A60818842881143C47982792243E9
S11345F00A434178C9010A431A600378042B0FD196
S1134600027B9206038A1A43C3891B040B490B409D
S11346101A43094B9A60196804220A431A6009E094
S1134620202B07D1028A044B9A6019688422D20095
S11346300A431A6010BDC046F00000200000FF03CA
S1134640082843D88000224B1B589F4600203EE098
S1134650204B196A02220A431A62002037E01D4BDC
S1134660996902220A439A61002030E0194B198AA1
S113467002220A431A82002029E0164B998A022258
S11346800A439A82002022E0134B196802220A434B
S11346901A601A68114B1A400E4B9A84191C102286
S11346A0CB681A42FCD00C4A91680A4BD962516813
S11346B09962126892B29A84002008E0054A442361
S11346C0D05C02210143D154002000E01720704740
S11346D0F88F000000080040F00000207FFF000079
S11346E0F0B54F464646C0B491B0C222D2005B4BEF
S11346F09A605B4B5A681E218A4304210A435A601C
S1134700032201AB1A700024564DE0B201A9A84758
S11347100134252CF9D10CA8002303708370802266
S113472012028260C3700122027103738373032235
S1134730427043734C4B984705204C4B984747496C
S11347400222CB681A42FCD0444B998A80220A4345
S11347509A82474D2A68D104490E09049869454A4A
S113476002400A439A610AA801234370837000241B
S1134770C47003710723037044713F4B98470420AE
S11347803A4B984705AB00225C809C809A71DA71A1
S11347903F215981042119705A702B689B0E3F2BBD
S11347A000D11F2305A80372344B0382072303732C
S11347B03F23C381324B984704A800254570012646
S11347C0867005702F4B98470620284FB8472E4B0C
S11347D0984701AC029665702572657205232370B3
S11347E00120211C294B994698470120284A9046CC
S11347F090476570257265720423237020236360DB
S11348000220211CC8470220C04726700020211C1A
S1134810144B984700201F4B98470720B8470F496F
S1134820D022CB681340D02BFBD11B4A0023137238
S113483053729372D37201A901224A604B700B72B6
S11348404B7207230B700020104B98470020104B2D
S1134850984711B00CBC90469946F0BD0008004042
S113486000400041D14A00001D45000041460000BF
S113487024608000FFFF80FFA1440000B905000010
S1134880D1450000654400009D480000C148000077
S113489075490000454A000000040040064B996930
S11348A008220A439A610122044B1A70191C0B78DE
S11348B01342FCD17047C04600040040000C004085
S11348C0F8B5061C071C0D782D0205434B78002B08
S11348D002D08023DB021D434B7A002B02D08023BD
S11348E01B031D434C68012C17D9631E1C420FD1B6
S11348F0022C06D90223002201325B009C42FBD821
S113490000E000221702374380235B031D4304E0C9
S11349102702374380239B021D430B7A002B02D0CE
S113492080239B031D430F4A53785BB2002BFBDBB0
S11349300D4B98470D4B1E700A4A53785BB2002BFF
S1134940FBDB084B9F601A1C53785BB2002BFBDB2C
S1134950044B5968802252020A4015435D60044B9F
S11349609847F8BD000C0040712E0000080C004070
S1134970B12E000010B5041C0B4A53785BB2002B17
S1134980FBDB0A4B98470A4B1C70074A53785BB20F
S1134990002BFBDB044B5968802252020A435A6005
S11349A0044B984710BDC046000C0040712E000017
S11349B0040C0040B12E000070B5041C1A4A537850
S11349C05BB2002BFBDB194B9847194B1C70164A42
S11349D053785BB2002BFBDB134E7068C004C00E2F
S11349E0144B9847051C124B1C707668F602F60FA0
S11349F0114B1C700C4A53785BB2002BFBDB0A4B47
S1134A009C68240AA4B20D4B9847002E07D1012CB0
S1134A1007D9281C211C0A4B9847051C01E00134C6
S1134A20E540281C70BDC046000C0040712E0000FB
S1134A30040C0040D5430000080C0040B12E0000D7
S1134A40A56B000010B5041C064B9847064B1C7060
S1134A50064B59888022D2010A435A80044B984756
S1134A6010BDC046712E0000020C0040000C004036
S1134A70B12E000010B5041C0F4B98470F4B1C704F
S1134A800F4B58880005000F59880E4A0A405A8077
S1134A9059880D4A0A405A80191C8022D2014B8839
S1134AA01342FCD1064B01025888064A02400A43CD
S1134AB05A80064B984710BD712E0000020C00402E
S1134AC0000C0040FFF0FFFFFFBFFFFFB12E00000E
S1134AD010B50C7824020443024B9847A4B2024B4D
S1134AE05C8010BD754A0000000C004010B5041C29
S1134AF0064B9847064B1C70064B5C882405240F14
S1134B00054B9847201C054B984710BD712E00009B
S1134B10020C0040000C0040B12E0000B949000016
S1134B2030B5D378002B1ED11378802B04D01B060C
S1134B3080246402234300E0002354780225AC431C
S1134B400AD19478002C03D18024A402234302E0E8
S1134B50C024E402234341605478013C012C04D86E
S1134B60114C234001E0416000230D042D0CA024CE
S1134B70E4052C431C4384620D0CD02424062C43EE
S1134B801C438462D478002C0CD15C0305D5937843
S1134B90012B01D1816100E041615378013B012B7C
S1134BA000D8816030BDC046FFFFFBFF08B5031C81
S1134BB00A1CC1090020002903D15809C001044975
S1134BC040181F210B4001219940024B984708BD12
S1134BD000440041214B00007047C04608B5044B17
S1134BE09847044B9847044B9847044B984708BD93
S1134BF0E1460000E12E0000D94B00006D300000BA
S1134C00031C084A90420AD0074A904205D000206B
S1134C10064A934205D1022002E0012000E0002070
S1134C20C0B2704700200042002400420028004225
S1134C3010B5041C081C4F4B9847002323608000C8
S1134C404D4A80586060A372E372237363722372C7
S1134C50E36123626362A36223756375A375E375DD
S1134C602376637623746374A374E3742C22A354AD
S1134C702D22A3542E22A3542F22A3543022A35412
S1134C803122A3543222A3543322A3543422A354F2
S1134C903522A3543622A3543722A3543822A354D2
S1134CA03922A3543A22A3543B22A3543C22A354B2
S1134CB03D22A3543E22A3543F22A3544022A35492
S1134CC04122A3544222A3544322A3544422A35472
S1134CD04522A3544622A3544722A3544822A35452
S1134CE04922A3544A22A3544B22A3544C22A35432
S1134CF04D22A3544E22A3544F22A3545022A35412
S1134D005122A3545222A3545322A3545422A354F1
S1134D105522A3545622A3545722A3549822A35491
S1134D20A365A3679922A354E365E3679A22A35476
S1134D3023668022A3509B22A35463668422A3503B
S1134D409C22A354A3668822A3509D22A354E36605
S1134D508C22A3509E22A35423679022A3509F2207
S1134D60A35463679422A3500121A022A154A12239
S1134D70A35410BD014C00002C900000F0B55F4618
S1134D8056464D464446F0B48FB080460C1C161C63
S1134D90081CDB4B9847051C071CDA4B196A80007A
S1134DA0D94A82580A431A6223681C20990700D5FD
S1134DB0D9E12368DA0700D5D5E1AB00D34A9B5883
S1134DC0172031688B4200D2CDE17268934200D241
S1134DD0C9E1F069834200D2AEE1316A8B4200D26C
S1134DE0ACE1726A934200D2AAE1B06A834200D273
S1134DF0A8E10023C649F21898321278002A03D099
S1134E00CA5D9A4200DC9FE10133082BF3D10021F3
S1134E108B460023802149048C465846F218127CA4
S1134E20012A07D1BB49CA5D9A4200DA8EE1624683
S1134E309A4010430133042BF0D18346A123F35C41
S1134E40002B04D080231B01021C1A439346337B9E
S1134E500793F07A0890337A5A1E93419B00059386
S1134E60737A012B02D1059919430591A94B5B5D16
S1134E700493331C2C335A7A049B934200D871E177
S1134E802C23F15C0F2900D96CE1331C2C33301C2A
S1134E90363003900CA881460DA802904846BC46C3
S1134EA05F460997A146B246AB460DE0039B5A7A8A
S1134EB00499914200D855E119781C1C0A340394D2
S1134EC004300F2900D94DE10D06F0273F053D4080
S1134ED05C7824049F78791E8F41FF010197D9786B
S1134EE04E1EB141C9001E79771EBE4136019202A1
S1134EF0C0273F013A4015435A7903273A401543E6
S1134F002C439A79520160252A401443DA7912021B
S1134F10C027BF003A4014431A7A1203E023DB018E
S1134F201A402243019F174339430E430660029CF3
S1134F30A042BBD167464C4656465D460998834617
S1134F40734B585D5246413200218946002380212B
S1134F5049028C4601218A46211C041C4846894684
S1134F60F11850310978002905D09C4200D8EFE0AF
S1134F70614699400843117800290CD09C4200D81E
S1134F80E8E0022904D10221FF319940084302E0FC
S1134F9051469940084301330232082BE0D14C4674
S1134FA081465C4B5B5D0493737E1B0130221A4087
S1134FB0337E07210B401A4303920023311C103126
S1134FC0802040028446CA181279002A08D0049A24
S1134FD09A4200DCC0E062469A4003981043039072
S1134FE00133042BEFD10023191C4046C218516031
S1134FF00433302BFAD1002343638363AA00464B66
S1135000D0500460A023F25C3C23C2540BA9B37AB1
S11350100B70424B5B5D9846181C414B98474046C9
S1135020404B98473A4B5B5D002B27DD782189196B
S11350300025374A9246231C0C1C98467319983352
S11350401B78002B13D001232A206844037000220C
S11350502B2169440A7020680AAA10702921694426
S11350600B70231C203B1878111C2F4A90470135E4
S113507004345046C35DAB42E0DC4446089D2A023A
S1135080079F3B0313435846034323600422A3684A
S11350901A42FCD1FF2323710422A3681A42FCD1D3
S11350A0059D65710C9FE7600D9820614946A161DB
S11350B01E4AA3681342FCD1039DE5631022A36832
S11350C01A42FCD137686763194AA3681342FCD1BA
S11350D0706820640498002840DD1C360021154DBA
S11350E02A1C8A40A3681342FCD104CE0B1C103343
S11350F09B00E3185A6001318842F1DC30E0C0467D
S1135100014C000000040040209000002C9000009E
S11351103C90000038900000180400201C9000000F
S1135120D14A0000454A0000AD4B00004000020097
S11351308000040000010800172014E0172012E08A
S1135140172010E017200EE017200CE017200AE0CB
S1135150172008E0172006E0172004E0002002E0F2
S1135160002000E017200FB03CBC90469946A246B0
S1135170AB46F0BD920083185960034BD358426B81
S113518013434363002070474090000038B5041C6B
S11351900D1C0068094B9847094B1B5C1F221A40E1
S11351A0012393401A1C074B1A60AD00064BEB58C1
S11351B0A26B1A43A2632268936238BD014C0000BB
S11351C07090000000E100E040900000F0B5474618
S11351D080B480000D4BC6583368DB6A726B134091
S11351E0B26B1A4090460024094FE55943462B42BE
S11351F005D033195B68301C98473368DD6204348A
S1135200302CF2D104BC9046F0BDC04618040020F6
S11352104090000008B50020014B984708BDC046E7
S1135220CD51000008B50120014B984708BDC04688
S1135230CD51000008B50220014B984708BDC04677
S1135240CD510000FEE7C04670B52C4B2C4A9A4263
S113525003D02C4B294A9A4204D32B4B2B4A9A4213
S113526010D31BE02A4B27480330C01A80080130B2
S1135270800000232149224AD458CC50043383426D
S1135280FAD1EAE7214B1A1D1F490331891A89080B
S113529089005218002102C39342FCD11D4BFF2107
S11352A01D4A8A439A60022190235B001B4AD15015
S11352B01B4BD8780321884302221043D870DD7831
S11352C00C24A54308200543DD70164B9E7B302536
S11352D0AE43202535439D739D7BA5432843987396
S11352E0987B884302439A730F4B596880220A4380
S11352F05A600E4B98470E4B9847FEE7000000207B
S1135300A894000078000020F40500207800002014
S11353100400002000ED00E00000000000700041E7
S1135320005000410048004100400041496D000028
S1135330ED590000F0B5474680B40C1C9046002897
S11353400CD1002A0DDD8F18094E0A4D3068211C3E
S11353502B6898470134BC42F8D104E00120404254
S113536002E0002000E0404604BC9046F0BDC04688
S11353702C04002024040020F0B5474680B40E1C01
S1135380151C0138022810D8002A11D000240D4B16
S113539098460D4F43461868315D3B68984700288E
S11353A008DB0134A542F5D107E00120404205E0C5
S11353B0002003E00120404200E0201C04BC904691
S11353C0F0BDC0462C04002028040020064B1B68B6
S11353D0002B02D1054A044B1A60034A13681818BB
S11353E01060181C7047C04608010020F8250020F2
S11353F0012040427047C04680239B014B6000203F
S11354007047C04601207047002070470260016168
S1135410002242608360009BC360704710B5041C87
S11354204268002A05D0C0682169A3689847002310
S1135430636010BD38B5041C0D1C016842688B1AEA
S1135440002B01DC034B984722696368591C616097
S1135450D55438BD1D54000070B5051C0E1C09122E
S1135460024CA04771B2281CA04770BD35540000FF
S1135470F8B5061C0D1C141E08D0054F00216956F2
S1135480301CB847013C0135002CF7D1F8BDC046AB
S113549035540000024B1A6801321A607047C04646
S11354A00C01002064234380002303704370704781
S11354B0F0B5474680B4ACB00C1C6D461D4B6A4633
S11354C0C2CBC2C263884365071C1437161C2378F9
S11354D09B005959101C184B98470020174B9847AC
S11354E0174B1B7ADBB2D84080466188FA20000251
S11354F0144B9847011C4046134B98477060052392
S1135500F37223789B005959381C321C0F4B98476F
S113551062780832D2B2381C0D490E4B9847617834
S11355200831C9B2381C0C4B98472CB004BC9046C7
S1135530F0BDC04674900000314C0000B949000031
S113554000040040416C0000A56B00007D4D00008C
S113555095540000755100008D51000042690221EC
S113556093681942FCD1116802230B4313607047FE
S113557038B5041C0578E80710D46160291C0220A2
S113558081432170A260181C616D064B9847E0604E
S11355902278012313432370002001E001204042BC
S11355A038BDC046A56B000010B5031C8C00641800
S11355B0A40004192078022101432170101C596DA4
S11355C0034B9847034B1B68C018206110BDC046AD
S11355D0A56B00000C0100208B0059188900435C66
S11355E0022293434354704738B5041C0378DA0706
S11355F022D59D0720D5114B1B680269D31A1BD5F0
S113560003785D0718D41A1C042313430370002184
S1135610A268E3686568A847E368002B04D0074ADA
S11356201268D318236103E0237802229343237082
S1135630237804229343237038BDC0460C01002014
S1135640054B1B683F2B05DC591C034A11600021E4
S1135650024AD1547047C04644010020880100200A
S113566008B50E4B1B6A1A020AD50D490D4B1A6870
S11356700A601B790B710C480C4A0D4B984709E0E2
S113568007480C4B1A6802609A8882809B79837160
S1135690094B98470122094B1A7008BD8044004108
S11356A044040020949000009C900000B0900000FE
S11356B0356F0000BC900000557000008F0400207E
S11356C010B5084C0123237220780530C0B23C2168
S11356D0054B984721700548211C0022044B98472C
S11356E010BDC046840400202D6C0000300400204E
S11356F0B532000008B5014B984708BDF15E0000C3
S113570008B5014B984708BD916A000030B583B0D5
S11357100C1C2C281ED0362837D0062843D1234809
S1135720234B98472348211C234DA8472123E15CA0
S11357302248A8472C23E1562148A8472223E15CAC
S11357402323E25C2423E35C2520205C00901D4895
S1135750A84728E00B78012B05D11B48144B984728
S11357601A4B98471FE0002B1DD11948104B98473E
S1135770FF230093174806210222174B174CA0471A
S113578017480121174B98470DE009786278A378F0
S1135790E07800901448084CA04711481349144B72
S11357A09847144B984703B030BDC046C4900000DE
S11357B055700000D8900000356F0000F490000090
S11357C0109100002C910000509100003D12000047
S11357D06491000078910000809100002112000083
S11357E048020020516700008C9100008090000066
S11357F0455F0000B912000070B582B0051C0E1C94
S113580000226B46DA80064C281C69460631A04704
S11358100028F9D16B4606331B88337002B070BD83
S1135820A941000070B5061C0D1C034C301C291C3A
S1135830A0470028FAD170BD7D41000030B587B083
S1135840041C01291DD0052930D0002937D1136843
S1135850002B0CDB1B4B0093002301930293039357
S11358600493059301210022174CA04727E0174D0C
S11358701748291C174B9847201C291C164B98477E
S11358801DE0117800290DD114490022144B9847CA
S1135890144A3123D05C02210143D1541248134BE2
S11358A098470CE012480B4B984708E011480F4BFF
S11358B098470C4A3123D15C02208143D15407B06C
S11358C030BDC046480100205960000080900000AF
S11358D0B8910000356F0000455F0000F0910000B2
S11358E0B164000010010020009200005570000017
S11358F01C9200005092000010B584B001AC201C32
S1135900074B9847372301930023636001232372D5
S11359100323E3720720211C024B984704B010BDF7
S1135920D9300000ED30000008B5054807210022F9
S1135930044B984707200021034B984708BDC046F5
S113594061560000752F0000A52F000030B587B008
S113595001AAA0231B01138000209070D070FA23A9
S1135960DB00D3801049114DCD8001244C710C71A2
S11359708870487008700E4B1C71987058705C7178
S1135980C978D970DD8005211970147103A921CB60
S113599021C11474074C201C0749084B9847201C4C
S11359A0074B984707B030BDE8040020DF0700002C
S11359B0840400203004002000140040E53200007C
S11359C00532000010B5054C201C05490022054B8A
S11359D09847201C0021044B984710BD3004002038
S11359E0C1560000C1340000E1340000F0B54F4658
S11359F04646C0B4AFB09A4B98479A4B98479A4BD7
S1135A0098479A4C201C9A499A4B9847201C9A4BC9
S1135A1098479A4B98479A4B98470125994B1D7084
S1135A20BFF35F8F62B607AA8023DB0507930023C9
S1135A305360FF21118100219372D37224201554E5
S1135A4025201554262013542720135493622C2008
S1135A5013542D20135453611382D3761176117786
S1135A605176132393765177C4239B03D360012388
S1135A705B4213635363844B9363844BD363E1238B
S1135A805B021362824C834B1C608349834B196015
S1135A908349844B1960201C8349844B9847844F65
S1135AA03B6898680021834EB0473B6858680021E2
S1135AB0B047201C80490122804B98472668301C3F
S1135AC07F4B98471F23184085407E4B1D602368F9
S1135AD0DA69002AFCD132680223134333607A481E
S1135AE07A4B984707A87A4B98477A4C201C07A909
S1135AF0794B9847201C794B984707A8784B9847CF
S1135B000894784B0A9380230B93774807A9774B23
S1135B109847011E03DA7648764B9847FEE77248A9
S1135B207549764B9847011E03DA7548714B9847BF
S1135B30FEE7744B9847744B744A191C31CA31C13F
S1135B40734C201C7349744A744DA8477448211C33
S1135B50684B9847002329932A932B932C932D93D6
S1135B60704B289328A8704B9847011E03D06F48A8
S1135B70604B9847FEE76E4B98476E486E496F4BF3
S1135B809847032000216E4B984717A80A230380E7
S1135B906C4B9847FF2300936B48062102226B4B02
S1135BA06B4CA0476B4F4B4E6B4D0020B847301CDD
S1135BB0A8476A4B1B78002B25D000208046674BF2
S1135BC018702B4C2948211C654B9847237962791E
S1135BD00092E2880192A27802926278039222787B
S1135BE0049218A85F49604A4C4CA04718A85F4B20
S1135BF09847031C44460094012201923A484449C0
S1135C0018AA5B4CA0475B4B1B78002BCDD000201F
S1135C108146584B1870154801239846046823722E
S1135C20134C211C4E4B984762792379E1880091EB
S1135C30A1780191617802912178039118A84E49C5
S1135C40364CA04718A8494B9847031C4C4600946F
S1135C50404601902448494918AA454CA047A4E766
S1135C60DD4B00004D590000C559000030040020F0
S1135C70E804002071320000A1330000F95800004C
S1135C80295900001000002003002A0003002B0003
S1135C90100100202C0400202558000028040020B6
S1135CA0F95700002404002000180042753E00004B
S1135CB0740000208D700000415600002142000055
S1135CC07539000000E100E0889200005570000082
S1135CD0A554000090040020B15400005D5500005C
S1135CE0315E0000C801002048020020555E00001B
