S01B000053414D443231204D515454204D6F6E69746F722E7372656313
S1130000D82A0020B1660000AD660000AD6600008D
S113001000000000000000000000000000000000DC
S1130020000000000000000000000000AD660000B9
S11300300000000000000000AD660000AD66000096
S1130040AD660000AD660000AD6600004903000027
S11300500D480000AD660000AD660000AD6600000E
S1130060AD660000094E0000194E0000294E000044
S1130070394E0000494E0000594E00007D660000D4
S11300808D6600009D66000019040000290400002C
S1130090390400004904000059040000AD66000062
S11300A0AD660000AD660000AD660000AD66000000
S11300B010B5064C2378002B07D1054B002B02D03A
S11300C0044800E000BF0123237010BDBC000020E1
S11300D00000000098AA000008B5084B002B03D0CC
S11300E00748084900E000BF07480368002B03D015
S11300F0064B002B00D0984708BDC0460000000006
S113010098AA0000C000002098AA00000000000087
S113011010B5CA88C388D21A92060C7964044B7944
S11301209B0523438C782403234313430279002A39
S113013005D1CA78002A02D080225202134348789B
S113014080010A781043184310BDC04610B58C0EC8
S1130150C388E318D3808B011B0F53718B02DB0E12
S113016013710379002B03D0CB03DB0E937005E0EE
S11301700B041B0F9370CB03DB0FD3700B059B0E8B
S113018053703F231940117010BDC0460168082206
S1130190054B1A600268937A5BB2002BFBDB0A887A
S11301A0022313430B80704700E100E010B501689F
S11301B008248023054AD4500268937A5BB2002B4A
S11301C0FBDB0B88022293430B8010BD00E100E0AF
S11301D038B5041C0568074B9847002323826382C3
S11301E02268937A5BB2002BFBDB2A88012313433A
S11301F02B8038BDAD01000010B50468034B98474F
S1130200A37A5BB2002BFBDB206110BD110100005F
S113021010B50A1C03684179002906D105495980A3
S11302200468A17A49B20029FBDB1969024B98479B
S113023010BDC0460080FFFF4D01000070B50E1CCC
S1130240141C05681723012A0BD8074B9847AB7A6F
S11302505BB2002BFBDBE4002D19A861337A2B770A
S11302600023181C70BDC0461101000030B583B0D6
S1130270041C151C01601C4B996920220A439A61D5
S113028001A902230B700420184B98470420184B33
S11302909847201C174B98472B792371EB7863718F
S11302A0EB88E380144B1C6023682A882979002991
S11302B002D008210A4301E048210A43A978002911
S11302C001D080210A431A80EA78002A04D0598890
S11302D08022D2010A435A80291C0831201C0022A2
S11302E0064B984703B030BD00040040395F00005E
S11302F0AD5E0000D1010000CC0800203D020000EA
S1130300012A01D917200AE0931C9B001950038A83
S1130310012191400A1C1A4392B2028200207047C4
S113032010B50368012902D18022DA7104E00122A8
S11303308A4001242240DA71438A01228A40111C36
S1130340194389B2418210BD10B50E4B1B681C685D
S11303505A8A198A081C1040227AE1790A40D10984
S113036006D0810701D5DB6898478023237207E014
S1130370D10705D5C20701D59B689847012323728D
S113038010BDC046CC080020931C9B001950022AC3
S113039004D1027E1023134303760CE0032A04D114
S11303A0027E20231343037605E0012393401A1CA5
S11303B0037E1A43027600207047C04638B5800099
S11303C0144BC4582268957B237E1D40637E1D40D8
S11303D0EB0705D5201CA26890470123226893737C
S11303E0AB0705D5201CE26890470223226893736B
S11303F0EB0605D5201C22699047102322689373CD
S1130400AB0605D5201C62699047236820229A73A5
S113041038BDC046D008002008B50020014B9847DD
S113042008BDC046BD03000008B50120014B984734
S113043008BDC046BD03000008B50220014B984723
S113044008BDC046BD03000008B50320014B984712
S113045008BDC046BD03000008B50420014B984701
S113046008BDC046BD03000070B586B001A90C4AA2
S11304700B1C70CA70C312CA12C3019D854206D0F8
S113048001239A0001A95258824203D100E00023BB
S1130490D8B203E00133052BF3D1002006B070BDC0
S11304A088920000F0B54F464646C0B489B0041C9B
S11304B00D1C9046081C904B984781468F4F391C61
S11304C0143106A805228E4EB047391C1C3103A8EE
S11304D00A22B0470023A360E360236163612376AB
S11304E0637648468200874BD450256041468B781A
S11304F0082B04D117204A46D20700D4F6E0237112
S11305002B880520D90700D5F0E0EB7B1C20DA0608
S113051000D5EBE02B88990700D5E7E04246137C31
S1130520002B0CD002A901238B700022CA70404614
S1130530806908704B704246107D734B9847404663
S1130540037F002B0BD002A901238B700022CA70F9
S1130550426A0A704B70036AD8B26B4B98476B4B74
S1130560196A4846420003A8125A0A431A624146CD
S11305708B78082B08D1654B1A6A48460130400035
S113058003A9415A0A431A6201A9424613780B701F
S113059006AB48461E5C301C5D4B9847301C5D4BD7
S11305A09847414688880B89034388798A781043A1
S11305B018434B78002B02D080231B011843216879
S11305C07F22CB7B9343FCD128804246507B431E41
S11305D098418000937B002B01D0012318432168AC
S11305E07F22CB7B9343FCD1FF232B71002805D0C2
S11305F021687F22CB7B9343FCD168714346987A70
S1130600DB7A002B01D01023184341460B7B002BCF
S113061001D02023184321687F22CB7B9343FCD154
S1130620A87122687F21D37B8B43FCD12379042BCF
S113063005D0082B41D01720002B57D124E07F216F
S1130640D37B8B43FCD128234246D35C2B74216893
S11306507F22CB7B9343FCD129234046C35C2B757B
S113066021687F22CB7B9343FCD12A234146CB5C78
S11306702B7621687F22CB7B9343FCD12B234246EC
S1130680D35C6B76002031E07F21D37B8B43FCD19C
S11306904046038D2B8221687F22CB7B9343FCD180
S11306A041464B8D2B8321687F22CB7B9343FCD126
S11306B04246938D6B83002018E07F21D37B8B43CC
S11306C0FCD143469B6A2B6121687F22CB7B9343F9
S11306D0FCD14046C06AA86121687F22CB7B93434A
S11306E0FCD141460B6BEB610020FFE709B00CBC69
S11306F090469946F0BDC046690400008892000007
S1130700BD790000D00800201560000000040040FE
S1130710395F0000AD5E0000054B1B683F2B05DC14
S1130720591C034A11600021024AD1547047C04643
S1130730240700202C070020054B1B6A1A0403D54C
S11307400322044B1A8002E00322034B1A807047F1
S113075000440041FA080020F8080020264B1B68DA
S1130760092B06D90022244B1A600122234B1A704C
S113077002E00133204A1360214A13889BB2591EB8
S113078089B21180002B0BD013889BB2002B07D1A8
S1130790BFF34F8F1B4A1C4BDA60BFF34F8FFEE74A
S11307A01A4B1B889BB2002B0FD0194B1B6A1A04DF
S11307B00BD5164B1A88013A92B21A801B889BB249
S11307C0002B02D10122134B1A70134B1B889BB2CE
S11307D0002B0FD00E4B1B6A1A040BD40E4B1A8835
S11307E0013A92B21A801B889BB2002B02D10122DB
S11307F00A4B1A707047C046F0070020EC0700202F
S11308006A0900200400FA0500ED00E0FA0800205F
S1130810004400416C090020F8080020060900206B
S113082030B593B0041C0D1C02AB0022029203925B
S11308300492059206920792089209920A920B92E8
S11308400C920D921B221A700F48211C0F4B9847D3
S11308500F4B187843B2002B14DB0EAB02221A8024
S1130860F622D2015A800F9540B2009310230193CF
S113087002A930220023074CA047002802D00648D2
S1130880064B984713B030BD08930000697F000001
S113089000000020B1430000249300008980000080
S11308A070B582B0041C012902D0092914D059E082
S11308B0002A0DD00023D356002B09D12A492B4AF4
S11308C02B4CA04700284DD02A482B4B984749E091
S11308D02A48294B984745E01368002B42D004214D
S11308E0525E002A3ED028229E5C29229D5C2A2248
S11308F0995C2B22985C1B7807221340042B03D0AD
S11309001F481D4B98472DE036062D0435432843D8
S1130910090208431B4A8018019001A81A4B984702
S1130920011C1A481A4B984701A81A4B98471A4BAE
S113093085689D704168597002681A704569174945
S11309406A18DA80C2681A71026901325A71201C6D
S1130950134B9847002805D1FF22124B1A7001222D
S1130960114B1A7002B070BD50010020B405000094
S113097091450000489300008980000060930000C6
S1130980789300008081557C21790000AC930000AD
S1130990697F000079790000600900206C0700007D
S11309A011450000000000204C01002010B582B069
S11309B02C2802D036281AD028E00B78012B05D138
S11309C01348144B9847144B98471FE0002B1DD134
S11309D00022124B1A7012480E4B9847FF230093C3
S11309E0104806210222104B104CA0470EE00C7850
S11309F04A788B78C97800910D48211C0D4CA0478A
S1130A000122064B1A700C480C4B984702B010BDDB
S1130A10CC93000089800000A12800002807002052
S1130A20049400003C9400004494000065280000F5
S1130A3050940000697F000088940000B1460000D3
S1130A4008B5014B984708BD196C000008B5014B67
S1130A50984708BD69760000F0B583B00C1C2C28BB
S1130A601ED0362841D0062864D13348334B9847EA
S1130A703348211C334DA8472123E15C3248A84761
S1130A802C23E1563148A8472223E15C2323E25C6E
S1130A902423E35C2520205C00902D48A84749E0EE
S1130AA00B78012B0AD12B48264CA0472A48A04793
S1130AB02A48224B98472A4B98473BE0002B39D1D0
S1130AC02448204CA0472748A04724481B4B98475C
S1130AD0FF230093244806210222244B244CA047E0
S1130AE024480121244B984724E01A4F381C154C04
S1130AF0A0472248A047194E301C104DA847381C67
S1130B00A0471F48A047301CA8471A481D491E4B40
S1130B10984701221D4B1A70381CA0471C48A04757
S1130B20301CA8471B4B9847381CA0471A48A047BD
S1130B30301CA84703B0F0BD9894000089800000E1
S1130B40AC940000697F0000C8940000E4940000A5
S1130B5000950000249500002895000044970000AB
S1130B60A1280000509500003C940000449400002B
S1130B7065280000D8000020297300006495000057
S1130B8074950000D49200006D6C00006809002088
S1130B909C9500001D290000C095000070B582B02E
S1130BA0051C0E1C00226B46DA80064C281C694684
S1130BB00631A0470028F9D16B4606331B883370F1
S1130BC002B070BD1156000070B5061C0D1C034C1C
S1130BD0301C291CA0470028FAD170BDE55500003F
S1130BE070B586B0051C141C012930D002DC002924
S1130BF005D05BE0022944D0052946D056E01368AD
S1130C00002B14DB2A4B00930023019302930393DC
S1130C100493059301210022264CA0472648274C23
S1130C20A0472748A0472748274B98473EE0274836
S1130C30224CA047264E2748311CA0472648E721CE
S1130C40264AA047281C311C254B98472EE01378D0
S1130C50002B0BD11848194CA0472248A04719482B
S1130C60194B98470222204B1A701FE01748134D66
S1130C70A84721781D48A8471748F721174AA847CD
S1130C8014E000221A4B1A8010E00B480B4B9847D3
S1130C9018480D4CA0470B48A047174A3123D15C94
S1130CA002208143D15400220F4B1A7006B070BD4C
S1130CB0D8950000816D000024950000697F000034
S1130CC0EC95000044970000898000000C96000019
S1130CD0D49200001096000048960000B0920000E4
S1130CE06D6C00006C960000680900208896000076
S1130CF06A090020B8960000F407002010B584B0FB
S1130D0001AC201C084B98470F2301930023636018
S1130D10012323720322E272A3720F20211C034BCE
S1130D20984704B010BDC0460149000015490000B1
S1130D3008B505480F210022044B98470F200021D5
S1130D40034B984708BDC046390700009D47000083
S1130D50CD47000010B586B001AAA0231B01138063
S1130D6000239370D370FA23DB00D3800123137123
S1130D70074903AB11C911C306231374054C201C86
S1130D800549064B9847201C054B984706B010BDF3
S1130D90FC080020E4080020001400406D0200005C
S1130DA08D01000010B5054C201C05490022054B9F
S1130DB09847201C0021044B984710BDE4080020EC
S1130DC0AD0E0000010300002103000070B582B0E5
S1130DD0041C27486946274B9847274B69460A79DC
S1130DE01A71887898704D785D704A795A71CA780A
S1130DF0DA70CA88DA800A781A703B2C09D81D1C6C
S1130E0001232B721419E0B23C211C4B9847297022
S1130E1026E01B4B9C420DD8174E02233372201C34
S1130E203C21184B98472818C0B23C21134B9847D3
S1130E30717015E0144B9C4207D80F4C03232372A6
S1130E401249134B984761700AE01248124CA047AC
S1130E501248A0471248CC214900124AA04704E096
S1130E60034805490022104B984702B070BDC046A4
S1130E70E408002011020000FC08002005780000AE
S1130E800F0E00007D7700007F51010080510100AA
S1130E90C57800000C960000697F0000CC96000025
S1130EA048960000C09200003D02000008B596205C
S1130EB08000034B98470122024B1A7008BDC046BC
S1130EC0CD0D00000709002010B58CB0314B9847B8
S1130ED000230793089309930A930B932E4B0693CD
S1130EE006A82E4B9847011E03D02D482D4B98473A
S1130EF0FEE72D4B98472D482D492E4B9847FF234D
S1130F0000932D48062102222C4B2D4CA0472D4C3A
S1130F1022E000202C4A90472C4A1378002B1BD047
S1130F202B4B1B787F2B17D9022002210022294B3F
S1130F309847274B1870002803DA2748274B98470F
S1130F400AE002A902230B8001235B424B60244B7D
S1130F504B801022234B98472378002BD9D01C4B6D
S1130F6000201856204B9847204B9847204B984711
S1130F70002809D01F480B4CA0471F48A0471F4812
S1130F809F2189001E4AA04700201E4B98470CB0A1
S1130F9010BDC046AD170000AD09000005260000D5
S1130FA0F4960000697F0000A9400000A108000039
S1130FB021080000294100003C94000044940000F2
S1130FC0652800004C010020752600002807002039
S1130FD0000000203D4100001C97000089800000B3
S1130FE01A0A00000542000011450000ED4000000F
S1130FF0812800000C9600004897000048960000E5
S11310004C9A00005926000030B585B00B4C0C48B2
S1131010211C0C4B98470C4D62792379E18800918F
S1131020A17801916178029121780391281C0749E4
S1131030074CA047281C05B030BDC04660090020FD
S1131040E408002011020000040700207C9700003F
S1131050E181000010B58EB001AA00230021937134
S11310601381002050709172D17211739173517376
S1131070117453619361117713625362138553851D
S1131080938504239370012313708023DB009380E2
S1131090CD212923D154084C201C0849084B9847DA
S11310A022687F21D37B8B43FCD1118802230B431D
S11310B013800EB010BDC04670090020002C004201
S11310C0A504000010B50D4C201C0D4900220D4B49
S11310D0984720680C4B98470C4B1B5C1F21194008
S11310E001231A1C8A40111C094A1160617E0122E5
S11310F00A4362762268537310BDC046700900200B
S11311005D0700008903000069040000E892000004
S113111000E100E0F0B583B008AC257809AC247890
S113112064270A4E378000950194094CA047041E99
S113113009D00848084DA8470848211CA847084872
S11311400849094AA847201C03B0F0BD6A090020D9
S1131150317000000C960000697F00009C9700002D
S113116048960000DD020000F8920000F0B55F46EA
S113117056464D464446F0B4A9B0DD4B984702AA02
S11311808023DB05029300235360FF21118100219A
S11311909372D37201262420165425201654262037
S11311A013542720135493622C2013542D201354CA
S11311B053611382D3761176117751761323937684
S11311C0517780235B03D360CA4B1363CA4B5363C9
S11311D001235B429363D363E1235B021362C74C35
S11311E0C74B1C60C749C84B1960C849C84B196034
S11311F0201CC849C84B9847C84F3B6898680021D1
S1131200C74DA8473B6858680021A847201CC5491A
S11312100122C54B98472568281CC44B98471F23B7
S113122018408640C24B1E602268D369002BFCD153
S11312302A68022313432B60BE4F381CBE4CA047C0
S1131240BE48A047BE4E301CBE4DA847381CA04720
S1131250BD48A047301CA847381CA047BB48A0473E
S1131260301CA847BA4B9847BA4B9847381CA0473C
S1131270B948A047301CA847B84B9847B84B984783
S1131280B848B949B94B98473C20B94B9847B94B32
S11312909847B94B9847B94B9847B94B984702A818
S11312A0B84B9847B84C201C02A9B84B9847201C4F
S11312B0B74B984702A8B74B98470394B64B05938E
S11312C080230693B54802A9B54B9847011E03DA5B
S11312D0B448994B9847FEE7B048B349B34B984795
S11312E0011E03DAB248944B9847FEE70122B14B42
S11312F01A70002323932493259326932793AE4BAC
S1131300229322A8AD4B9847051E0AD0AC488A4CBC
S1131310A047AC48291CA047AB48AC49AC4AA047FD
S1131320FEE7AC4B9847AC48AC49AD4B9847814F6E
S1131330381C814CA047AB48A047814E301C814AE1
S11313409146904703200121A74B984702A8012307
S11313500380A64B9847A64B5968C02292000A43C3
S11313605A60A44B1A6904218A431A6100239846DF
S1131370A14B45465D70381CA047A048A047301CCF
S1131380C847FF2300939E48062102229D4B9E4D91
S1131390A847381CA0479D48A047301CC847C346EF
S11313A09B4E794D9B4C0020B047281CA0479A4B7C
S11313B01B78002B02D00022974B1A707D4B1B78B0
S11313C0002B02D0022B10D0EDE774489349944BC4
S11313D098475848584FB8479248B8475848594BC7
S11313E098470122734B1A70DDE78F4B1B78002B53
S11313F024D00027B9468C4B1F708C4B9847021C95
S113140012A88B498B4B98474A484B4B9A469847AE
S1131410894F8A4812A93A1CD0474948494B9847F2
S113142012A8874B9847031C4A4600920122019256
S11314305A48391C12AA834FB847B4E7824B1B7829
S1131440002B25D0002291467F4B1A70774B98478A
S1131450021C12A87D49774B98473648364A924673
S113146090477B4B9846754812A91A1CD0473448BC
S1131470344B984712A8724B9847031C4F46009769
S1131480012201924548414612AA6E4FB8478AE7A5
S1131490704B1B78002B00D1E6E0002290466D4B88
S11314A01A70304830496C4B984701229146D94410
S11314B05E4B9847031C12A868495A465D4FB847CB
S11314C01C481D4FB847664812A9B8471C481D4B15
S11314D0984712A85A4B9847031C47460097012285
S11314E001922E485F4912AA564FB847CB465AE795
S11314F0456000000200160002001700F4070020F7
S1131500D00A0020C90B0000CC0A00209D0B00006B
S1131510C80A002000140042DD52000078000020B8
S1131520C18000001907000089560000DD4D00004D
S113153000E100E024950000697F0000C0970000EE
S11315404497000089800000DC97000000980000A8
S1131550C90E0000AD17000040980000550D0000B2
S1131560A50D0000E408002060090020F901000036
S1131570CD0D0000FD0C0000310D000055100000E1
S1131580C51000000D690000080900201969000059
S1131590C5690000596B00006C070020D8000020CA
S11315A07D6B00006C980000E10B0000096C0000EA
S11315B0A098000068090020590A000005260000D0
S11315C00C960000D4980000489600001A0300000E
S11315D0F0920000A94000004D0A0000410A0000FA
S11315E029410000EC980000C5280000A52800004F
S11315F00040004100ED00E00004004010990000AC
S11316003C940000449400006528000028990000E0
S113161075260000516A0000EC070020D4920000F7
S11316206D6C0000409900006C0900200910000056
S113163060990000E18100008C9900006C99000021
S1131640498200001511000006090020AC99000031
S1131650B89900000709002011020000D899000081
S1131660E8990000009A0000134B1B78002B00D16E
S113167099E600229046104B1A70104B9847021CB2
S113168012A80F490F4B98470F48104A91469047AC
S11316900F4812A9C8470F480F4B984712A80F4B81
S11316A09847031C47460097012201920C480D49B4
S11316B012AA0D4FB84776E6010000200910000079
S11316C01C9A0000E181000024950000697F00005D
S11316D0E8990000449700008980000049820000D6
S11316E0D80000202C9A00001511000010B500202D
S11316F0084B9847084CFA218900A047074B18600B
S1131700FA218900A047064B18600522054B1A6090
S113171010BDC046215E00007D7700000800002057
S11317200400002010E000E030B5084B1C68084AB3
S113173000258021490206E0002C04D05460956005
S113174013680B42FCD00138F6D230BD08000020EB
S113175010E000E008B5034B1B68002B00D098474D
S113176008BDC0462808002038B5002806D0041C4F
S1131770034D0120A847013C002CFAD138BDC046D6
S113178029170000F8B5074C2027676140266661D9
S11317906420054DA847A7610A20A847A6616420D4
S11317A0A847F8BD804400416917000070B582B0B5
S11317B00023134A136001AC01256570A3702570E2
S11317C02620211C0F4EB0472520211CB04727207E
S11317D0211CB0470C4B1B681D4203D00A4B1B68ED
S11317E09A0701D4094B9847094B98470122094BA2
S11317F01A70BFF35F8F62B6002002B070BDC0469E
S1131800280800208D49000010E000E0ED160000DB
S1131810851700001400002010B584B00E4B18602A
S113182001AC201C0D4B98472423019300236360D3
S1131830012323720223E3720420211C084B9847DE
S1131840084804210022084B984704200021074B34
S1131850984704B010BDC046280800200149000084
S113186015490000551700009D470000CD470000B2
S113187008B5002804D004200021044B984703E055
S113188004200021024B984708BDC046CD47000004
S1131890ED47000030B591B02E4C05232370002392
S11318A06370A37001A901224A708B700A7005202D
S11318B0294B98472378D9090022002903D15A09D2
S11318C0D201264812181F210B400121081C984000
S11318D0906102AA117000235360936013745374CF
S11318E09174D17413752421535409930A9380235A
S11318F05B02D3601A4B936201235B42D362194BA0
S11319001363194B5363194B9361194819491A4BC3
S1131910984700281AD1164D2C68201C174B98475D
S11319201F23184001238340181C154B18602A6894
S1131930D369002BFCD12268022313432360114B8B
S113194098470120104B9847002000E0FA2040B24D
S113195011B030BD8C0900208D49000000440041C5
S1131960030004000300060003000700001BB70087
S11319709009002000080042694E0000DD4D00007F
S113198000E100E08517000069170000F0B55F462C
S113199056464D464446F0B487B003286CD10E68D1
S11319A04D680F8900226B46DA751733002E05D077
S11319B0002D5FD1012402951D1C04E000240120A8
S11319C002906E461736374837490122374B9847FD
S11319D0002F42D0334B9A46012104220020844632
S11319E0042399461E20804663426341039334785E
S11319F050460368187E0842FCD0187E0842FCD08A
S1131A009C62187E1042FCD0264884790195187E89
S1131A101042FCD05D8B6046154205D0588B4D4674
S1131A20284380B258834046012C04D19D6AED05B9
S1131A30ED0DAB4602E09D6AEDB2AB460028E6D15F
S1131A40019D58462870013FBFB2039BED18029CCC
S1131A5063426341F618002FC9D1124B1968022260
S1131A600B7E1342FCD00F480F4900220F4B9847BE
S1131A7000200EE0FA200CE00D480E4986225200A8
S1131A800D4B98470D480E4B98470D200D4B98472A
S1131A90FF2040B207B03CBC90469946A246AB46F4
S1131AA0F0BDC046900900208C090020455000007C
S1131AB0709A0000609A0000697F0000849A000018
S1131AC0898000009D7F000038B50B4D2C68201CD8
S1131AD00A4B98471F23184001238340181C802376
S1131AE0074AD0502A68D369002BFCD1236802220C
S1131AF093432360002038BD90090020DD4D000091
S1131B0000E100E0002A06D082180B78037001304F
S1131B1001319042F9D17047002A04D08218017033
S1131B2001309042FBD17047031C0278002A07D091
S1131B300020013080B201331A78002AF9D100E084
S1131B4000207047024B1A780132D2B21A707047E3
S1131B50300800207047C04600B583B00120094B0F
S1131B609847094801A9094B9847002806D1022142
S1131B70019B194301910448054B984740B203B0B7
S1131B8000BDC0467118000070100000D12F000085
S1131B90DD2F000008B5104B1B78002B13D10F4B21
S1131BA01B78032B04D00D4B1B780020042B0BD186
S1131BB00B4B984700280CD10A480B490B4B98470C
S1131BC0002801D005E00020034B1A780132D2B27C
S1131BD01A7040B208BDC0464808002038080020EA
S1131BE03D2900007410000078560000DD2F00002D
S1131BF0014B18707047C0463808002000B583B008
S1131C00174B1B78002B04D0154B1A78013AD2B22B
S1131C101A70134B1B780020002B1ED1114B1B781C
S1131C20032B03D00F4B1B78042B16D100230193F5
S1131C300D480E490E4B984700280ED1012001A9EA
S1131C400C4B9847002808D101998B0705D502232E
S1131C50994301910120064B984740B203B000BD5F
S1131C6048080020380800207410000021430000B8
S1131C70DD2F0000D12F000008B50A4B9847002340
S1131C80094A1370094A1370094A1370094A1370F8
S1131C90094A1360094A1360094A1360094A136028
S1131CA008BDC046951B00003808002048080020E5
S1131CB040080020300800202C0800203C080020A8
S1131CC04408002034080020F0B557464E464546E7
S1131CD0E0B486B082460D1C914698460EAB04CB08
S1131CE01E8810AB1F887F230B4005AC63702070E7
S1131CF008236380002A05D062889219BA1892B228
S1131D00628004E005AB5A88424492B25A80554B33
S1131D109847041E00D08BE0002303936A46D380C7
S1131D200293029B524613430293029B2D021D43CE
S1131D30029505AB5B88029A1B0413430293029934
S1131D4049484A4B9847041E00D083E0002302937D
S1131D50029A02231343029302994548434B98473E
S1131D60041E77D1002203926B46DA80DA8892B29D
S1131D70404B9A421DD83E4B9A463F4D504602A9CD
S1131D80A847002815D1029B9A0708D43B4803A909
S1131D90394B984700280CD00023039309E06C4684
S1131DA0E38801339BB2E380E28892B2314B9A42DA
S1131DB0E4D9039B002B4CD0039B049305A94B88C7
S1131DC09BB24B80049808222D4B9847041E41D1A6
S1131DD0049B083304934B46002B09D004984946CE
S1131DE04246274B9847041E34D1049B4344049332
S1131DF00E9A002A0ED0049B4246BF1AFF1804977D
S1131E0004980E99321C1E4B9847041E22D1049B41
S1131E10F6180496039B9B000293029A0223134331
S1131E20029302991748114B9847041E12D10CE0F3
S1131E30154816499622FF32154B98471548164BFC
S1131E4098470D20154B984704E0154B9847041C00
S1131E5000E0FD2460B206B01CBC90469946A24640
S1131E60F0BDC046951B00008C100000DD2F000063
S1131E7078100000E7030000D12F000000041500D3
S1131E805D3000006C100000709A0000B49A0000ED
S1131E90697F0000C89A0000898000009D7F0000CF
S1131EA0FD1B0000F0B55F4656464D46E0B486B0D3
S1131EB0A44A92469146A44E37E14A461378013B20
S1131EC0DBB21370A14FB047041E00D010E1A0484C
S1131ED003A9A04B9847041E00D0FCE0039BDB073A
S1131EE000D4ECE000209C4B9847994803A9994BF7
S1131EF09847041E00D00CE10123039999430391F0
S1131F009348964B9847041E00D002E1904803A9D9
S1131F10904B9847041E0FD08C489149E022520000
S1131F20904B98479048914B98470D20904B984779
S1131F300120894B9847ECE000228E4B1A70039ADB
S1131F4093041B0D9B4600D1ACE0002305938A4803
S1131F5005A9804B9847041E0FD07C488049E7228E
S1131F605200804B98478548804B98470D20804B02
S1131F7098470120784B9847C9E004AD0598291C7F
S1131F8004227F4B9847041C6B889BB26B8000280B
S1131F900FD06E487249EB225200724B9847794831
S1131FA0724B98470D20724B984701206A4B984713
S1131FB0ADE004AB5B889BB29B451DD004AB5B8852
S1131FC05A46D31A042B17DD60486549E022FF32D4
S1131FD0644CA04704A94A8892B20B78DBB24978D2
S1131FE0009169485946A0470D20614B984701204C
S1131FF0594B9847FA248AE004AB1B78012B0DD186
S1132000624B1B68002B3BD004AA5078C0B25188A5
S1132010083989B2059A0832984731E004AB1B7835
S1132020022B0DD15A4B1C68002C29D004AB5878D4
S1132030C0B25988083989B2059A0832A0471FE00E
S113204004AB1B78042B0DD1524B1B68002B17D00B
S113205004AA5078C0B25188083989B2059A083266
S113206098470DE039483E49FC2252003D4B9847C1
S113207049483E4B98470D203D4B9847FA2446E08B
S11320803C4B1B78002B3FD130483549434A354BF4
S113209098474348354B98470D20354B9847414B5B
S11320A0984731E029482E493F4A2E4B98473F48EC
S11320B02E4B98470D202E4B9847FE2429E02348A9
S11320C027493B4A274CA0473A480399A0470D208B
S11320D0274B984718E01D48214985229200214B3F
S11320E098473548214B98470D20214B984710E0DD
S11320F0381C1B49314A1B4B984731481B4B9847A6
S11321000D201B4B984704E02E4B9847041C002CD1
S11321100BD00E482C492D4A124DA84761B22C48C9
S1132120A8470D20124B9847CDE652461378002B52
S113213000D0C2E6002006B01CBC91469A46A346D5
S1132140F0BDC04630080020951B0000709A0000C6
S113215070100000D12F000071180000DD2F000066
S1132160C09A0000697F0000E49A000089800000A2
S11321709D7F00004008002084100000089B0000A0
S1132180E92F00002C9B0000449B00002C08002039
S11321903C08002044080020849B0000FF0100004C
S11321A09C9B0000591B000007020000C09B00001C
S11321B00E020000D49B0000F09B00001A020000F5
S11321C0149C0000FD1B0000189D00003902000053
S11321D0349C0000F0B54F464646C0B483B0051C9D
S11321E00F1C161C9846002803D0002901D0002A91
S11321F014D14346002B04D001222F4B1A702F4BCD
S113220098472F482F49304A304B98473048314B34
S113221098470D20304B9847F42446E02F486946F0
S11322202F4A9047041E40D1009B99462D4801A98E
S11322302B4B9847041E38D1281C391C321C2A4BBE
S11322409847041E31D14B469F043F0DBE420DD921
S11322501B481C49254A1D4CA0472548311C3A1CE3
S1132260A0470D201C4B9847F4241EE0019B9D427F
S113227003D3AD19FF18BD420CD9114811491D4AA9
S1132280124B98471C48134B98470D20124B984704
S1132290F4240AE0BD4202D04346002B05D00122BB
S11322A0054B1A70054B9847041C60B203B00CBC74
S11322B090469946F0BDC04640080020591B0000D6
S11322C0709A0000A89A00005E020000697F000076
S11322D0649C0000898000009D7F00007010000055
S11322E0D12F000084100000E92F000071020000CB
S11322F0849C000077020000C89C000038B5041ECE
S1132300022C09D0022802D8012809D014E003289D
S11323100ED0042808D00FE00E4B1960002017E0FF
S11323200D4B1960002013E00C4B196000200FE0E6
S11323300B4B196000200BE00A480B490B4A0C4D6B
S1132340A8470C48211CA8470D200B4B9847F420A4
S113235040B238BD3C0800202C080020440800206E
S113236034080020709A0000989A0000A602000029
S1132370697F00000C9D00009D7F000008B50023CC
S1132380094A1360094A1360094A1370094A137011
S1132390094A137009480A4B9847032009490A4B14
S11323A09847002008BDC0462C0800203C080020A7
S11323B0480800203808002030080020451B000091
S11323C019180000551B0000FD22000030B59FB015
S11323D0041C151C2C2811D1101C03A90422002351
S11323E07C4CA047002800D0F1E07B4B1B68002BFD
S11323F000D1ECE02C2003A99847E8E0062811D18D
S1132400101C03A930220123724CA047002800D0DD
S1132410DDE0714B1B68002B00D1D8E0062003A936
S11324209847D4E00E2800D1D1E0362811D1101CF1
S113243003A910220023674CA047002800D0C6E05F
S1132440654B1B68002B00D1C1E0362003A99847D7
S1132450BDE0332816D103A8002164225F4B9847BE
S1132460281C03A9642200235A4CA047002800D04A
S1132470ADE0594B1B68002B00D1A8E0332003A921
S11324809847A4E0382823D1101C03A90422002370
S1132490504CA047002800D099E05148514CA04727
S11324A00398FF23191C0140020A1A40050C2B4013
S11324B0000E00904C48A0470D204C4B9847464BCB
S11324C01B68002B00D182E03820002198477EE071
S11324D0112816D10022464B1A70281C03A9042285
S11324E000233C4CA047002871D103AB1A78414B20
S11324F01A70394B1B68002B69D0112003A9984727
S113250065E013280FD1101C03A92C220023314CA1
S1132510A04700285BD1304B1B68002B57D01320F9
S113252003A9984753E004280FD1101C1CA90422C6
S11325300023284CA047002849D1274B1B68002BB7
S113254045D004201CA9984741E015280FD1101C40
S11325501CA9042200231F4CA047002837D11E4B7E
S11325601B68002B33D015201CA998472FE009289D
S11325700FD1101C03A964220123164CA047002884
S113258025D1154B1B68002B21D0092003A998479E
S11325901DE02A280FD1101C03A9042201230D4C8D
S11325A0A047002813D10C4B1B68002B0FD02A2006
S11325B003A998470BE01048104988225200094D9E
S11325C0A8470F48211CA8470D20084B98471FB067
S11325D030BDC046D52100004C080020191B000066
S11325E0489D0000697F0000549D00009D7F00000D
S11325F05008002051080020709A00003C9D000003
S1132600749D000010B502680C4B1A6000220C4B3C
S11326101A7000200B4B9847041E0CD100200A4B63
S11326209847041E04D101200849094B984702E049
S11326300020084B984760B210BDC0464C080020EB
S113264050080020D13000007D230000CD2300007D
S1132650FD220000D532000008B50020034B984746
S11326600020034B9847002008BDC046791C000099
S1132670D532000008B5014B984708BDA51E0000DF
S1132680F0B557464E464546E0B4A0B081460F1C0F
S1132690141C1E1C28AB1B88984629AB1B789A4631
S11326A0012A19D0002E09D0301C604B984700280D
S11326B004D0301C5D4B984740280DD95C485D49D7
S11326C0D92252005C4B98475C485D4B98470D20DB
S11326D05C4B9847F420A1E07B1E1F2B0DD9544876
S11326E05449BA22FF32544B98475748544B9847A1
S11326F00D20544B9847F42090E041460D290FD902
S1132700FF290DD04A484B49E12252004A4B9847D1
S11327104E484B4B98470D204A4B9847F4207DE098
S113272005AD68465A3049463A1C494B9847EF195B
S113273040370023BB7144234246EA525246531E9B
S11327409A416723EA544123EC54032C38D133785B
S1132750013BDBB205AA1370032B0ED9344835496B
S1132760DA22FF32344CA04705AB19783948A04728
S11327700D20344B9847F42050E07278511E05AB7D
S113278059701023111C99430B290ED0284829494C
S1132790F0225200284CA04705AB59782E48A04798
S11327A00D20284B9847F42038E0B11C68461630B9
S11327B0274B9847737805AAD31800229A7023E010
S11327C0022C09D1301C194B9847421CD2B205A8DF
S11327D0311C1F4B984717E0042C05D105A8311C68
S11327E03E221B4B98470FE0012C0DD01048114995
S11327F0FA22FF32104B98471848114B98470D2086
S1132800104B9847F42009E00023009301930293AE
S11328100120282105AA6C23114CA04740B220B006
S11328201CBC90469946A246F0BDC046291B000038
S1132830709A0000289D0000697F0000209E00001F
S1132840898000009D7F0000309E0000449E0000AF
S1132850051B0000509E00006C9E0000889E000036
S1132860C91C000010B582B004AC24880094002474
S11328700194024CA04702B010BDC046812600005E
S113288010B584B0002300930193029301202B21FF
S11328900022024CA04704B010BDC046C91C000071
S11328A00020704710B584B0021C002300930193EC
S11328B0029301203D210423014CA04704B010BD24
S11328C0C91C000070B586B0041C05AA10705170B4
S11328D0002300930193029301202D210423094D29
S11328E0A847061C0848094DA8470948211CA847C1
S11328F00D20084B9847201C074B9847301C06B006
S113290070BDC046C91C0000489D0000697F0000DE
S1132910FC9E00009D7F0000F11B000010B584B0F8
S11329200023009301930293012005210022024C0D
S1132930A04704B010BDC046C91C0000F0B55F46F6
S113294056464D464446F0B483B0012001A9394BA4
S113295098478046002400280BD0374837494B223B
S1132960374B98473748384B98470D20374B984793
S11329704CE0374B9B46374B9A462E4B99460221E7
S1132980019B19430120D847534618686946C84734
S11329908046002806D1009B002B03D02E4D2F4FDC
S11329A02C4E29E00E222B4B1A600E206946214B37
S11329B0984780460028F1D01F4820496122204BC7
S11329C098472748204B98470D20204B98471DE0F7
S11329D00120B84730686946164B9847009B5B074F
S11329E00AD4154815497422154B98471D48164BAF
S11329F098470D20154B9847009B5B0706D401347C
S1132A00201C0321A8470029E2D002E0434658B223
S1132A1009E00221019B194301200D4B9847009BBB
S1132A205B07ACD5F2E703B03CBC90469946A2469E
S1132A30AB46F0BDD12F0000709A00004CA00000FE
S1132A40697F0000389F0000898000009D7F00009E
S1132A50DD2F000010000020057800006917000039
S1132A60589F0000789F000000B583B000230193B5
S1132A70012001A9064B984701998B0705D502232C
S1132A80994301910120034B984703B000BDC04610
S1132A90D12F0000DD2F000038B50620DB210C4CBF
S1132AA0A04707200621A0470A200A4DA847A420D2
S1132AB040010021A04708480021A0470A20A84758
S1132AC006200021A04707200021A04738BDC046AA
S1132AD0DD2F0000691700008414000000B583B0E6
S1132AE0164801A9164B984700281ED18021490099
S1132AF0019B194301911148124B9847002816D1A4
S1132B00D020400101A90E4B9847002811D1802103
S1132B104902019B19430191D0204001094B984778
S1132B200023002806D0FA2304E0FA2302E0FA2363
S1132B3000E0FA2358B203B000BDC04608140000F8
S1132B40D12F0000DD2F000010B582B025480021F0
S1132B50254CA04725480021A04725480021A0472F
S1132B60244801A9244B984700280AD02348244923
S1132B70CA22244B98472448244B98470D20244BC1
S1132B8098470121019A114301911A48164CA04714
S1132B9020480121A047041CA020400101A9164B94
S1132BA098472418E4B2019B5A0501D4E4B208E022
S1132BB0194919400191A02040010B4B9847241852
S1132BC0E4B28021C900019B19430191A020400176
S1132BD0054B98472418E4B20120104B984760B283
S1132BE002B010BD0C000C00DD2F00008C100000A2
S1132BF0AC07020018110000D12F0000709A0000E9
S1132C002C9F0000697F00009C9F000089800000C9
S1132C109D7F000014001500FFFBFFFF69170000F3
S1132C2000B583B0214B1B68002B3AD180204001B2
S1132C301E491F4B9847002803D000221B4B1A60E3
S1132C402DE01C4801A91A4B9847002803D0002204
S1132C50164B1A6023E0154B1B68174A934206D1A2
S1132C600199012912D0154A104B1A600EE0144A3A
S1132C7093420BD1019B032B08D0042B03D1114A9F
S1132C800A4B1A6002E0104A084B1A60074B0F4ABD
S1132C9019680A40A021C9020A431A6001E0002011
S1132CA001E0024B186803B000BDC0465408002080
S1132CB0D12F0000F4130000A0021000A1021000A4
S1132CC0B0021000B1021000B2021000FFFFF0FFCA
S1132CD008B5064B98470005000D054B984203D9EB
S1132CE004480549054B984708BDC046212C0000FF
S1132CF0AF020000481E0000CE6984B7DD2F00003B
S1132D00F8B5084C201C084B98470126071CB7430C
S1132D10201C391C054DA847391C3143201CA847E9
S1132D20F8BDC04628140000C52F0000DD2F0000A8
S1132D3010B5064C201C064B98470423011C19436C
S1132D40201C044B9847044B984710BD1C140000EA
S1132D50C52F0000DD2F0000012D000010B5044B2D
S1132D609847041E01D1034B9847201C10BDC04650
S1132D703D290000992A000010B5074B9847A02070
S1132D8040010021054B9847041C3220044B98470E
S1132D90044B9847201C10BD312D0000DD2F00008E
S1132DA069170000D12C0000F0B5474680B4804676
S1132DB01B4D1C4C1C4E281CA047002802DB012084
S1132DC0B047F8E71948174B9847C30719D508E0E7
S1132DD00120B8471648B047013C002C0ED0A84249
S1132DE0F6D14346022B03D112481349134B98479B
S1132DF00F481349114B9847002000E0FB2040B2D4
S1132E000BE00120084B98470948064B9847FA24E1
S1132E10E4000C4D044F034EE1E704BC9046F0BDC2
S1132E2014100000C52F000069170000BC07020041
S1132E300C000C00AC0702007DD51C3CDD2F00000B
S1132E40612F52EF9ED0AD1070B582B0144B019338
S1132E50144B009302280CD1134B0193134B009392
S1132E6007E00220B0470198A847013C002C04D198
S1132E7011E00F4C00200F4E0F4D009B8342F0D108
S1132E80009A0020074B9A4206D1054800210B4BBB
S1132E909847002000E0FB2040B202B070BDC0465D
S1132EA08C10000036265302AC070200C3C15DD764
S1132EB0D107000069170000C52F0000DD2F0000B6
S1132EC0F0B5474680B482B000230193A0204001AE
S1132ED001A9294B984700280AD028482849294A9B
S1132EE0294B984729482A4B98470D20294B984746
S1132EF02949019A11400191A0204001274B98478C
S1132F00061C0A2400280CD01C481D49244A1E4BC8
S1132F10984724481E4B98470D201E4B9847301C59
S1132F2025E0A0256D01144F1C4B9846281C01A9CF
S1132F30B847061E0DD0114811498B229200124B3E
S1132F4098471948124B98470D20124B9847301C4C
S1132F500DE0019B5A0509D50F4919400191281C20
S1132F60C047013CE4B2002CE0D100E0002040B2B4
S1132F7002B004BC9046F0BDD12F0000709A00004E
S1132F80209F00001F020000697F0000C49F000012
S1132F90898000009D7F0000FFFBFFFFDD2F000004
S1132FA025020000DC9F0000F49F000008B5014BDF
S1132FB0984708BD9518000008B5014B984708BD0F
S1132FC0C91A000008B5014B984708BDED38000048
S1132FD008B5014B984708BD0139000008B5014BFD
S1132FE0984708BD19390000F8B55F4656464D4666
S1132FF04446F0B48B46161C164B1B88083B9BB208
S113300098461D1C9A4208D8041C00275B46D9190F
S1133010B2B2201C104B984714E0D61A041C0027A7
S11330200B1A9A460C4B994653461919201C4246D2
S1133030C847002806D17F196419731BAE42E5D92D
S11330401E1CF1E740B23CBC90469946A246AB46F2
S1133050F8BDC0460C000020553A0000F8B55F46A4
S113306056464D464446F0B48B46161C164B1B88F8
S1133070083B9BB298461D1C9A4208D8041C0027A2
S11330805B46D919B2B2201C104B984714E0D61AEB
S1133090041C00270B1A9A460C4B994653461919DF
S11330A0201C4246C847002806D17F196419731BA7
S11330B0AE42E5D91E1CF1E740B23CBC90469946AD
S11330C0A246AB46F8BDC0460C000020313B0000D0
S11330D0F0B55F4656464D464446F0B48DB00028E0
S11330E005D00078023843425841451C00E00125D0
S11330F000205A4B9847041E0BD059485949A42222
S1133100594B984759485A4B98470D20594B984763
S11331109CE0594B9847041C0A20584B9847002CB4
S11331200BD04F484F49AF224F4B98475448504B10
S113313098470D204F4B984786E052484A4CA04789
S1133140514B9847011C5148A0470D20494B9847C3
S11331504F4B9847041E77D14E4B98474E4B984798
S11331604E4B9847041E6FD1281C4D4B9847041EA4
S11331706AD1281C4B4B9847041E65D1022D65D09B
S1133180494B9847041E0BD035483649DC22364B50
S113319098474648364B98470D20364B984753E09E
S11331A0A52040010021424B984700218946039104
S11331B0404803A9404B9847039F3B0C9A4699B259
S11331C08B46BBB21A0A00921B090F2633400193A7
S11331D02D4B98472B4B9846181C234DA8473B1C56
S11331E0334036480099019AA8470D20214FB8472B
S11331F04046A8475A46110A120932405346334002
S11332002F48A8470D20B8474046A8472D4812210B
S113321003224B46A8470D20B84704AB0099197008
S11332206A46019951741A88274B9A420ED00C4869
S11332300C49EC220C4B984724480D4B98470D2021
S11332400C4B9847F32401E0214B984760B20DB032
S11332503CBC90469946A246AB46F0BDAD2F00005B
S1133260709A000074A10000697F00005CA0000057
S1133270898000009D7F00005D2D0000691700001B
S113328088A00000489D0000212C000078A00000C8
S1133290792D000031390000692A0000492B000013
S11332A0A92D0000492E0000DD2A0000A8A000007E
S11332B0DD2F0000AC070200D12F0000C8A00000E1
S11332C0E4A0000000A10000120300001CA1000003
S11332D0B92F000010B5134B9847041E0CD01248A8
S11332E0124981225200124B98471248124B9847B8
S11332F00D20124B984712E0114B9847041E0CD036
S113330009480A4984225200094B98470D480A4B40
S113331098470D20094B984701E00B4B984760B242
S113332010BDC046C12E0000709A000080A10000AC
S1133330697F000038A10000898000009D7F0000A3
S1133340B92F000058A10000DD38000000B585B099
S113335001AB00220192029019810320191C024B37
S1133360984705B000BDC0468D190000F0B583B084
S1133370061ECF2E04D0031C3B33DBB2012B07D82F
S1133380684607300121254B98470023002841D186
S11333900B246D460735214F281C0121B84700280E
S11333A00DD01F481F493C22FF321F4B98471F482E
S11333B01F4B98470D201F4B984700232AE02B787A
S11333C0B34204D10B246D460735144E04E0013C8E
S11333D0E4B2002CE0D1F5E7281C0121B047002815
S11333E00DD00F480F494A22FF320F4B98470F4820
S11333F00F4B98470D200F4B984700230AE02B787A
S1133400002B04D0013CE4B2002CE5D101E00123FF
S113341000E0012358B203B0F0BDC0464D330000B4
S1133420709A0000C4A60000697F000008A2000092
S1133430898000009D7F0000F0B55F4656464D46EA
S11334404446F0B483B082460F1C93460022904653
S1133450404E80239B019F4202D8BBB2994602E0B2
S113346080239B0199460A246D460335281C0121BB
S1133470B04700280DD0384838496C22FF32384B09
S113348098473848384B98470D20384B98470020C8
S113349057E02B781B090F2B05D0013CA4B223B2B3
S11334A00133E3D102E024B2002C0EDC2A482B497C
S11334B07822FF322A4CA0476B46D9782C48A04783
S11334C00D202A4B984700203BE04A4694B24346DD
S11334D018B25044211C1F4A904700280DD01E48A2
S11334E01E49C02252001E4B984722481E4B984743
S11334F00D201E4B9847002023E05B46002B17D17C
S11335001D4A1378002B13D101A80221114B9847AF
S113351000280DD0104811498C22FF32104B9847D7
S11335201648114B98470D20104B9847002008E08F
S11335304246A3189BB298463F1BBFB2002F88D1C6
S1133540012040B203B03CBC90469946A246AB462B
S1133550F0BDC0464D330000709A0000DCA70000A7
S1133560697F00003CA20000898000009D7F00006C
S113357070A20000A0A2000058080020D0A2000001
S113358000B585B001AB019000220292198103209D
S1133590191C024B984705B000BDC0468D190000A8
S11335A070B584B008AC257801AC20703F30C4B24B
S11335B00E2C00D99CE0A000524C2058874601AB49
S11335C00A0C5A700A0A9A70D970052193E00B0A02
S11335D0DBB2002D02D101AA537004E080225242D2
S11335E0134301AA537001AB99700022DA700521CC
S11335F081E001AB00225A709A70DA7005217AE0FA
S113360001AB00225A709A70DA70052173E001ABA5
S1133610FF225A709A70DA7005216CE001AA080C36
S11336205070080A9070D170190A117153710721F2
S113363061E001AA080C5070080A9070D170190C4E
S11336401171190A51719371082154E00B0ADBB20C
S1133650002D02D101A8437004E0802040420343BE
S113366001A8437001AB9970110ED970110C197136
S1133670110A59719A7108213DE001AB080C587088
S1133680080A9870D970110E1971110C5971110A28
S11336909971DA7109212EE04E1E002E0DD001AB76
S11336A003226A4455187F22174C1878520042406E
S11336B0A25C0133AB42F8D100E07F22520001AB9F
S11336C09A5501E00139C9B201A8104B984701236A
S11336D000280ED00E480F498E2252000E4B9847F8
S11336E00E480F4B98470D200E4B9847002300E0DF
S11336F0002358B204E00C4B1B78002BCCD0E1E73C
S113370004B070BD90A10000DCA60000813500006B
S1133710709A0000ACA60000697F000004A30000BA
S1133720898000009D7F00005808002070B582B099
S1133730041C0A1C302802D80123C32501E00023FD
S1133740C9250093281C211C0423164EB0470128C8
S11337500CD015481549164A164DA8471648211C81
S1133760A8470D20154B9847002318E0281C144B3C
S113377098470123012812D00B480C49114A0D4DDA
S1133780A8471148211CA8470D200C4B984700233B
S11337900093CF2000210022024CA047002358B2FE
S11337A002B070BDA1350000709A0000F8A10000BD
S11337B0FF010000697F000030A300009D7F00002E
S11337C06D330000050200005CA30000F0B547461D
S11337D080B484B0041C8846FF2802D80126C4257E
S11337E001E00026CA250096281C211C002204237F
S11337F02C4FB84701280CD02B482C492C4A2D4D6E
S1133800A8472D48211CA8470D202C4B9847002081
S113381042E0281C2A4B9847012813D02248234908
S1133820284A244DA8472848211CA8470D20234B8B
S1133830984700230093CF2000210022194CA04771
S1133840002029E003A80421321C204B98470128BA
S113385013D0154815491E4A164B98471D481E4B50
S113386098470D20154B984700230093CF20002143
S113387000220C4CA04700200EE003AB597809024B
S11338809A78120411431A781143DA7812060B1C41
S1133890134342461360012040B204B004BC904676
S11338A0F0BDC046A1350000709A0000CCA1000014
S11338B059020000697F000094A300009D7F00006E
S11338C06D3300005F020000C0A300003934000023
S11338D067020000F4A30000898000000022024B6C
S11338E01A7000207047C0465808002000B583B005
S11338F001A9024B9847019803B000BDCD370000E1
S113390008B5044B9847012801D1002000E0FA20B3
S113391040B208BDCD37000008B5044B98470128D4
S113392001D1002000E0FA2040B208BD2D3700008C
S113393010B582B000230093354A137035486946A8
S1133940354B9847002820D10122314B1A70334857
S11339503349344A344B98473448354B98470D2003
S1133960344B98472B4869462B4B9847041E0CD17F
S11339702A482B49B72292002B4B98472E482C4BB0
S113398098470D202B4B98473FE0214B1B78002B89
S113399019D17C23009999435023194300911D4860
S11339A0264B9847041E0BD11C481D49244A1E4B24
S11339B0984724481E4B98470D201E4B984724E0F7
S11339C00122134B1A708020400101A9124B984721
S11339D000280DD111481249BC229200124B98477D
S11339E01948134B98470D20124B9847FA240CE0C2
S11339F0084C201C154B98477023011C99435023F5
S1133A001943201C124B9847002460B202B010BD29
S1133A105808002024E80000CD370000709A000008
S1133A20DCA10000D9020000697F000014A400009A
S1133A30898000009D7F000064A400002D370000F1
S1133A40E602000090A40000C4A40000ED380000C9
S1133A5019390000F0B583B0041C0F1C151C002399
S1133A600093C820211C00222B1C254EB04701289E
S1133A700CD024482449A2229200244DA84724486B
S1133A80211CA8470D20234B984735E0C820224B22
S1133A909847012812D01B481B49204A1B4DA847B0
S1133AA01F48211CA8470D201A4B98470023009358
S1133AB0CF2000210022124CA0471DE0381C291CF5
S1133AC00022184B98470023012813D00D480E49B3
S1133AD0A62292000D4B98471348144B98470D208B
S1133AE00C4B984700230093CF2000210022044C64
S1133AF0A04701E058B201E0FA23FBE703B0F0BDB0
S1133B00A1350000709A0000D0A60000697F000073
S1133B10E8A400009D7F00006D3300008E020000C9
S1133B2018A500003934000050A500008980000069
S1133B30F0B557464E464546E0B484B0051C884669
S1133B40141C00230093C720291C0022231C554E5B
S1133B50B04701280BD054485449554A554CA04706
S1133B605548291CA0470D20544B98478FE0C72087
S1133B70534B9847012812D04B484C49514A4D4C5D
S1133B80A0475148291CA0470D204C4B98470023BF
S1133B900093CF2000210022424CA04777E000226E
S1133BA003AB1A8000258027BF01BA46474B9946CC
S1133BB0261CBC4200D95646B6B2002D04D10123BE
S1133BC0BC4206D8032304E0A7429B415B42032284
S1133BD0D31A68460B30102252421343037001215A
S1133BE0C84700280CD030483949DE225200314BF6
S1133BF098473848384B98470D20304B984733E066
S1133C0028B24044311C314B984700280CD0264838
S1133C102F49C622FF32274B984730482E4B9847EE
S1133C200D20264B98471FE02D4B1B78002B12D1FB
S1133C3003A80221254B984700280CD01A48244990
S1133C40D022FF321B4B98472648234B98470D2020
S1133C501A4B984708E07519ADB2A41BA4B2002C06
S1133C60A6D116E040B216E00F4810491E4A114B87
S1133C7098471E48184B98470D20104B984700232F
S1133C800093CF2000210022064CA04701E0FA2037
S1133C90E8E70020E6E704B01CBC90469946A2463B
S1133CA0F0BDC046A1350000709A0000B4A6000023
S1133CB023020000697F000078A500009D7F0000BA
S1133CC06D33000029020000A8A500008135000022
S1133CD0E8A10000E0A500008980000018A600000B
S1133CE0580800204CA600003A02000084A60000F8
S1133CF0F0B55F4656464D464446F0B483B00E1CBC
S1133D00924698460CAB1D88002D59D042001218DB
S1133D1092002F4BD358002B52D0131C2C4AD3188B
S1133D209B889BB2002B4BD043001B189B00D318DD
S1133D309B79012B44D1F5804300191889008946E9
S1133D409346CB444346804601935A469388EB1AE4
S1133D501BB2002B06DD1E4F3B1C4B449C88A4B2B7
S1133D60002301E02C1C01234846194FC159019836
S1133D70221C184FB847002819D1154B4846C35880
S1133D803360B480F3881B1BF380134B1B68002B38
S1133D9005D0114B1B6840465146321C98472D1BD9
S1133DA0ADB2019A12190192002DCED108E00B4850
S1133DB00B4CA0470B48291CA0470D200A4B9847E1
S1133DC003B03CBC90469946A246AB46F0BDC04603
S1133DD0D0090020D5210000540A0020489D00008D
S1133DE0697F0000ECA700009D7F0000F0B55F46EE
S1133DF056464D464446F0B49BB00D1C141C412855
S1133E001AD1101C09A904220023A14CA0470028A0
S1133E1000D036E109AB5A7805AB1A709D4B1B688C
S1133E20002B00D12DE19B4B1B6809AA00201056E2
S1133E30012105AA984724E142281AD1101C09A996
S1133E4004220023924CA047002800D019E109ABBA
S1133E505A7805AB1A708F4B1B68002B00D110E108
S1133E608C4B1B6809AA00201056022105AA98470A
S1133E7007E1432844D1101C05A90C220023844CDB
S1133E80A047002800D0FCE005AB5A7A53B2002BBF
S1133E901FDB5900C91889007F4841180020C871E8
S1133EA0012088717D490888013080B20880098822
S1133EB089B2002904D179490888013080B2088088
S1133EC07649098889B25800C3189B007248C31800
S1133ED0598109AB1A7002229A8005AA5188D980A7
S1133EE0069A0B926B4B1B68002B00D1C9E0694BFF
S1133EF01B6805AA08201056042109AA9847C0E0A7
S1133F00442801D04B281AD1201C09A904220023DB
S1133F105F4CA047002800D0B3E009AA107805AB95
S1133F20187052785A705B4B1B68002B00D1A8E0C4
S1133F30584B1B6840B2052105AA9847A1E04A28BE
S1133F4013D1101C09A944220023514CA047002876
S1133F5000D096E01999524B1B68002B00D190E0D9
S1133F604F4B1B6809A898478BE0462806D0482881
S1133F7007D04D2857D10620804604E00621884604
S1133F8001E009229046201C05A910220023404E7E
S1133F90B047002875D105AE337B0393F08984467E
S1133FA05FB23D4B7A00D119890058180021017283
S1133FB03089814671898A4609A970884881069E9C
S1133FC00C96D21992009B185A8992B2624521D15B
S1133FD049460BB2002B0CDDAB420ADA039A50B20D
S1133FE0514663184A46009209A942462D4CA047FF
S1133FF047E009AB4846988000230993254B1B688A
S1134000002B3ED0234B1B68039948B2414609AAB2
S1134010984736E0102D34D90020002100220123D6
S11340201B4CA0472DE0452805D0472805D007257F
S11340304C2803D025E0072500E00825201C09A909
S113404008220023124CA04700281AD109AB187883
S11340509A88598805AB198043B25900CB189B0044
S11340600D49CB1808335B889BB2934209D1094BA5
S11340701B68002B05D0074B1B6840B2291C05AAFE
S113408098471BB03CBC90469946A246AB46F0BD4F
S1134090D5210000540A0020D00900205A0800202D
S11340A0580A0020F13C000008B50A4B1B78002B8D
S11340B00ED1094800218422084B98470220084960
S11340C0084B98470122034B1A700022064B1A80B2
S11340D008BDC04659080020D0090020191B000063
S11340E0ED3D0000FD2200005A08002008B50848F4
S11340F000218422074B984702200021064B984751
S11341000023064A1360064A1360064A137008BD6A
S1134110D0090020191B0000FD220000540A0020D1
S1134120580A002059080020024B1860024B1960FD
S11341307047C046540A0020580A002030B587B0A2
S1134140FF24022847D1012947D00B240720022944
S113415045D0FF243FE0011C43001B189B00EB18D3
S11341609B79002B32D14B005B189B00224CE31847
S113417001249C71214B1C880134A4B21C801B882F
S11341809BB2002B04D11D4B1C880134A4B21C80AB
S11341901A4B1C88A4B24B005B189B00164DEB18FD
S11341A05C81C4B2D30716D505AA14704B00591804
S11341B089006B180121D9710023009301930293A4
S11341C00220502104230E4DA84704E00130C0B260
S11341D08442C0D8FF2460B20BE007240020011CF5
S11341E043001B189B00044DEB189B79002BBAD09D
S11341F0ECE707B030BDC046D00900205A080020C3
S1134200C91C000030B589B0041C002926D0002840
S113421026DB43001B189B001548C3189B79012B10
S113422020D1002A20D005AD2C72281C0822114B65
S1134230984763001C19A4000D4B1C1963896B81FA
S11342400023009301930293022041212A1C0C2392
S1134250094CA047002808D0F72006E0FA2004E023
S1134260FA2002E0FA2000E0FA2040B209B030BDA2
S1134270D0090020051B0000C91C000070B588B0DF
S1134280041E36DB002936D043001B189B001E4851
S1134290C3189B79012B30D1002A30D063001B193D
S11342A09B00C318DB794426DA0707D563001B1982
S11342B09B00C318DA7905AB5A724B2605AD2C72F4
S11342C0281C0822114B984763001C19A4000E4BAC
S11342D01C1963896B8100230093019302930220CC
S11342E0311C2A1C0C230A4CA047002808D0F720B4
S11342F006E0FA2004E0FA2002E0FA2000E0FA20C6
S113430040B208B070BDC046D0090020051B0000B3
S1134310C91C000030B589B00C1C002836DB00290C
S113432036D0AF23DB009A4234D843001B189B00DD
S11343301B49CB189B79012B2ED104AB18705A80E2
S1134340410009188900164D691808314988998176
S11343504423062800DC502341000818800010493B
S11343600818C179C80701D4452001E04C20552321
S113437080210143009401920293022004AA102395
S1134380084CA047002808D0074806E0074804E086
S1134390064802E0054800E0044800B209B030BD18
S11343A0D0090020C91C0000F2FF0000FAFF000041
S11343B0F0B5474680B488B0041C8846171C0E9E8E
S11343C000283BDB00293BD0AF23DB009A4239D8DD
S11343D043001B189B00204AD3189B79012B33D12F
S11343E043001B189B00D3189B79002B2ED004ADDF
S11343F0281C00211022194B98472C706F806300F1
S11344001C19A400144B1C196389AB81002E06D01F
S113441004AB32889A807288DA80766806964246BF
S113442000920197442302930220C72104AA102377
S11344300B4CA04700280AD00A4808E00A4806E0C6
S1134440094804E0084802E0074800E0064800B2D2
S113445008B004BC9046F0BDD0090020191B000030
S1134460C91C0000F2FF0000FAFF000070B586B01E
S113447000283BDB00293BD0002A3BD04400241811
S1134480A4001F4D2C19A479012C35D12C1C4500F6
S11344902E18B6003151A1198A80097A0022002908
S11344A02BD1A21901211172D2794D21D40700D444
S11344B04621002B03D101235B42049300E00493C3
S11344C004AA10714300181880000D4B1818438972
S11344D0D380002300930193029302200823094C04
S11344E0A0470022002808D0074A06E0074A04E053
S11344F0064A02E0054A00E0044A10B206B070BD64
S1134500D0090020C91C0000F2FF0000FAFF0000DF
S113451030B587B0041E2EDB43001B189B00194ADC
S1134520D3189B79012B28D105AA107043001B18BE
S11345309B001449CB185889508000229A715A81E3
S1134540DB794E21DA0700D449210023009301933B
S11345500293022005AA04230B4DA847051E00D090
S1134560F725600000198000064BC01800210C22BA
S1134570064B984702E0FA2500E0FA2568B207B036
S113458030BDC046D0090020C91C0000191B000022
S113459070B586B0002840DB002940D0002A40D006
S11345A044002418A400224D2C19A479012C3AD1DA
S11345B044002418A4002C19A5790024002D33D01C
S11345C01B4C45002E18B6003151A1198A800A7A75
S11345D00024002A28D116498A1901211172002BBE
S11345E003D101235B42049300E0049304AA1071F5
S11345F04300181880000E4B18184389D3800023F9
S1134600009301930293022048210823094CA047F8
S11346100024002808D0084C06E0084C04E0074CAD
S113462002E0064C00E0054C20B206B070BDC04666
S1134630D0090020C91C0000F2FF0000FAFF0000AE
S1134640F0B583B0002301930024042600250378E9
S11346500130311C2A1C2E2B1FD0002B20D0303BC4
S1134660DBB2092B15D89700D2195200D218D2B256
S113467003780139C9B201300029ECD10BE00134CF
S1134680042CE4D101A869460422084B98470198F8
S113469009E0002007E0002005E06B46E254EEE765
S11346A06B46E254EBE703B0F0BDC046051B0000C7
S11346B010B584B0041C0D4B9847C3B2402B0ED8E0
S11346C0FF231840431C0021009101910291022014
S11346D0CA21221C064CA047002803D001E0FA207E
S11346E000E0F72040B204B010BDC046291B000012
S11346F0C91C00000C4B1B68002B10D1EFF3108376
S1134700002B09D172B6BFF35F8F0022074B1A70DA
S11347100122074B1A7002E00022054B1A70024B6B
S11347201A6801321A6070475C08002014000020E7
S113473060080020084B1A68013A1A601B68002BB5
S113474009D1064B1B78002B05D00122044B1A70AB
S1134750BFF35F8F62B670475C08002060080020DA
S113476014000020F0B583B001AC0125657000276A
S1134770A77025703E20211C064EB0478022D2052A
S1134780054B9A61277065700F20211CB04703B058
S1134790F0BDC0468D490000804400411723002A23
S11347A00FD18B00084A9A58002A04D1191C064BD1
S11347B0C850002305E01D23121A501E82415242A4
S11347C01340181C7047C046600A002017230029B4
S11347D007D100231F2800D8034B01228240DA604E
S11347E00023181C7047C0460018004017230029F6
S11347F007D100231F2800D8034B012282409A606E
S11348000023181C7047C0460018004070B50022F1
S1134810164B1A7000231F26154D144C1F2B10D94C
S113482019E0144900E000210A619B005B59002B48
S113483000D0984723780133DBB223700F2B14D8B0
S1134840ECE7321C1A40012191400A1C094909690C
S11348501142E6D1EEE7321C1A40012191400A1CB4
S1134860002109691142DED1E4E770BD5C0A002031
S1134870600A002000180040054B197802220A4300
S11348801A701A1C53785BB2002BFBDB7047C046CE
S11348900018004000B583B0124B996940220A43C6
S11348A09A6101A900230B7005200F4B984705203E
S11348B00E4B98470E4B197801220A431A701A1CA2
S11348C053785BB2002BFBDB0A4B191C40310022EE
S11348D004C38B42FCD11022074B1A60074B984744
S11348E003B000BD00040040395F0000AD5E00006D
S11348F000180040600A002000E100E07948000050
S11349000023036043600122027242728372022315
S1134910C3727047F0B583B0051C0C1C01A90023B9
S11349204B70CB7063680B70237A8B702078154BB7
S1134930984700231F2D00D8134B072129408900D5
S1134940E07AA27A002A01D008221043EA089200F1
S11349509A18966988400F278F40BE43311C014343
S11349609161627A002A06D05A690121A9400D1C7E
S113497015435D6104E05A690121A9408A435A61E3
S113498003B0F0BD156000000018004000B583B00E
S113499001AB80221A700A785A704A789A708A7821
S11349A0DA70191C014B984703B000BD1560000074
S11349B010B5031C4908402099420CD30024C91A9D
S11349C0601C80B28B4201D8041CF8E74020FF2C05
S11349D001D81480002010BDF0B55F4656464D4600
S11349E04446F0B487B0061C0D1C049210AA10783B
S11349F0321C424340248A4200D9B3E0002B4BD1FD
S1134A000021321C5E4CA04783462E1C0027002048
S1134A100021002200233F24A4460125A846029039
S1134A2003916146203903D440468840814605E01D
S1134A30202165464C1B4046E04081464146644681
S1134A40A1408A46101C191C80185941021C0B1CD9
S1134A505D464C46254202D0424602430B1C9F420F
S1134A600CD801D1964209D8921BBB415046029DF5
S1134A7028434946039C2143029003916546013D26
S1134A80AC46CED2029803993C4B3B4A121A8B4156
S1134A90120C1B041A4362E00022012B5FD14F0F5A
S1134AA0B946CD00AB460021321C0023344CA0474C
S1134AB0061C0F1C00230125029603979A465046B4
S1134AC0C0B2059000218846002200233F24271C01
S1134AD0203F03D42E1CBE40019604E02020071B77
S1134AE0291CF94001912E1CA6400096101C191C8B
S1134AF080185941021C0B1C5F463740BC46019E7E
S1134B004F463E4067463E4302D02A1C02430B1CDC
S1134B10039898420BD802D10299914207D8029E79
S1134B20039F921BBB41474600980743B846013C8C
S1134B30CDD2414652468B1ADB08124CA34208D907
S1134B40059A0132D2B205920126B2445746082F83
S1134B50B5D140240598082804D042031A43049C84
S1134B6022800024201C07B03CBC90469946A246F3
S1134B70AB46F0BDC046C046000000000100000086
S1134B80DD780000FF1F000010B582B0041C0F4B3D
S1134B901B78002B01D000290DD001A90C70132023
S1134BA00B4B984713200B4B9847084B5C70012222
S1134BB01A70002007E0054B5A781D20141B621E52
S1134BC094416442204002B010BDC04664080020F5
S1134BD0395F0000AD5E0000444B984233D006D8E4
S1134BE0434B98420DD0434B98421BD06FE0424B4D
S1134BF098424AD0414B984258D0414B984266D192
S1134C0032E0012965D0002904D0022906D0032905
S1134C1006D001E03B4867E0002065E03A4863E0E5
S1134C203A4861E0012956D0002904D0022906D06F
S1134C30032906D001E0032056E0002054E0344864
S1134C4052E0344850E0012947D0002904D0022919
S1134C5006D0032906D001E02F4845E0002043E0B8
S1134C602E4841E02E483FE0012938D0002904D0E5
S1134C70022906D0032906D001E02A4834E00020A6
S1134C8032E0294830E029482EE0012929D00029C2
S1134C9004D0022906D0032906D001E0244823E0E9
S1134CA0002021E023481FE023481DE001291AD0F9
S1134CB0002904D0022906D0032906D001E01F48A8
S1134CC012E0002010E01E480EE01E480CE0002018
S1134CD00AE01D4808E01D4806E01D4804E01D48A0
S1134CE002E01D4800E01D487047C0460010004225
S1134CF000080042000C004200180042001C004260
S1134D00001400420300040003000600030007002F
S1134D1003001E0003001F000300080003000A0034
S1134D2003000B0003001000030012000300130033
S1134D3003000C0003000E0003000F000300160024
S1134D40030018000300190003000500030001001C
S1134D50030009000300110003000D000300170005
S1134D6070B586B00C4A6B4670CA70C332CA32C37F
S1134D70009E864206D001239A0069465258824218
S1134D8003D100E00023D8B203E00133062BF3D1B2
S1134D90002006B070BDC04648A800007047C04659
S1134DA0F0B50A4B1B78002B0CD1094F094E0A4D64
S1134DB00024DE515A1914600433182BF9D101224E
S1134DC0024B1A708000024BC150F0BD68080020ED
S1134DD06C0800209D4D0000A00A002010B582B090
S1134DE0041C684605490622054B9847201C054BC0
S1134DF098476B46185602B010BDC04660A8000024
S1134E00BD790000614D000008B5024B1B6800200D
S1134E10984708BD6C08002008B5024B5B68012068
S1134E20984708BD6C08002008B5024B9B68022017
S1134E30984708BD6C08002008B5024BDB680320C6
S1134E40984708BD6C08002008B5024B1B69042074
S1134E50984708BD6C08002008B5024B5B69052023
S1134E60984708BD6C080020F0B5474680B488B068
S1134E70051C0C1C161C29600B681C209A0700D505
S1134E80C1E00B680520DA0700D5BCE0081C604BC4
S1134E909847604B196A821C012797403A1C0A43C1
S1134EA01A6207A92427F35D0B701430C0B2804640
S1134EB0594B98474046594B9847F05D0021584B51
S1134EC098473378012B00D09AE022680C231343CF
S1134ED0236095E0EA18D16004331C2BFAD1002337
S1134EE0EB62AB620024AB862B863623EC5437236B
S1134EF0EC543823EC5403236B722C712868444B14
S1134F009847071C4749484B9847BF00474BFD50FB
S1134F102F6802AB80221A705C7001229A70DC70D8
S1134F203378002B02D1002202AB9A70B36A039348
S1134F30F06A0490326B0592736B06930024E1B21D
S1134F40A30003AA9858002802D1381C384A904775
S1134F50431C06D06A461072000CC0B202A9354B3D
S1134F6098470134042CEAD133786B71337CAB71EC
S1134F70B37CEB71337D2B7200226B46DA8033787D
S1134F80012B14D12868224B98471430C0B22A4B05
S1134F909847011CB0696A460632284B9847031C9F
S1134FA01720002B2FD16B4606331B783B73B26856
S1134FB070680243F3681A43337C717C002903D17F
S1134FC01F498978880701D580210A43B17C0029CB
S1134FD002D0802189020B43F17C002902D0802178
S1134FE089000B43317D002902D0802189010B43C4
S1134FF039680A433A607A6813437B60002002E010
S11350000023002166E708B004BC9046F0BDC0460A
S1135010614D000000040040395F0000AD5E0000F7
S1135020894B000031510000A14D0000A00A00206E
S1135030D94B000015600000555F0000B149000025
S11350400020004110B544791523012C6CD1047A59
S11350500023002C68D1002A57D04B78002B44D071
S11350600268137EDC070FD40B78D90900220029CB
S113507003D15A09D2012D4952181F210B40012195
S11350809940916105234FE00B78DC090022002C44
S113509003D15A09D201254C12191F24234001249B
S11350A09C405461897803681A7ED40700D59962BC
S11350B0C2790023002A37D102680421137E0B42EF
S11350C0FCD0117E00234C072ED5538B590703D5F2
S11350D0518B04230B4353838379012B02D1936AAD
S11350E0002321E0936A00231EE00B78D9090022F3
S11350F0002903D15A09D2010C4C12191F210B406B
S113510001219940516100230EE00B78D909002256
S1135110002903D15A09D201044952181F210B4016
S11351200121994091610023181C10BD00440041E5
S1135130F8B58000674BC45825683623E35C3722F2
S1135140A25C171C1F402B7EAE7D1E40F1073BD591
S11351506379012B38D1637A002B0FD15E4B1B8806
S1135160AB62638E013B9BB26386638E9BB2002B62
S113517001D101232B756379012B25D1637A002B8F
S113518022D02268E36A1978C9B2581CE062A07977
S1135190012804D15878000201430233E362CB05AD
S11351A0DB0D9362A38E013B9BB2A386A38E9BB2BD
S11351B0002B09D101232B75637A012B04D1E379E8
S11351C0002B01D10223AB75720761D56B8B590794
S11351D014D5637A012B0BD01E223823E254032307
S11351E0637205232B753A0702D5201CA3699847DF
S11351F0AB6A6A8B042313436B8349E0637A012B04
S113520016D123689B6A638E013B9BB26386638ECF
S11352109BB2002B3CD104232B7500223823E2548B
S113522003236372F90733D5201CE26890472FE00B
S113523023689A6AD205D20DD3B2A16A0B70A36A0D
S1135240591CA162A179012904D1120A5A70A36AD6
S11352500133A362238E013B9BB22386238E9BB230
S1135260002B15D100223823E25404232B75637AD2
S1135270022B05D17A070BD5201C6369984707E0F8
S1135280637A002B04D1B90702D5201C2269904708
S1135290B30714D56379012B11D1637A012B0ED195
S11352A0E379002B0BD102232B75032363720022B5
S11352B03823E254F90702D5201CE2689047F60926
S11352C007D080232B752B767B0602D5636A201CBE
S11352D09847F8BDA00A0020B80A0020F0B55F4640
S11352E056464D464446F0B491B0051C0C1C161CA1
S11352F02960081CAD4B9847021C23680520D90778
S113530000D54BE123681C209F0700D546E1A84B3C
S1135310186A911C01278F40391C014319620FA997
S11353202D27F35D0B701432D2B29046101CA14BA2
S113533098474046A04B9847F05D00219F4B984703
S1135340F37A6B712423F35CAB712523F35CEB716B
S1135350F37E2B72337F6B7229688846081C934B4B
S11353609847143000226B46DA84328A02928023F2
S1135370DB019A4221D08023DB019A4204D88023A6
S11353809B019A4211D008E0C023DB01029F9F4297
S11353900FD080231B029F4203D0102706970027BB
S11353A00EE00327069700270AE010270697012737
S11353B006E008270697012702E00827069700273A
S11353C031680391F268914673690493317E8A4689
S11353D02623F35C9B467368002B13D0802252056E
S11353E093422ED12723F35C002B2ED1376AC0B20F
S11353F0734B9847011C381C6A462632714B9847F8
S1135400031C1FE02723F35C002B0AD0069A0092AA
S1135410306AB16A6A4626323B1C6B4FB847031C9C
S113542010E0316A0791C0B2654B9847011C069A97
S1135430009207986A4626323B1C634FB847031C08
S113544000E00023181E00D0A8E0737E002B02D0D9
S1135450B37E41468B732A68029FD369002BFCD12B
S113546002976B4626331B88424693814B46039F23
S11354703B43049F3B4371680B43029F1F435246C7
S113548013021F4359464B071F432723F35C002B8A
S113549001D104231F43717E8902337F5B021943C8
S11354A0F27AB37A13431943737F1B0219432423FB
S11354B0F35C5B0419432523F35C1B041943338910
S11354C0FF2B0BD0F27E002A03D0A022D204174374
S11354D002E0802252041743194305E0F37E002BB7
S11354E002D08023DB041F432C23F35C002B03D165
S11354F0364B9B789A0701D580231F432A68D369CA
S1135500002BFCD1434659602A68D369002BFCD197
S113551041460F600EAB80221A7000225A70DA7076
S11355209A70326B0A92736B0B93B76B0C97F66B92
S11355300D9600270EAEF9B2BB000AAA98580028AF
S113554002D1201C224A9047431C05D03070000C25
S1135550C0B2311C1F4A90470137042FEBD10023FE
S1135560EB602B616B61AB61EB612B62AB626B62D5
S11355700022EB85AB853023EA543123EA543223ED
S1135580EA543323EA542868084B9847041C124908
S1135590124B9847A400124BE550002011B03CBCBC
S11355A090469946A246AB46F0BDC046614D000008
S11355B000040040395F0000AD5E0000894B00002C
S11355C0555F0000B1490000D949000000200041A6
S11355D0D94B000015600000A1560000A14D000049
S11355E0A00A002010B5021C0368C4791C20002CFA
S11355F00DD0D28D92B20520002A08D1DA69002A92
S1135600FCD1198502211A7E0A42FCD0002010BD6B
S113561010B5031C046882791C20002A33D09B8DAA
S11356209BB20520002B2ED1237E5A072BD5E3698C
S1135630002BFCD1638BDBB29A0621D09A0703D5E9
S1135640022363831A201EE05A0703D504236383CD
S11356501E2018E0DA0703D501236383132012E028
S1135660DA0605D5628B10231343638342200AE0D4
S11356709A0605D5628B202313436383412002E0FD
S1135680238D0B80002010BD931C9B00C318596010
S1135690012393401A1C3023C15C0A43C25470474F
S11356A0F8B58000644BC5582C68E369002BFCD125
S11356B0237EA67D1E403123EB5C3022AF5C1F406D
S11356C0F10720D5EB8D9BB2002B1AD0AB6A1A7868
S11356D0D2B2591CA9626979012904D15978090205
S11356E00A430233AB62D305DB0D2385EB8D013B0B
S11356F09BB2EB85002B06D1012323750223A375EE
S113570001E001232375B20709D502232375002282
S11357103323EA54FB0702D5281CE968884772073B
S11357206AD5AB8D9BB2002B64D0638BDBB21907B7
S113573002D43F22134001E037221340002B37D01C
S11357409A0707D51A223223EA54628B02231343A1
S1135750638327E0590707D51E223223EA54628B5C
S11357600423134363831DE0DA0707D5132232238E
S1135770EA54628B01231343638313E0D90607D5EC
S113578042223223EA54628B10231343638309E0D9
S113579020221A4206D041223223EA54628B20236B
S11357A0134363837A0727D5281C6B69984723E042
S11357B0228DD205D20DD3B2696A0B706B6A591C63
S11357C069626979012904D1120A5A706B6A01333A
S11357D06B62AB8D013B9BB2AB85002B0CD10423D8
S11357E0237500223223EA54BA0705D5281C2B69F5
S11357F0984701E004232375F10607D51023237588
S11358002376FA0602D5281CEB699847B10607D51A
S11358102023237523763A0702D5281CAB699847C1
S1135820310707D5082323752376BA0602D52B6AD8
S1135830281C9847F8BDC046A00A002008B50828CF
S113584034D880001B4B1B589F468020000230E058
S1135850194B18692DE0194B186A8005800F184BF5
S1135860C340181C25E0144B586922E0124B1B68F6
S1135870022018401DD011491022CB681A42FCD0D6
S11358800D4B1B685A0713D500200E4B98470A4B43
S11358909B681B041B0C58430BE05023074AD35C42
S11358A000205A0705D5044BD86802E0002000E028
S11358B0054808BD68A800008408002000080040CE
S11358C000127A00555F0000006CDC0270B50C4BCE
S11358D01C6A0178857840780122104080014026B6
S11358E0B44304432A40D00180229443221C02433F
S11358F0032001400902034802400A431A6270BDB2
S113590000080040FFFCFFFFF0B54F464646C0B418
S1135910194A946941788C4605780679C7784379A1
S11359209946807801231840800004218C43044365
S113593060461840C00008218C430443181C3840BA
S113594080014027BC430443181C3040C00180261A
S1135950B4430443072028400002084D2C4004436C
S113596049460B4019030648231C03400B4393612B
S11359700CBC90469946F0BD00080040FFF8FFFFBC
S1135980FFEFFFFFF0B55F4656464D464446F0B480
S1135990254A948A45780378594259418A4683783E
S11359A09C46C178884603799946467B077B817B70
S11359B08B4680681D4B58610123514688000421A1
S11359C08C43044348461840C00008218C430443D8
S11359D040461840000110218C430443604618409F
S11359E0400120218C430443181C38408001402787
S11359F0BC430443181C3040C0018026B443044314
S1135A000720284000020A4D2C40044359460B400D
S1135A1019030848231C03400B4393823CBC904663
S1135A209946A246AB46F0BD000800408408002019
S1135A30FFF8FFFFFFEFFFFF10B5027A9206120C8A
S1135A4043899B059B0D1A43154B5A6081884288F4
S1135A501143C479827922430A434178C9010A4334
S1135A601A600378042B0FD1027B9206038A1A432F
S1135A70C3891B040B490B401A43094B9A601968EC
S1135A8004220A431A6009E0202B07D1028A044B3E
S1135A909A6019688422D2000A431A6010BDC04675
S1135AA0840800200000FF03082843D88000224B0C
S1135AB01B589F4600203EE0204B196A02220A43ED
S1135AC01A62002037E01D4B996902220A439A6149
S1135AD0002030E0194B198A02220A431A8200205E
S1135AE029E0164B998A02220A439A82002022E076
S1135AF0134B196802220A431A601A68114B1A40A0
S1135B000E4B9A84191C1022CB681A42FCD00C4A02
S1135B1091680A4BD96251689962126892B29A8468
S1135B20002008E0054A4423D05C02210143D154FB
S1135B30002000E0172070478CA8000000080040F7
S1135B40840800207FFF0000F0B54F464646C0B4ED
S1135B5091B0C222D2005B4B9A605B4B5A681E2103
S1135B608A4304210A435A60032201AB1A700024B9
S1135B70564DE0B201A9A8470134252CF9D10CA84F
S1135B80002303708370802212028260C37001229A
S1135B900271037383730322427043734C4B98471F
S1135BA005204C4B984747490222CB681A42FCD047
S1135BB0444B998A80220A439A82474D2A68D10429
S1135BC0490E09049869454A02400A439A610AA8A1
S1135BD00123437083700024C4700371072303708E
S1135BE044713F4B984704203A4B984705AB002239
S1135BF05C809C809A71DA713F215981042119706B
S1135C005A702B689B0E3F2B00D11F2305A80372EB
S1135C10344B0382072303733F23C381324B9847DA
S1135C2004A8002545700126867005702F4B9847FF
S1135C300620284FB8472E4B984701AC0296657052
S1135C4025726572052323700120211C294B994676
S1135C5098470120284A90469047657025726572DE
S1135C6004232370202363600220211CC8470220E0
S1135C70C04726700020211C144B984700201F4B5E
S1135C8098470720B8470F49D022CB681340D02B40
S1135C90FBD11B4A0023137253729372D37201A96E
S1135CA001224A604B700B724B7207230B70002069
S1135CB0104B98470020104B984711B00CBC9046ED
S1135CC09946F0BD0008004000400041395F0000E3
S1135CD085590000A95A000024608000FFFF80FF5E
S1135CE009590000B9050000395A0000CD580000D8
