:10000000D02A0020A9610000A5610000A5610000C0
:1000100000000000000000000000000000000000E0
:10002000000000000000000000000000A5610000CA
:100030000000000000000000A5610000A5610000B4
:10004000A5610000A5610000A56100004903000052
:1000500005430000A5610000A5610000A561000046
:10006000A56100000149000011490000214900007C
:10007000314900004149000051490000756100000C
:100080008561000095610000E5030000F5030000B4
:10009000050400001504000025040000A56100000F
:1000A000A5610000A5610000A5610000A561000038
:1000B00010B5064C2378002B07D1054B002B02D03E
:1000C000044800E000BF0123237010BDBC000020E5
:1000D0000000000028A5000008B5084B002B03D045
:1000E0000748084900E000BF07480368002B03D019
:1000F000064B002B00D0984708BDC046000000000A
:1001000028A50000C000002028A500000000000075
:1001100010B5CA88C388D21A92060C7964044B7948
:100120009B0523438C782403234313430279002A3D
:1001300005D1CA78002A02D080225202134348789F
:1001400080010A781043184310BDC04610B58C0ECC
:10015000C388E318D3808B011B0F53718B02DB0E16
:1001600013710379002B03D0CB03DB0E937005E0F2
:100170000B041B0F9370CB03DB0FD3700B059B0E8F
:1001800053703F231940117010BDC046016808220A
:10019000054B1A600268937A5BB2002BFBDB0A887E
:1001A000022313430B80704700E100E010B50168A3
:1001B00008248023054AD4500268937A5BB2002B4E
:1001C000FBDB0B88022293430B8010BD00E100E0B3
:1001D00038B5041C0568074B9847002323826382C7
:1001E0002268937A5BB2002BFBDB2A88012313433E
:1001F0002B8038BDAD01000010B50468034B984753
:10020000A37A5BB2002BFBDB206110BD1101000063
:1002100010B50A1C03684179002906D105495980A7
:100220000468A17A49B20029FBDB1969024B98479F
:1002300010BDC0460080FFFF4D01000070B50E1CD0
:10024000141C05681723012A0BD8074B9847AB7A73
:100250005BB2002BFBDBE4002D19A861337A2B770E
:100260000023181C70BDC0461101000030B583B0DA
:10027000041C151C01601C4B996920220A439A61D9
:1002800001A902230B700420184B98470420184B37
:100290009847201C174B98472B792371EB78637193
:1002A000EB88E380144B1C6023682A882979002995
:1002B00002D008210A4301E048210A43A978002915
:1002C00001D080210A431A80EA78002A04D0598894
:1002D0008022D2010A435A80291C0831201C0022A6
:1002E000064B984703B030BD00040040315A00006F
:1002F000A5590000D1010000C40800203D02000003
:10030000012A01D917200AE0931C9B001950038A87
:10031000012191400A1C1A4392B2028200207047C8
:1003200010B50368012902D18022DA7104E00122AC
:100330008A4001242240DA71438A01228A40111C3A
:10034000194389B2418210BD10B50E4B1B681C6861
:100350005A8A198A081C1040227AE1790A40D10988
:1003600006D0810701D5DB6898478023237207E018
:10037000D10705D5C20701D59B6898470123237291
:1003800010BDC046C408002038B58000144BC458C6
:100390002268957B237E1D40637E1D40EB0705D5BB
:1003A000201CA2689047012322689373AB0705D5F0
:1003B000201CE2689047022322689373EB0605D560
:1003C000201C22699047102322689373AB0605D541
:1003D000201C62699047236820229A7338BDC0466A
:1003E000C808002008B50020014B984708BDC0464A
:1003F0008903000008B50120014B984708BDC0469D
:100400008903000008B50220014B984708BDC0468B
:100410008903000008B50320014B984708BDC0467A
:100420008903000008B50420014B984708BDC04669
:1004300089030000054B1B683F2B05DC591C034A50
:1004400011600021024AD1547047C04604070020C1
:100450000C0700200D4B1B6A1A040BD50C4B1B8894
:100460009BB2002B06D101220A4B1A700522084BC1
:100470001A800AE0084B1B889BB2002B05D1012291
:10048000064B1A700522044B1A8070470044004145
:10049000F208002061090020F0080020FE0800207A
:1004A00030B593B0041C0D1C02AB002202920392E3
:1004B0000492059206920792089209920A920B9270
:1004C0000C920D921B221A700F48211C0F4B98475B
:1004D0000F4B187843B2002B14DB0EAB02221A80AC
:1004E000F622D2015A800F9540B200931023019357
:1004F00002A930220023074CA047002802D006485A
:10050000064B984713B030BDC08D0000617A0000E3
:1005100000000020A93E0000DC8D0000817B00006F
:1005200070B582B0041C012902D0092914D059E009
:10053000002A0DD00023D356002B09D12A492B4A7B
:100540002B4CA04700284DD02A482B4B984749E018
:100550002A48294B984745E01368002B42D00421D4
:10056000525E002A3ED028229E5C29229D5C2A22CF
:10057000995C2B22985C1B7807221340042B03D034
:100580001F481D4B98472DE036062D043543284360
:10059000090208431B4A8018019001A81A4B98478A
:1005A000011C1A481A4B984701A81A4B98471A4B36
:1005B00085689D704168597002681A7045691749CD
:1005C0006A18DA80C2681A71026901325A71201CF5
:1005D000134B9847002805D1FF22124B1A700122B5
:1005E000114B1A7002B070BD50010020B40500001C
:1005F00089400000008E0000817B0000188E000002
:10060000308E00008081557C19740000648E0000DB
:10061000617A000071740000580900206C07000026
:1006200009400000000000204C01002010B582B0FD
:100630002C2802D036281AD028E00B78012B05D1BF
:100640001348144B9847144B98471FE0002B1DD1BB
:100650000022124B1A7012480E4B9847FF2300934A
:10066000104806210222104B104CA0470EE00C78D7
:100670004A788B78C97800910D48211C0D4CA04711
:100680000122064B1A700C480C4B984702B010BD63
:10069000848E0000817B0000992300000907002060
:1006A000BC8E0000F48E0000FC8E00005D23000074
:1006B000088F0000617A0000408F0000A94100000F
:1006C00008B5014B984708BD1167000008B5014BFC
:1006D000984708BD61710000F0B583B00C1C2C2850
:1006E0001ED0362841D0062864D13348334B984772
:1006F0003348211C334DA8472123E15C3248A847E9
:100700002C23E1563148A8472223E15C2323E25CF5
:100710002423E35C2520205C00902D48A84749E075
:100720000B78012B0AD12B48264CA0472A48A0471A
:100730002A48224B98472A4B98473BE0002B39D157
:100740002448204CA0472748A04724481B4B9847E3
:10075000FF230093244806210222244B244CA04767
:1007600024480121244B984724E01A4F381C154C8B
:10077000A0472248A047194E301C104DA847381CEE
:10078000A0471F48A047301CA8471A481D491E4BC8
:10079000984701221D4B1A70381CA0471C48A047DF
:1007A000301CA8471B4B9847381CA0471A48A04745
:1007B000301CA84703B0F0BD508F0000817B0000C3
:1007C000648F0000617A0000808F00009C8F000021
:1007D000B88F0000DC8F0000E08F0000FC9100006B
:1007E0009923000008900000F48E0000FC8E0000A9
:1007F0005D230000D8000020216E00001C90000046
:100800002C900000908D00006567000060090020BA
:1008100054900000152400007890000070B582B05C
:10082000051C0E1C00226B46DA80064C281C69460B
:100830000631A0470028F9D16B4606331B88337078
:1008400002B070BD0951000070B5061C0D1C034CB0
:10085000301C291CA0470028FAD170BDDD500000D3
:1008600070B586B0051C141C01292BD0052943D076
:10087000002952D11368002B14DB294B009300236D
:100880000193029303930493059301210022254CC5
:10089000A0472548254CA0472548A0472548264B7A
:1008A00098473AE02548214CA047254E2548311C61
:1008B000A0472548E621254AA047281C311C244B87
:1008C00098472AE01378002B0BD11748174CA04704
:1008D0002048A0471748184B984702221E4B1A7011
:1008E0001BE01648114DA84721781C48A847164818
:1008F000F621164AA84710E00B480C4B98471848B9
:100900000D4CA0470B48A047164A3123D15C02206A
:100910008143D1540022104B1A7006B070BDC046FE
:100920009090000079680000DC8F0000617A000080
:10093000A4900000FC910000817B0000C4900000A6
:10094000908D0000C890000000910000808D000094
:1009500065670000249100006009002040910000BC
:1009600070910000EC07002010B584B001AC201C91
:10097000084B98470F2301930023636001232372E0
:100980000322E272A3720F20211C034B984704B08C
:1009900010BDC046F94300000D44000008B50548ED
:1009A0000F210022044B98470F200021034B98474A
:1009B00008BDC0465504000095420000C542000035
:1009C00010B586B001AAA0231B01138000239370E9
:1009D000D370FA23DB00D38001231371074903ABE3
:1009E00011C911C306231374054C201C0549064B7D
:1009F0009847201C054B984706B010BDF40800200E
:100A0000DC080020001400406D0200008D01000091
:100A100010B5054C201C05490022054B9847201CA9
:100A20000021044B984710BDDC080020190B000082
:100A3000010300002103000070B582B0041C2748A8
:100A40006946274B9847274B69460A791A71887877
:100A500098704D785D704A795A71CA78DA70CA8890
:100A6000DA800A781A703B2C09D81D1C01232B72DE
:100A70001419E0B23C211C4B9847297026E01B4B0F
:100A80009C420DD8174E02233372201C3C21184B78
:100A900098472818C0B23C21134B9847717015E055
:100AA000144B9C4207D80F4C032323721249134B5B
:100AB000984761700AE01248124CA0471248A047BC
:100AC00012489621FF31124AA04704E00348054925
:100AD0000022104B984702B070BDC046DC080020D1
:100AE00011020000F4080020FD7200000F0E00004B
:100AF000757200007F51010080510100BD7300003C
:100B0000C4900000617A0000849100000091000010
:100B1000A48D00003D02000008B596208000034B24
:100B200098470122024B1A7008BDC046390A0000DE
:100B3000FF08002010B58CB0304B98470023079376
:100B4000089309930A930B932D4B069306A82D4BFC
:100B50009847011E03D02C482C4B9847FEE72C4B9E
:100B600098472C482C492D4B9847FF2300932C483D
:100B7000062102222B4B2C4CA0472C4C22E00020BB
:100B80002B4A90472B4A1378002B1BD02A4B1B78FB
:100B90007F2B17D9022002210022284B9847264B91
:100BA0001870002803DA2648264B98470AE002A965
:100BB00002230B8001235B424B60234B4B801022AE
:100BC000224B98472378002BD9D01B4B0020185676
:100BD0001F4B98471F4B98471F4B9847002808D03A
:100BE0001E480A4CA0471E48A0471E481E491F4ADF
:100BF000A04700201E4B98470CB010BDA512000066
:100C00002D060000FD200000AC910000617A00007C
:100C1000A13B000021050000A1040000213C0000D0
:100C2000F48E0000FC8E00005D2300004C010020CB
:100C30006D2100000907002000000020353C000065
:100C4000D4910000817B00001A0A0000FD3C0000E6
:100C500009400000E53B000079230000C49000003B
:100C6000009200000091000079020000DC94000076
:100C70005121000030B585B00B4C0C48211C0C4BA9
:100C800098470C4D62792379E1880091A178019110
:100C90006178029121780391281C0749074CA047ED
:100CA000281C05B030BDC04658090020DC080020D3
:100CB00011020000CC07002034920000D97C000013
:100CC000F0B54F464646C0B4A9B0E74B984702AAD4
:100CD0008023DB05029300235360FF211181002153
:100CE0009372D372012624201654252016542620F0
:100CF00013542720135493622C2013542D20135483
:100D000053611382D376117611775176132393763C
:100D1000517780235B03D360D44B1363D44B53636D
:100D200001235B429363D363E1235B021362D14CE3
:100D3000D14B1C60D149D24B1960D249D24B1960BA
:100D4000201CD249D24B9847D24F3B68986800216B
:100D5000D14DA8473B6858680021A847201CCF49BF
:100D60000122CF4B98472568281CCE4B98471F235C
:100D700018408640CC4B1E602268D369002BFCD102
:100D80002A68022313432B60C84F381CC84CA04765
:100D9000C848A047C84E301CC84DA847381CA047BB
:100DA000C748A047301CA847381CA047C548A047E3
:100DB000301CA847C44B9847C44B9847381CA047E1
:100DC000C348A047301CA847C24B9847C24B98471E
:100DD000C248C349C34B98473C20C34B9847C34BB9
:100DE0009847C34B984702A8C24B9847C24C201C57
:100DF00002A9C24B9847201CC14B984702A8C14B7F
:100E000098470394C04B059380230693BF4802A9DB
:100E1000BF4B9847011E03DABE48A54B9847FEE733
:100E2000BA48BD49BD4B9847011E03DABC48A04BE8
:100E30009847FEE70122BB4B1A70002323932493AB
:100E4000259326932793B84B229322A8B74B984714
:100E5000051E0AD0B648964CA047B648291CA047A4
:100E6000B548B649B64AA047FEE7B64B9847B648DC
:100E7000B649B74B98478D4F381C8D4CA047B548A5
:100E8000A0478D4E301C8D4A90469047032001218B
:100E9000B14B984702A801230380B04B9847B04B51
:100EA0005968C02292000A435A60AE4B1A69042165
:100EB0008A431A610022AC4B5A70381CA047AB48D9
:100EC000A047301CC047FF230093A94806210222F7
:100ED000A84BA94DA847381CA047A848A047301CDC
:100EE000C047A74E844DA74C0020B047281CA04700
:100EF0000022A54B1A708B4B1B78002B02D0022BC3
:100F000010D0F1E78148A149A14B98476748684F45
:100F1000B847A048B8476848684B98470122814BBA
:100F20001A70E1E79C4B1B78002B24D000229046DE
:100F3000994B1A70994B9847021C12A89849994BE3
:100F400098475A485A4B99469847974F974812A93D
:100F50003A1CC8475848594B984712A8944B984791
:100F6000031C42460092012201926848391C12AAD1
:100F7000904FB847B8E7904B1B78002B25D0002343
:100F800098468D4B42461A70844B9847021C12A813
:100F90008A49844B98474548454B99469847884F1E
:100FA000824812A93A1CC8474348444B984712A8A4
:100FB0007F4B9847031C42460092012201925348FE
:100FC000391C12AA7B4FB8478EE77E4B1B78002B4B
:100FD00024D000277B4B1F70404841497A4B9847EB
:100FE0006E4B9847021C12A878496E4B98472F48C1
:100FF0002F4B98469847764812A9C0472E482F4B4A
:10100000984712A86A4B9847031C00970122019247
:101010003E48704912AA674FB84765E76E4B1B7888
:10102000002B00D160E700276B4B1F705B4B98478C
:10103000021C12A869495B4B98471C481C4A904601
:101040009047634812A9C0471B481C4B984712A8F9
:10105000574B9847031C0097012201922B48604987
:1010600012AA544FB8473FE73D5B0000020016004C
:1010700002001700EC070020C40A00204908000005
:10108000C00A00201D080000BC0A00200014004215
:10109000D54D000078000020B97B00003504000029
:1010A00081510000D548000000E100E0DC8F000025
:1010B000617A000054920000FC910000817B0000E6
:1010C0007092000094920000350B0000A512000001
:1010D000D4920000C1090000110A0000DC080020C1
:1010E00058090020F9010000390A000069090000D0
:1010F0009D09000005640000000900201164000043
:10110000BD640000516600004C070020D80000209C
:101110007566000000930000610800000167000090
:101120003493000060090020D9060000FD20000073
:10113000C49000006893000000910000E6020000E7
:10114000B88D0000A13B0000CD060000C1060000E4
:10115000213C000080930000BD2300009D2300007F
:101160000040004100ED00E000040040A4930000B6
:10117000F48E0000FC8E00005D230000BC93000094
:101180006D2100004965000008070020908D0000D7
:1011900065670000D493000061090020750C000011
:1011A000F4930000D97C000020940000009400001B
:1011B000417D0000296B0000FE08002040940000E3
:1011C0004C940000FF080020110200006C94000005
:1011D000789400009094000001000020AC9400007E
:1011E000BC94000010B50020084B9847084CFA2129
:1011F0008900A047074B1860FA218900A047064BD9
:1012000018600522054B1A6010BDC0461959000030
:1012100075720000080000200400002010E000E0CB
:1012200030B5084B1C68084A00258021490206E0B9
:10123000002C04D05460956013680B42FCD0013838
:10124000F6D230BD0800002010E000E008B5034BE6
:101250001B68002B00D0984708BDC046200800201E
:1012600038B5002806D0041C034D0120A847013CD6
:10127000002CFAD138BDC04621120000F8B5074C49
:1012800020276761402666616420054DA847A76155
:101290000A20A847A6616420A847F8BD8044004101
:1012A0006112000070B582B00023134A136001ACD4
:1012B00001256570A37025702620211C0F4EB047B4
:1012C0002520211CB0472720211CB0470C4B1B6850
:1012D0001D4203D00A4B1B689A0701D4094B98475B
:1012E000094B98470122094B1A70BFF35F8F62B612
:1012F000002002B070BDC0462008002085440000D8
:1013000010E000E0E51100007D1200001400002054
:1013100010B584B00E4B186001AC201C0D4B9847E3
:101320002423019300236360012323720223E372C9
:101330000420211C084B9847084804210022084B30
:10134000984704200021074B984704B010BDC046C1
:1013500020080020F94300000D4400004D12000059
:1013600095420000C542000008B5002804D00420C2
:101370000021044B984703E004200021024B9847CA
:1013800008BDC046C5420000E542000030B591B03E
:101390002E4C0523237000236370A37001A9012242
:1013A0004A708B700A700520294B98472378D90919
:1013B0000022002903D15A09D201264812181F2100
:1013C0000B400121081C9840906102AA1170002373
:1013D00053609360137453749174D1741375242102
:1013E000535409930A9380235B02D3601A4B936290
:1013F00001235B42D362194B1363194B5363194B9F
:101400009361194819491A4B984700281AD1164D6B
:101410002C68201C174B98471F231840012383403A
:10142000181C154B18602A68D369002BFCD1226860
:10143000022313432360114B98470120104B984718
:10144000002000E0FA2040B211B030BD8009002039
:10145000854400000044004103000400030006002E
:1014600003000700001BB7008409002000080042A9
:1014700061490000D548000000E100E07D12000055
:1014800061120000F0B55F4656464D464446F0B442
:1014900087B003286CD10E684D680F8900226B4617
:1014A000DA751733002E05D0002D5FD10124029587
:1014B0001D1C04E00024012002906E4617363748B8
:1014C00037490122374B9847002F42D0334B9A4679
:1014D0000121042200208446042399461E208046D0
:1014E000634263410393347850460368187E084290
:1014F000FCD0187E0842FCD09C62187E1042FCD0C2
:10150000264884790195187E1042FCD05D8B604698
:10151000154205D0588B4D46284380B2588340462B
:10152000012C04D19D6AED05ED0DAB4602E09D6AEC
:10153000EDB2AB460028E6D1019D58462870013F28
:10154000BFB2039BED18029C63426341F618002F63
:10155000C9D1124B196802220B7E1342FCD00F48EE
:101560000F4900220F4B984700200EE0FA200CE0B4
:101570000D480E49862252000D4B98470D480E4BE0
:1015800098470D200D4B9847FF2040B207B03CBC58
:1015900090469946A246AB46F0BDC046840900205D
:1015A000800900203D4B000000950000F0940000F1
:1015B000617A000014950000817B0000957A00009C
:1015C00038B50B4D2C68201C0A4B98471F23184038
:1015D00001238340181C8023074AD0502A68D3690E
:1015E000002BFCD12368022293432360002038BDE6
:1015F00084090020D548000000E100E0002A06D060
:1016000082180B780370013001319042F9D1704794
:10161000002A04D08218017001309042FBD170473B
:10162000031C0278002A07D00020013080B2013369
:101630001A78002AF9D100E000207047024B1A788E
:101640000132D2B21A707047280800207047C04695
:1016500000B583B00120094B9847094801A9094BFF
:101660009847002806D10221019B194301910448A3
:10167000054B984740B203B000BDC0466913000057
:1016800070100000C92A0000D52A000008B5104BD0
:101690001B78002B13D10F4B1B78032B04D00D4B61
:1016A0001B780020042B0BD10B4B984700280CD142
:1016B0000A480B490B4B9847002801D005E0002051
:1016C000034B1A780132D2B21A7040B208BDC0463C
:1016D000400800203008002035240000741000006D
:1016E00078560000D52A0000014B18707047C0469C
:1016F0003008002000B583B0174B1B78002B04D0B6
:10170000154B1A78013AD2B21A70134B1B7800208D
:10171000002B1ED1114B1B78032B03D00F4B1B78D2
:10172000042B16D1002301930D480E490E4B984708
:1017300000280ED1012001A90C4B9847002808D1A0
:1017400001998B0705D50223994301910120064B8E
:10175000984740B203B000BD400800203008002088
:101760007410000021430000D52A0000C92A00009F
:1017700008B50A4B98470023094A1370094A1370A9
:10178000094A1370094A1370094A1360094A136021
:10179000094A1360094A136008BDC0468D1600004F
:1017A00030080020400800203808002028080020C9
:1017B00024080020340800203C0800202C080020C9
:1017C000F0B557464E464546E0B486B082460D1CFD
:1017D000914698460EAB04CB1E8810AB1F887F2322
:1017E0000B4005AC6370207008236380002A05D08D
:1017F00062889219BA1892B2628004E005AB5A88E6
:10180000424492B25A80554B9847041E00D08BE058
:10181000002303936A46D3800293029B52461343EC
:101820000293029B2D021D43029505AB5B88029A31
:101830001B0413430293029949484A4B9847041EDC
:1018400000D083E000230293029A02231343029301
:1018500002994548434B9847041E77D100220392D2
:101860006B46DA80DA8892B2404B9A421DD83E4BE2
:101870009A463F4D504602A9A847002815D1029B21
:101880009A0708D43B4803A9394B984700280CD045
:101890000023039309E06C46E38801339BB2E380A5
:1018A000E28892B2314B9A42E4D9039B002B4CD090
:1018B000039B049305A94B889BB24B800498082294
:1018C0002D4B9847041E41D1049B083304934B468B
:1018D000002B09D0049849464246274B9847041EDE
:1018E00034D1049B434404930E9A002A0ED0049BE7
:1018F0004246BF1AFF18049704980E99321C1E4BDB
:101900009847041E22D1049BF6180496039B9B0063
:101910000293029A02231343029302991748114B30
:101920009847041E12D10CE0154816499622FF3242
:10193000154B98471548164B98470D20154B98475F
:1019400004E0154B9847041C00E0FD2460B206B08B
:101950001CBC90469946A246F0BDC0468D160000BC
:101960008C100000D52A000078100000E70300006A
:10197000C92A000000041500552B00006C1000005F
:101980000095000044950000617A00005895000021
:10199000817B0000957A0000F5160000F0B55F46E7
:1019A00056464D46E0B486B0A44A92469146A44EAF
:1019B00037E14A461378013BDBB21370A14FB047C1
:1019C000041E00D010E1A04803A9A04B9847041EB4
:1019D00000D0FCE0039BDB0700D4ECE000209C4B34
:1019E0009847994803A9994B9847041E00D00CE1E9
:1019F00001230399994303919348964B9847041EFA
:101A000000D002E1904803A9904B9847041E0FD0E4
:101A10008C489149E0225200904B98479048914B56
:101A200098470D20904B98470120894B9847ECE050
:101A300000228E4B1A70039A93041B0D9B4600D113
:101A4000ACE0002305938A4805A9804B9847041E03
:101A50000FD07C488049E7225200804B9847854848
:101A6000804B98470D20804B98470120784B984732
:101A7000C9E004AD0598291C04227F4B9847041C3B
:101A80006B889BB26B8000280FD06E487249EB22A6
:101A90005200724B98477948724B98470D20724B11
:101AA000984701206A4B9847ADE004AB5B889BB236
:101AB0009B451DD004AB5B885A46D31A042B17DD17
:101AC00060486549E022FF32644CA04704A94A8877
:101AD00092B20B78DBB24978009169485946A04729
:101AE0000D20614B98470120594B9847FA248AE012
:101AF00004AB1B78012B0DD1624B1B68002B3BD034
:101B000004AA5078C0B25188083989B2059A0832BF
:101B1000984731E004AB1B78022B0DD15A4B1C685F
:101B2000002C29D004AB5878C0B25988083989B242
:101B3000059A0832A0471FE004AB1B78042B0DD197
:101B4000524B1B68002B17D004AA5078C0B25188A2
:101B5000083989B2059A083298470DE039483E495C
:101B6000FC2252003D4B984749483E4B98470D2078
:101B70003D4B9847FA2446E03C4B1B78002B3FD165
:101B800030483549434A354B98474348354B984789
:101B90000D20354B9847414B984731E029482E4955
:101BA0003F4A2E4B98473F482E4B98470D202E4BCF
:101BB0009847FE2429E0234827493B4A274CA04761
:101BC0003A480399A0470D20274B984718E01D4835
:101BD000214985229200214B98473548214B98474F
:101BE0000D20214B984710E0381C1B49314A1B4BF4
:101BF000984731481B4B98470D201B4B984704E0F2
:101C00002E4B9847041C002C0BD00E482C492D4A13
:101C1000124DA84761B22C48A8470D20124B984797
:101C2000CDE652461378002B00D0C2E6002006B065
:101C30001CBC91469A46A346F0BDC0462808002029
:101C40008D1600000095000070100000C92A0000E9
:101C500069130000D52A000050950000617A000049
:101C600074950000817B0000957A00003808002000
:101C70008410000098950000E12A0000BC95000047
:101C8000D495000024080020340800203C080020DF
:101C900014960000FF0100002C9600005116000071
:101CA00007020000509600000E020000649600003B
:101CB000809600001A020000A4960000F5160000AD
:101CC000A897000039020000C4960000F0B54F4606
:101CD0004646C0B483B0051C0F1C161C984600284D
:101CE00003D0002901D0002A14D14346002B04D090
:101CF00001222F4B1A702F4B98472F482F49304AFB
:101D0000304B98473048314B98470D20304B98471F
:101D1000F42446E02F4869462F4A9047041E40D1DC
:101D2000009B99462D4801A92B4B9847041E38D19A
:101D3000281C391C321C2A4B9847041E31D14B46B3
:101D40009F043F0DBE420DD91B481C49254A1D4C1E
:101D5000A0472548311C3A1CA0470D201C4B984732
:101D6000F4241EE0019B9D4203D3AD19FF18BD4230
:101D70000CD9114811491D4A124B98471C48134B66
:101D800098470D20124B9847F4240AE0BD4202D038
:101D90004346002B05D00122054B1A70054B98478E
:101DA000041C60B203B00CBC90469946F0BDC0461E
:101DB00038080020511600000095000038950000FA
:101DC0005E020000617A0000F4960000817B000052
:101DD000957A000070100000C92A000084100000ED
:101DE000E12A000071020000149700007702000051
:101DF0005897000038B5041E022C09D0022802D8DA
:101E0000012809D014E003280ED0042808D00FE0E0
:101E10000E4B1960002017E00D4B1960002013E0F5
:101E20000C4B196000200FE00B4B196000200BE0F9
:101E30000A480B490B4A0C4DA8470C48211CA847DF
:101E40000D200B4B9847F42040B238BD34080020D9
:101E5000240800203C0800202C08002000950000E9
:101E600028950000A6020000617A00009C970000FF
:101E7000957A000008B50023094A1360094A1360E7
:101E8000094A1370094A1370094A137009480A4B2A
:101E90009847032009490A4B9847002008BDC046CF
:101EA00024080020340800204008002030080020CA
:101EB000280800203D160000111300004D160000F8
:101EC000F51D000030B59FB0041C151C2C2811D145
:101ED000101C03A9042200237C4CA047002800D03A
:101EE000F1E07B4B1B68002B00D1ECE02C2003A918
:101EF0009847E8E0062811D1101C03A930220123DD
:101F0000724CA047002800D0DDE0714B1B68002B0D
:101F100000D1D8E0062003A99847D4E00E2800D1CC
:101F2000D1E0362811D1101C03A910220023674CE0
:101F3000A047002800D0C6E0654B1B68002B00D1ED
:101F4000C1E0362003A99847BDE0332816D103A885
:101F5000002164225F4B9847281C03A964220023B8
:101F60005A4CA047002800D0ADE0594B1B68002B0D
:101F700000D1A8E0332003A99847A4E0382823D152
:101F8000101C03A904220023504CA047002800D0B5
:101F900099E05148514CA0470398FF23191C014078
:101FA000020A1A40050C2B40000E00904C48A04736
:101FB0000D204C4B9847464B1B68002B00D182E00C
:101FC0003820002198477EE0112816D10022464B88
:101FD0001A70281C03A9042200233C4CA0470028A7
:101FE00071D103AB1A78414B1A70394B1B68002B27
:101FF00069D0112003A9984765E013280FD1101C60
:1020000003A92C220023314CA04700285BD1304B80
:102010001B68002B57D0132003A9984753E00428CE
:102020000FD1101C1CA904220023284CA047002813
:1020300049D1274B1B68002B45D004201CA9984789
:1020400041E015280FD1101C1CA9042200231F4CAD
:10205000A047002837D11E4B1B68002B33D015201A
:102060001CA998472FE009280FD1101C03A964224E
:102070000123164CA047002825D1154B1B68002BC7
:1020800021D0092003A998471DE02A280FD1101C50
:1020900003A9042201230D4CA047002813D10C4BA7
:1020A0001B68002B0FD02A2003A998470BE010488B
:1020B000104988225200094DA8470F48211CA84703
:1020C0000D20084B98471FB030BDC046CD1C000006
:1020D0004408002011160000D8970000617A000023
:1020E000E4970000957A0000480800204908002085
:1020F00000950000CC9700000498000010B502681D
:102100000C4B1A6000220C4B1A7000200B4B9847A6
:10211000041E0CD100200A4B9847041E04D1012054
:102120000849094B984702E00020084B984760B2E5
:1021300010BDC0464408002048080020C92B0000FC
:10214000751E0000C51E0000F51D0000CD2D00000D
:1021500008B50020034B98470020034B9847002008
:1021600008BDC04671170000CD2D000008B5014B19
:10217000984708BD9D190000F0B557464E464546A4
:10218000E0B4A0B081460F1C141C1E1C28AB1B8899
:10219000984629AB1B789A46012A19D0002E09D0FF
:1021A000301C604B9847002804D0301C5D4B98478A
:1021B00040280DD95C485D49D92252005C4B9847B4
:1021C0005C485D4B98470D205C4B9847F420A1E09C
:1021D0007B1E1F2B0DD954485449BA22FF32544B51
:1021E00098475748544B98470D20544B9847F42034
:1021F00090E041460D290FD9FF290DD04A484B499F
:10220000E12252004A4B98474E484B4B98470D20CD
:102210004A4B9847F4207DE005AD68465A30494660
:102220003A1C494B9847EF1940370023BB714423B0
:102230004246EA525246531E9A416723EA544123CA
:10224000EC54032C38D13378013BDBB205AA137070
:10225000032B0ED934483549DA22FF32344CA047DB
:1022600005AB19783948A0470D20344B9847F42026
:1022700050E07278511E05AB59701023111C994320
:102280000B290ED028482949F0225200284CA0479B
:1022900005AB59782E48A0470D20284B9847F420CD
:1022A00038E0B11C68461630274B9847737805AA6A
:1022B000D31800229A7023E0022C09D1301C194B4C
:1022C0009847421CD2B205A8311C1F4B984717E013
:1022D000042C05D105A8311C3E221B4B98470FE06A
:1022E000012C0DD010481149FA22FF32104B9847AB
:1022F0001848114B98470D20104B9847F42009E0DF
:1023000000230093019302930120282105AA6C2346
:10231000114CA04740B220B01CBC90469946A24642
:10232000F0BDC0462116000000950000B8970000DF
:10233000617A0000B0980000817B0000957A00006F
:10234000C0980000D4980000FD150000E09800003F
:10235000FC98000018990000C117000010B582B069
:1023600004AC2488009400240194024CA04702B0DD
:1023700010BDC0467921000010B584B00023009341
:102380000193029301202B210022024CA04704B0AC
:1023900010BDC046C11700000020704710B584B0C2
:1023A000021C002300930193029301203D2104238A
:1023B000014CA04704B010BDC117000070B586B035
:1023C000041C05AA1070517000230093019302931E
:1023D00001202D210423094DA847061C0848094D5A
:1023E000A8470948211CA8470D20084B9847201CE6
:1023F000074B9847301C06B070BDC046C11700009F
:10240000D8970000617A00008C990000957A00004E
:10241000E916000010B584B00023009301930293E5
:10242000012005210022024CA04704B010BDC04687
:10243000C1170000F0B55F4656464D464446F0B41D
:1024400083B0012001A9394B984780460024002819
:102450000BD0374837494B22374B98473748384BD2
:1024600098470D20374B98474CE0374B9B46374BEE
:102470009A462E4B99460221019B19430120D847C9
:10248000534618686946C8478046002806D1009B15
:10249000002B03D02E4D2F4F2C4E29E00E222B4B1C
:1024A0001A600E206946214B984780460028F1D0DB
:1024B0001F4820496122204B98472748204B9847C6
:1024C0000D20204B98471DE00120B8473068694631
:1024D000164B9847009B5B070AD415481549742290
:1024E000154B98471D48164B98470D20154B98479C
:1024F000009B5B0706D40134201C0321A847002958
:10250000E2D002E0434658B209E00221019B1943A0
:1025100001200D4B9847009B5B07ACD5F2E703B059
:102520003CBC90469946A246AB46F0BDC92A000085
:1025300000950000DC9A0000617A0000C899000054
:10254000817B0000957A0000D52A00001000002051
:10255000FD72000061120000E8990000089A000076
:1025600000B583B000230193012001A9064B9847D1
:1025700001998B0705D50223994301910120034B53
:10258000984703B000BDC046C92A0000D52A000004
:1025900038B50620DB210C4CA04707200621A047B8
:1025A0000A200A4DA847A42040010021A04708485E
:1025B0000021A0470A20A84706200021A0470720A5
:1025C0000021A04738BDC046D52A00006112000096
:1025D0008414000000B583B0164801A9164B984733
:1025E00000281ED180214900019B19430191114807
:1025F000124B9847002816D1D020400101A90E4B5C
:102600009847002811D180214902019B194301916B
:10261000D0204001094B98470023002806D0FA2318
:1026200004E0FA2302E0FA2300E0FA2358B203B0F0
:1026300000BDC04608140000C92A0000D52A0000C9
:1026400010B582B025480021254CA047254800211F
:10265000A04725480021A047244801A9244B9847BA
:1026600000280AD023482449CA22244B98472448EA
:10267000244B98470D20244B98470121019A114380
:1026800001911A48164CA04720480121A047041C7C
:10269000A020400101A9164B98472418E4B2019BE1
:1026A0005A0501D4E4B208E0194919400191A0206B
:1026B00040010B4B98472418E4B28021C900019BCC
:1026C00019430191A0204001054B98472418E4B21A
:1026D0000120104B984760B202B010BD0C000C00F6
:1026E000D52A00008C100000AC0702001811000071
:1026F000C92A000000950000BC990000617A000022
:102700002C9A0000817B0000957A000014001500CF
:10271000FFFBFFFF6112000000B583B0214B1B6877
:10272000002B3AD1802040011E491F4B98470028BA
:1027300003D000221B4B1A602DE01C4801A91A4B44
:102740009847002803D00022164B1A6023E0154B4F
:102750001B68174A934206D10199012912D0154AE4
:10276000104B1A600EE0144A93420BD1019B032BCD
:1027700008D0042B03D1114A0A4B1A6002E0104A18
:10278000084B1A60074B0F4A19680A40A021C9027A
:102790000A431A6001E0002001E0024B186803B010
:1027A00000BDC0464C080020C92A0000F4130000F8
:1027B000A0021000A1021000B0021000B10210002F
:1027C000B2021000FFFFF0FF08B5064B9847000566
:1027D000000D054B984203D904480549054B98471D
:1027E00008BDC04619270000AF020000481E0000C7
:1027F000CE6984B7D52A0000F8B5084C201C084BD8
:1028000098470126071CB743201C391C054DA847D3
:10281000391C3143201CA847F8BDC04628140000CD
:10282000BD2A0000D52A000010B5064C201C064B1E
:1028300098470423011C1943201C044B9847044B60
:10284000984710BD1C140000BD2A0000D52A0000C6
:10285000F927000010B5044B9847041E01D1034B23
:102860009847201C10BDC04635240000912500006B
:1028700010B5074B9847A02040010021054B984711
:10288000041C3220044B9847044B9847201C10BD71
:1028900029280000D52A000061120000C927000085
:1028A000F0B5474680B480461B4D1C4C1C4E281C7E
:1028B000A047002802DB0120B047F8E71948174B72
:1028C0009847C30719D508E00120B8471648B04714
:1028D000013C002C0ED0A842F6D14346022B03D176
:1028E00012481349134B98470F481349114B984707
:1028F000002000E0FB2040B20BE00120084B98478D
:102900000948064B9847FA24E4000C4D044F034E47
:10291000E1E704BC9046F0BD14100000BD2A0000A1
:1029200061120000BC0702000C000C00AC070200A2
:102930007DD51C3CD52A0000612F52EF9ED0AD10F2
:1029400070B582B0144B0193144B009302280CD144
:10295000134B0193134B009307E00220B0470198FB
:10296000A847013C002C04D111E00F4C00200F4E71
:102970000F4D009B8342F0D1009A0020074B9A42F2
:1029800006D1054800210B4B9847002000E0FB20B2
:1029900040B202B070BDC0468C1000003626530213
:1029A000AC070200C3C15DD7D1070000611200006F
:1029B000BD2A0000D52A0000F0B5474680B482B099
:1029C00000230193A020400101A9294B984700282A
:1029D0000AD028482849294A294B984729482A4B90
:1029E00098470D20294B98472949019A1140019198
:1029F000A0204001274B9847061C0A2400280CD031
:102A00001C481D49244A1E4B984724481E4B984792
:102A10000D201E4B9847301C25E0A0256D01144F5A
:102A20001C4B9846281C01A9B847061E0DD011481A
:102A300011498B229200124B98471948124B984724
:102A40000D20124B9847301C0DE0019B5A0509D50B
:102A50000F4919400191281CC047013CE4B2002CE9
:102A6000E0D100E0002040B202B004BC9046F0BDCE
:102A7000C92A000000950000B09900001F02000064
:102A8000617A0000549A0000817B0000957A000072
:102A9000FFFBFFFFD52A0000250200006C9A000012
:102AA000849A000008B5014B984708BD8D130000BB
:102AB00008B5014B984708BDC115000008B5014B8A
:102AC000984708BDE533000008B5014B984708BD9D
:102AD000F933000008B5014B984708BD11340000D8
:102AE000F8B55F4656464D464446F0B48B46161C34
:102AF000164B1B88083B9BB298461D1C9A4208D86F
:102B0000041C00275B46D919B2B2201C104B984711
:102B100014E0D61A041C00270B1A9A460C4B99464F
:102B200053461919201C4246C847002806D17F1970
:102B30006419731BAE42E5D91E1CF1E740B23CBCE0
:102B400090469946A246AB46F8BDC0460C00002010
:102B50004D350000F8B55F4656464D464446F0B444
:102B60008B46161C164B1B88083B9BB298461D1CB7
:102B70009A4208D8041C00275B46D919B2B2201C1F
:102B8000104B984714E0D61A041C00270B1A9A46DB
:102B90000C4B994653461919201C4246C847002839
:102BA00006D17F196419731BAE42E5D91E1CF1E7EB
:102BB00040B23CBC90469946A246AB46F8BDC046E2
:102BC0000C00002029360000F0B55F4656464D4601
:102BD0004446F0B48DB0002805D000780238434256
:102BE0005841451C00E0012500205A4B9847041E1F
:102BF0000BD059485949A422594B984759485A4B28
:102C000098470D20594B98479CE0594B9847041C16
:102C10000A20584B9847002C0BD04F484F49AF2201
:102C20004F4B98475448504B98470D204F4B98476F
:102C300086E052484A4CA047514B9847011C5148E6
:102C4000A0470D20494B98474F4B9847041E77D11A
:102C50004E4B98474E4B98474E4B9847041E6FD1AA
:102C6000281C4D4B9847041E6AD1281C4B4B984793
:102C7000041E65D1022D65D0494B9847041E0BD028
:102C800035483649DC22364B98474648364B9847FC
:102C90000D20364B984753E0A52040010021424BC0
:102CA0009847002189460391404803A9404B984723
:102CB000039F3B0C9A4699B28B46BBB21A0A00920C
:102CC0001B090F26334001932D4B98472B4B9846F9
:102CD000181C234DA8473B1C334036480099019AE5
:102CE000A8470D20214FB8474046A8475A46110A29
:102CF00012093240534633402F48A8470D20B847A9
:102D00004046A8472D48122103224B46A8470D20D4
:102D1000B84704AB009919706A46019951741A8832
:102D2000274B9A420ED00C480C49EC220C4B98478A
:102D300024480D4B98470D200C4B9847F32401E095
:102D4000214B984760B20DB03CBC90469946A246D4
:102D5000AB46F0BDA52A000000950000049C0000D1
:102D6000617A0000EC9A0000817B0000957A0000F7
:102D70005528000061120000189B0000D897000041
:102D800019270000089B000071280000293400006A
:102D90006125000041260000A12800004129000013
:102DA000D5250000389B0000D52A0000AC070200A2
:102DB000C92A0000589B0000749B0000909B0000F3
:102DC00012030000AC9B0000B12A000010B5134BA9
:102DD0009847041E0CD01248124981225200124B0F
:102DE00098471248124B98470D20124B984712E013
:102DF000114B9847041E0CD009480A4984225200FE
:102E0000094B98470D480A4B98470D20094B9847A6
:102E100001E00B4B984760B210BDC046B9290000D5
:102E200000950000109C0000617A0000C89B000023
:102E3000817B0000957A0000B12A0000E89B000029
:102E4000D533000000B585B001AB0022019202909D
:102E500019810320191C024B984705B000BDC046DC
:102E600085140000F0B583B0061ECF2E04D0031CDD
:102E70003B33DBB2012B07D8684607300121254BD5
:102E800098470023002841D10B246D460735214F78
:102E9000281C0121B84700280DD01F481F493C229B
:102EA000FF321F4B98471F481F4B98470D201F4B61
:102EB000984700232AE02B78B34204D10B246D46B7
:102EC0000735144E04E0013CE4B2002CE0D1F5E7F4
:102ED000281C0121B04700280DD00F480F494A2275
:102EE000FF320F4B98470F480F4B98470D200F4B61
:102EF000984700230AE02B78002B04D0013CE4B271
:102F0000002CE5D101E0012300E0012358B203B019
:102F1000F0BDC046452E00000095000054A1000001
:102F2000617A0000989C0000817B0000957A000087
:102F3000F0B55F4656464D464446F0B483B08246EF
:102F40000F1C934600229046404E80239B019F42D7
:102F500002D8BBB2994602E080239B0199460A241D
:102F60006D460335281C0121B04700280DD0384894
:102F700038496C22FF32384B98473848384B9847CD
:102F80000D20384B9847002057E02B781B090F2B5A
:102F900005D0013CA4B223B20133E3D102E024B254
:102FA000002C0EDC2A482B497822FF322A4CA047FD
:102FB0006B46D9782C48A0470D202A4B9847002013
:102FC0003BE04A4694B2434618B25044211C1F4A83
:102FD000904700280DD01E481E49C02252001E4BAB
:102FE000984722481E4B98470D201E4B98470020BB
:102FF00023E05B46002B17D11D4A1378002B13D119
:1030000001A80221114B984700280DD01048114902
:103010008C22FF32104B98471648114B98470D20D1
:10302000104B9847002008E04246A3189BB29846F0
:103030003F1BBFB2002F88D1012040B203B03CBC7F
:1030400090469946A246AB46F0BDC046452E0000CC
:10305000009500006CA20000617A0000CC9C00008A
:10306000817B0000957A0000009D0000309D0000EB
:1030700050080020609D000000B585B001AB0190B4
:103080000022029219810320191C024B984705B0B7
:1030900000BDC0468514000070B584B008AC25782A
:1030A00001AC20703F30C4B20E2C00D99CE0A000CF
:1030B000524C2058874601AB0A0C5A700A0A9A7083
:1030C000D970052193E00B0ADBB2002D02D101AAD1
:1030D000537004E080225242134301AA537001ABA3
:1030E00099700022DA70052181E001AB00225A704C
:1030F0009A70DA7005217AE001AB00225A709A705A
:10310000DA70052173E001ABFF225A709A70DA7011
:1031100005216CE001AA080C5070080A9070D1706B
:10312000190A11715371072161E001AA080C50704E
:10313000080A9070D170190C1171190A51719371AC
:10314000082154E00B0ADBB2002D02D101A8437024
:1031500004E080204042034301A8437001AB997012
:10316000110ED970110C1971110A59719A71082137
:103170003DE001AB080C5870080A9870D970110E28
:103180001971110C5971110A9971DA7109212EE026
:103190004E1E002E0DD001AB03226A4455187F222B
:1031A000174C187852004240A25C0133AB42F8D170
:1031B00000E07F22520001AB9A5501E00139C9B20B
:1031C00001A8104B9847012300280ED00E480F4944
:1031D0008E2252000E4B98470E480F4B98470D20F9
:1031E0000E4B9847002300E0002358B204E00C4B3C
:1031F0001B78002BCCD0E1E704B070BD209C000010
:103200006CA1000079300000009500003CA1000096
:10321000617A0000949D0000817B0000957A000097
:103220005008002070B582B0041C0A1C302802D857
:103230000123C32501E00023C9250093281C211C7C
:103240000423164EB04701280CD015481549164ADC
:10325000164DA8471648211CA8470D20154B984726
:10326000002318E0281C144B98470123012812D092
:103270000B480C49114A0D4DA8471148211CA8477D
:103280000D200C4B984700230093CF2000210022F3
:10329000024CA047002358B202B070BD9930000024
:1032A00000950000889C0000FF010000617A00008A
:1032B000C09D0000957A0000652E00000502000008
:1032C000EC9D0000F0B5474680B484B0041C8846ED
:1032D000FF2802D80126C42501E00026CA25009651
:1032E000281C211C002204232C4FB84701280CD095
:1032F0002B482C492C4A2D4DA8472D48211CA84766
:103300000D202C4B9847002042E0281C2A4B984760
:10331000012813D022482349284A244DA847284889
:10332000211CA8470D20234B984700230093CF2052
:1033300000210022194CA047002029E003A8042105
:10334000321C204B9847012813D0154815491E4AB6
:10335000164B98471D481E4B98470D20154B984714
:1033600000230093CF20002100220C4CA047002016
:103370000EE003AB597809029A78120411431A78C7
:103380001143DA7812060B1C1343424613600120E6
:1033900040B204B004BC9046F0BDC0469930000075
:1033A000009500005C9C000059020000617A00005A
:1033B000249E0000957A0000652E00005F02000048
:1033C000509E0000312F000067020000849E000024
:1033D000817B00000022024B1A7000207047C0461B
:1033E0005008002000B583B001A9024B984701980E
:1033F00003B000BDC532000008B5044B9847012852
:1034000001D1002000E0FA2040B208BDC532000022
:1034100008B5044B9847012801D1002000E0FA20AC
:1034200040B208BD2532000010B582B000230093E1
:10343000354A137035486946354B9847002820D1E6
:103440000122314B1A7033483349344A344B984780
:103450003448354B98470D20344B98472B486946E4
:103460002B4B9847041E0CD12A482B49B7229200B7
:103470002B4B98472E482C4B98470D202B4B9847A9
:103480003FE0214B1B78002B19D17C2300999943F5
:103490005023194300911D48264B9847041E0BD119
:1034A0001C481D49244A1E4B984724481E4B9847E8
:1034B0000D201E4B984724E00122134B1A708020E8
:1034C000400101A9124B984700280DD1114812491B
:1034D000BC229200124B98471948134B98470D2075
:1034E000124B9847FA240CE0084C201C154B9847C7
:1034F0007023011C994350231943201C124B9847F9
:10350000002460B202B010BD5008002024E8000082
:10351000C5320000009500006C9C0000D90200003C
:10352000617A0000A49E0000817B0000957A000073
:10353000F49E000025320000E6020000209F0000FB
:10354000549F0000E533000011340000F0B583B053
:10355000041C0F1C151C00230093C820211C0022F2
:103560002B1C254EB04701280CD024482449A22208
:103570009200244DA8472448211CA8470D20234B26
:10358000984735E0C820224B9847012812D01B48A5
:103590001B49204A1B4DA8471F48211CA8470D2046
:1035A0001A4B984700230093CF2000210022124C91
:1035B000A0471DE0381C291C0022184B9847002307
:1035C000012813D00D480E49A62292000D4B9847B2
:1035D0001348144B98470D200C4B98470023009339
:1035E000CF2000210022044CA04701E058B201E0A6
:1035F000FA23FBE703B0F0BD99300000009500000E
:1036000060A10000617A0000789F0000957A0000B8
:10361000652E00008E020000A89F0000312F0000E0
:10362000E09F0000817B0000F0B557464E464546BE
:10363000E0B484B0051C8846141C00230093C72006
:10364000291C0022231C554EB04701280BD054489A
:103650005449554A554CA0475548291CA0470D20B0
:10366000544B98478FE0C720534B9847012812D0FE
:103670004B484C49514A4D4CA0475148291CA04742
:103680000D204C4B984700230093CF2000210022AF
:10369000424CA04777E0002203AB1A800025802728
:1036A000BF01BA46474B9946261CBC4200D9564634
:1036B000B6B2002D04D10123BC4206D8032304E096
:1036C000A7429B415B420322D31A68460B3010226B
:1036D0005242134303700121C84700280CD03048E0
:1036E0003949DE225200314B98473848384B9847C9
:1036F0000D20304B984733E028B24044311C314B09
:10370000984700280CD026482F49C622FF32274B65
:10371000984730482E4B98470D20264B98471FE07E
:103720002D4B1B78002B12D103A80221254B984763
:1037300000280CD01A482449D022FF321B4B98474E
:103740002648234B98470D201A4B984708E07519D7
:10375000ADB2A41BA4B2002CA6D116E040B216E074
:103760000F4810491E4A114B98471E48184B98475E
:103770000D20104B984700230093CF2000210022FA
:10378000064CA04701E0FA20E8E70020E6E704B095
:103790001CBC90469946A246F0BDC0469930000038
:1037A0000095000044A1000023020000617A00009F
:1037B00008A00000957A0000652E00002902000094
:1037C00038A0000079300000789C000070A0000054
:1037D000817B0000A8A0000050080020DCA00000B1
:1037E0003A02000014A10000F0B55F4656464D466F
:1037F0004446F0B483B00E1C924698460CAB1D882C
:10380000002D59D04200121892002F4BD358002B94
:1038100052D0131C2C4AD3189B889BB2002B4BD040
:1038200043001B189B00D3189B79012B44D1F580D2
:1038300043001918890089469346CB444346804685
:1038400001935A469388EB1A1BB2002B06DD1E4FDC
:103850003B1C4B449C88A4B2002301E02C1C012398
:103860004846194FC1590198221C184FB8470028E3
:1038700019D1154B4846C3583360B480F3881B1BDD
:10388000F380134B1B68002B05D0114B1B6840467F
:103890005146321C98472D1BADB2019A1219019264
:1038A000002DCED108E00B480B4CA0470B48291C3B
:1038B000A0470D200A4B984703B03CBC9046994660
:1038C000A246AB46F0BDC046C4090020CD1C000096
:1038D000480A0020D8970000617A00007CA200000E
:1038E000957A0000F0B55F4656464D464446F0B422
:1038F0009BB00D1C141C41281AD1101C09A90422CC
:103900000023A14CA047002800D036E109AB5A782B
:1039100005AB1A709D4B1B68002B00D12DE19B4B12
:103920001B6809AA00201056012105AA984724E126
:1039300042281AD1101C09A904220023924CA04746
:10394000002800D019E109AB5A7805AB1A708F4BEB
:103950001B68002B00D110E18C4B1B6809AA0020CA
:103960001056022105AA984707E1432844D1101CAC
:1039700005A90C220023844CA047002800D0FCE0BD
:1039800005AB5A7A53B2002B1FDB5900C9188900C6
:103990007F4841180020C871012088717D4908883E
:1039A000013080B20880098889B2002904D17949A0
:1039B0000888013080B208807649098889B25800A9
:1039C000C3189B007248C318598109AB1A700222B0
:1039D0009A8005AA5188D980069A0B926B4B1B6876
:1039E000002B00D1C9E0694B1B6805AA08201056BE
:1039F000042109AA9847C0E0442801D04B281AD1D5
:103A0000201C09A9042200235F4CA047002800D0F5
:103A1000B3E009AA107805AB187052785A705B4B66
:103A20001B68002B00D1A8E0584B1B6840B2052151
:103A300005AA9847A1E04A2813D1101C09A94422DD
:103A40000023514CA047002800D096E01999524B12
:103A50001B68002B00D190E04F4B1B6809A89847CA
:103A60008BE0462806D0482807D04D2857D106209D
:103A7000804604E00621884601E009229046201C89
:103A800005A910220023404EB047002875D105AE8D
:103A9000337B0393F08984465FB23D4B7A00D119A2
:103AA00089005818002101723089814671898A463F
:103AB00009A970884881069E0C96D21992009B181D
:103AC0005A8992B2624521D149460BB2002B0CDDD6
:103AD000AB420ADA039A50B2514663184A46009242
:103AE00009A942462D4CA04747E009AB48469880BB
:103AF00000230993254B1B68002B3ED0234B1B68EA
:103B0000039948B2414609AA984736E0102D34D9A6
:103B100000200021002201231B4CA0472DE0452856
:103B200005D0472805D007254C2803D025E00725D8
:103B300000E00825201C09A908220023124CA047F8
:103B400000281AD109AB18789A88598805AB1980D2
:103B500043B25900CB189B000D49CB1808335B8842
:103B60009BB2934209D1094B1B68002B05D0074B30
:103B70001B6840B2291C05AA98471BB03CBC904664
:103B80009946A246AB46F0BDCD1C0000480A002075
:103B9000C4090020520800204C0A0020E937000028
:103BA00008B50A4B1B78002B0ED10948002184224E
:103BB000084B984702200849084B98470122034BBD
:103BC0001A700022064B1A8008BDC046510800201A
:103BD000C409002011160000E5380000F51D0000A2
:103BE0005208002008B5084800218422074B984756
:103BF00002200021064B98470023064A1360064A1C
:103C00001360064A137008BDC40900201116000095
:103C1000F51D0000480A00204C0A00205108002031
:103C2000024B1860024B19607047C046480A0020DA
:103C30004C0A002030B587B0FF24022847D1012963
:103C400047D00B240720022945D0FF243FE0011C68
:103C500043001B189B00EB189B79002B32D14B00C3
:103C60005B189B00224CE31801249C71214B1C889B
:103C70000134A4B21C801B889BB2002B04D11D4BC5
:103C80001C880134A4B21C801A4B1C88A4B24B00BF
:103C90005B189B00164DEB185C81C4B2D30716D598
:103CA00005AA14704B00591889006B180121D971AD
:103CB00000230093019302930220502104230E4D10
:103CC000A84704E00130C0B28442C0D8FF2460B2EB
:103CD0000BE007240020011C43001B189B00044D2F
:103CE000EB189B79002BBAD0ECE707B030BDC0468B
:103CF000C409002052080020C117000030B589B067
:103D0000041C002926D0002826DB43001B189B003A
:103D10001548C3189B79012B20D1002A20D005AD6E
:103D20002C72281C0822114B984763001C19A40010
:103D30000D4B1C1963896B8100230093019302933F
:103D4000022041212A1C0C23094CA047002808D03E
:103D5000F72006E0FA2004E0FA2002E0FA2000E072
:103D6000FA2040B209B030BDC4090020FD150000A2
:103D7000C117000070B588B0041E36DB002936D0AC
:103D800043001B189B001E48C3189B79012B30D1A0
:103D9000002A30D063001B199B00C318DB7944262E
:103DA000DA0707D563001B199B00C318DA7905AB46
:103DB0005A724B2605AD2C72281C0822114B9847CD
:103DC00063001C19A4000E4B1C1963896B8100232E
:103DD0000093019302930220311C2A1C0C230A4CED
:103DE000A047002808D0F72006E0FA2004E0FA20D7
:103DF00002E0FA2000E0FA2040B208B070BDC046F0
:103E0000C4090020FD150000C117000030B589B0BD
:103E10000C1C002836DB002936D0AF23DB009A4289
:103E200034D843001B189B001B49CB189B79012BEE
:103E30002ED104AB18705A80410009188900164D24
:103E400069180831498899814423062800DC5023E9
:103E500041000818800010490818C179C80701D42A
:103E6000452001E04C20552380210143009401921C
:103E70000293022004AA1023084CA047002808D06F
:103E8000074806E0074804E0064802E0054800E06D
:103E9000044800B209B030BDC4090020C1170000B9
:103EA000F2FF0000FAFF0000F0B5474680B488B08A
:103EB000041C8846171C0E9E00283BDB00293BD0C3
:103EC000AF23DB009A4239D843001B189B00204ADD
:103ED000D3189B79012B33D143001B189B00D318B7
:103EE0009B79002B2ED004AD281C00211022194BE9
:103EF00098472C706F8063001C19A400144B1C1988
:103F00006389AB81002E06D004AB32889A80728818
:103F1000DA8076680696424600920197442302931F
:103F20000220C72104AA10230B4CA04700280AD066
:103F30000A4808E00A4806E0094804E0084802E0A8
:103F4000074800E0064800B208B004BC9046F0BD47
:103F5000C409002011160000C1170000F2FF000084
:103F6000FAFF000070B586B000283BDB00293BD08B
:103F7000002A3BD044002418A4001F4D2C19A4791A
:103F8000012C35D12C1C45002E18B6003151A11939
:103F90008A80097A002200292BD1A21901211172ED
:103FA000D2794D21D40700D44621002B03D101231F
:103FB0005B42049300E0049304AA107143001818B4
:103FC00080000D4B18184389D38000230093019380
:103FD000029302200823094CA0470022002808D0A1
:103FE000074A06E0074A04E0064A02E0054A00E004
:103FF000044A10B206B070BDC4090020C117000009
:10400000F2FF0000FAFF000030B587B0041E2EDB7F
:1040100043001B189B00194AD3189B79012B28D108
:1040200005AA107043001B189B001449CB1858892F
:10403000508000229A715A81DB794E21DA0700D430
:1040400049210023009301930293022005AA04232F
:104050000B4DA847051E00D0F72560000019800011
:10406000064BC01800210C22064B984702E0FA25A7
:1040700000E0FA2568B207B030BDC046C409002090
:10408000C11700001116000070B586B0002840DB93
:10409000002940D0002A40D044002418A400224D1A
:1040A0002C19A479012C3AD144002418A4002C190D
:1040B000A5790024002D33D01B4C45002E18B600E6
:1040C0003151A1198A800A7A0024002A28D1164980
:1040D0008A1901211172002B03D101235B42049341
:1040E00000E0049304AA10714300181880000E4BDE
:1040F00018184389D3800023009301930293022070
:1041000048210823094CA0470024002808D0084C67
:1041100006E0084C04E0074C02E0064C00E0054CC9
:1041200020B206B070BDC046C4090020C11700000F
:10413000F2FF0000FAFF0000F0B583B00023019306
:1041400000240426002503780130311C2A1C2E2B64
:104150001FD0002B20D0303BDBB2092B15D89700A5
:10416000D2195200D218D2B203780139C9B2013043
:104170000029ECD10BE00134042CE4D101A86946FC
:104180000422084B9847019809E0002007E000202E
:1041900005E06B46E254EEE76B46E254EBE703B012
:1041A000F0BDC046FD15000010B584B0041C0D4BD9
:1041B0009847C3B2402B0ED8FF231840431C002160
:1041C0000091019102910220CA21221C064CA047B5
:1041D000002803D001E0FA2000E0F72040B204B04C
:1041E00010BDC04621160000C11700000C4B1B6813
:1041F000002B10D1EFF31083002B09D172B6BFF35F
:104200005F8F0022074B1A700122074B1A7002E0E1
:104210000022054B1A70024B1A6801321A6070476F
:10422000540800201400002058080020084B1A6889
:10423000013A1A601B68002B09D1064B1B78002B32
:1042400005D00122044B1A70BFF35F8F62B670472E
:10425000540800205808002014000020F0B583B056
:1042600001AC012565700027A77025703E20211C38
:10427000064EB0478022D205054B9A6127706570C3
:104280000F20211CB04703B0F0BDC046854400009C
:10429000804400411723002A0FD18B00084A9A5806
:1042A000002A04D1191C064BC850002305E01D2329
:1042B000121A501E824152421340181C7047C046C9
:1042C000540A00201723002907D100231F2800D8F3
:1042D000034B01228240DA600023181C7047C0465D
:1042E000001800401723002907D100231F2800D8F9
:1042F000034B012282409A600023181C7047C0467D
:104300000018004070B50022164B1A7000231F26BB
:10431000154D144C1F2B10D919E0144900E0002151
:104320000A619B005B59002B00D09847237801332A
:10433000DBB223700F2B14D8ECE7321C1A4001219A
:1043400091400A1C094909691142E6D1EEE7321C85
:104350001A40012191400A1C002109691142DED155
:10436000E4E770BD500A0020540A00200018004005
:10437000054B197802220A431A701A1C53785BB253
:10438000002BFBDB7047C0460018004000B583B02F
:10439000124B996940220A439A6101A900230B70CC
:1043A00005200F4B984705200E4B98470E4B197868
:1043B00001220A431A701A1C53785BB2002BFBDBF4
:1043C0000A4B191C4031002204C38B42FCD110223D
:1043D000074B1A60074B984703B000BD000400402C
:1043E000315A0000A559000000180040540A00206E
:1043F00000E100E0714300000023036043600122FC
:104400000272427283720223C3727047F0B583B0A6
:10441000051C0C1C01A900234B70CB7063680B704A
:10442000237A8B702078154B984700231F2D00D8D6
:10443000134B072129408900E07AA27A002A01D093
:1044400008221043EA0892009A18966988400F27BC
:104450008F40BE43311C01439161627A002A06D02D
:104460005A690121A9400D1C15435D6104E05A6998
:104470000121A9408A435A6103B0F0BD0D5B0000E1
:104480000018004000B583B001AB80221A700A7892
:104490005A704A789A708A78DA70191C014B9847DA
:1044A00003B000BD0D5B000010B5031C490840209F
:1044B00099420CD30024C91A601C80B28B4201D8E7
:1044C000041CF8E74020FF2C01D81480002010BD08
:1044D000F0B55F4656464D464446F0B487B0061CDC
:1044E0000D1C049210AA1078321C424340248A42C8
:1044F00000D9B3E0002B4BD10021321C5E4CA04709
:1045000083462E1C002700200021002200233F2488
:10451000A4460125A846029003916146203903D4A0
:1045200040468840814605E0202165464C1B4046B8
:10453000E040814641466446A1408A46101C191C51
:1045400080185941021C0B1C5D464C46254202D086
:10455000424602430B1C9F420CD801D1964209D817
:10456000921BBB415046029D28434946039C214370
:10457000029003916546013DAC46CED20298039964
:104580003C4B3B4A121A8B41120C1B041A4362E04B
:104590000022012B5FD14F0FB946CD00AB46002161
:1045A000321C0023344CA047061C0F1C002301259D
:1045B000029603979A465046C0B20590002188465D
:1045C000002200233F24271C203F03D42E1CBE4082
:1045D000019604E02020071B291CF94001912E1CA4
:1045E000A6400096101C191C80185941021C0B1C77
:1045F0005F463740BC46019E4F463E4067463E43BD
:1046000002D02A1C02430B1C039898420BD802D1FB
:104610000299914207D8029E039F921BBB414746D5
:1046200000980743B846013CCDD2414652468B1A0A
:10463000DB08124CA34208D9059A0132D2B2059286
:104640000126B2445746082FB5D1402405980828C2
:1046500004D042031A43049C22800024201C07B08B
:104660003CBC90469946A246AB46F0BDC046C0460B
:104670000000000001000000D5730000FF1F0000D3
:1046800010B582B0041C0F4B1B78002B01D0002901
:104690000DD001A90C7013200B4B984713200B4B26
:1046A0009847084B5C7001221A70002007E0054B08
:1046B0005A781D20141B621E94416442204002B0AF
:1046C00010BDC0465C080020315A0000A55900000A
:1046D000444B984233D006D8434B98420DD0434BBD
:1046E00098421BD06FE0424B98424AD0414B9842CF
:1046F00058D0414B984266D132E0012965D000295B
:1047000004D0022906D0032906D001E03B4867E027
:10471000002065E03A4863E03A4861E0012956D05C
:10472000002904D0022906D0032906D001E0032085
:1047300056E0002054E0344852E0344850E001296B
:1047400047D0002904D0022906D0032906D001E071
:104750002F4845E0002043E02E4841E02E483FE04E
:10476000012938D0002904D0022906D0032906D017
:1047700001E02A4834E0002032E0294830E02948AE
:104780002EE0012929D0002904D0022906D00329CE
:1047900006D001E0244823E0002021E023481FE068
:1047A00023481DE001291AD0002904D0022906D08F
:1047B000032906D001E01F4812E0002010E01E4847
:1047C0000EE01E480CE000200AE01D4808E01D48ED
:1047D00006E01D4804E01D4802E01D4800E01D48B9
:1047E0007047C0460010004200080042000C004222
:1047F00000180042001C00420014004203000400A4
:10480000030006000300070003001E0003001F0052
:104810000300080003000A0003000B00030010005F
:10482000030012000300130003000C0003000E003D
:1048300003000F0003001600030018000300190016
:10484000030005000300010003000900030011003C
:1048500003000D000300170070B586B00C4A6B46CC
:1048600070CA70C332CA32C3009E864206D001238A
:104870009A0069465258824203D100E00023D8B220
:1048800003E00133062BF3D1002006B070BDC04613
:10489000D8A200007047C046F0B50A4B1B78002B29
:1048A0000CD1094F094E0A4D0024DE515A191460EB
:1048B0000433182BF9D10122024B1A708000024BED
:1048C000C150F0BD60080020640800209548000039
:1048D000940A002010B582B0041C684605490622DF
:1048E000054B9847201C054B98476B46185602B05D
:1048F00010BDC046F0A20000B57400005948000089
:1049000008B5024B1B680020984708BD64080020CA
:1049100008B5024B5B680120984708BD6408002079
:1049200008B5024B9B680220984708BD6408002028
:1049300008B5024BDB680320984708BD64080020D7
:1049400008B5024B1B690420984708BD6408002085
:1049500008B5024B5B690520984708BD6408002034
:10496000F0B5474680B488B0051C0C1C161C2960A5
:104970000B681C209A0700D5C1E00B680520DA07F8
:1049800000D5BCE0081C604B9847604B196A821C3C
:10499000012797403A1C0A431A6207A92427F35DAE
:1049A0000B701430C0B28046594B98474046594B63
:1049B0009847F05D0021584B98473378012B00D081
:1049C0009AE022680C231343236095E0EA18D16033
:1049D00004331C2BFAD10023EB62AB620024AB86BC
:1049E0002B863623EC543723EC543823EC54032322
:1049F0006B722C712868444B9847071C4749484BF9
:104A00009847BF00474BFD502F6802AB80221A70B9
:104A10005C7001229A70DC703378002B02D1002286
:104A200002AB9A70B36A0393F06A0490326B0592FA
:104A3000736B06930024E1B2A30003AA98580028E0
:104A400002D1381C384A9047431C06D06A4610727F
:104A5000000CC0B202A9354B98470134042CEAD1AE
:104A600033786B71337CAB71B37CEB71337D2B721C
:104A700000226B46DA803378012B14D12868224B50
:104A800098471430C0B22A4B9847011CB0696A4657
:104A90000632284B9847031C1720002B2FD16B465A
:104AA00006331B783B73B26870680243F3681A439D
:104AB000337C717C002903D11F498978880701D58F
:104AC00080210A43B17C002902D0802189020B4356
:104AD000F17C002902D0802189000B43317D00291F
:104AE00002D0802189010B4339680A433A607A6811
:104AF00013437B60002002E00023002166E708B03A
:104B000004BC9046F0BDC046594800000004004077
:104B1000315A0000A559000081460000294C0000D0
:104B200099480000940A0020D14600000D5B000067
:104B30004D5A0000A94400000020004110B54479FE
:104B40001523012C6CD1047A0023002C68D1002A93
:104B500057D04B78002B44D00268137EDC070FD46B
:104B60000B78D9090022002903D15A09D2012D4915
:104B700052181F210B4001219940916105234FE0FC
:104B80000B78DC090022002C03D15A09D201254CF4
:104B900012191F24234001249C4054618978036822
:104BA0001A7ED40700D59962C2790023002A37D132
:104BB00002680421137E0B42FCD0117E00234C07B7
:104BC0002ED5538B590703D5518B04230B435383A5
:104BD0008379012B02D1936A002321E0936A002399
:104BE0001EE00B78D9090022002903D15A09D2010D
:104BF0000C4C12191F210B400121994051610023D7
:104C00000EE00B78D9090022002903D15A09D201FC
:104C1000044952181F210B40012199409161002342
:104C2000181C10BD00440041F8B58000674BC45803
:104C300025683623E35C3722A25C171C1F402B7EBD
:104C4000AE7D1E40F1073BD56379012B38D1637AE5
:104C5000002B0FD15E4B1B88AB62638E013B9BB276
:104C60006386638E9BB2002B01D101232B75637980
:104C7000012B25D1637A002B22D02268E36A1978B0
:104C8000C9B2581CE062A079012804D1587800020A
:104C900001430233E362CB05DB0D9362A38E013B3C
:104CA0009BB2A386A38E9BB2002B09D101232B7547
:104CB000637A012B04D1E379002B01D10223AB7578
:104CC000720761D56B8B590714D5637A012B0BD012
:104CD0001E223823E2540323637205232B753A07FF
:104CE00002D5201CA3699847AB6A6A8B042313433F
:104CF0006B8349E0637A012B16D123689B6A638E2C
:104D0000013B9BB26386638E9BB2002B3CD1042394
:104D10002B7500223823E25403236372F90733D53D
:104D2000201CE26890472FE023689A6AD205D20DD2
:104D3000D3B2A16A0B70A36A591CA162A17901299F
:104D400004D1120A5A70A36A0133A362238E013B75
:104D50009BB22386238E9BB2002B15D100223823D1
:104D6000E25404232B75637A022B05D17A070BD505
:104D7000201C6369984707E0637A002B04D1B907C8
:104D800002D5201C22699047B30714D56379012B03
:104D900011D1637A012B0ED1E379002B0BD10223C1
:104DA0002B750323637200223823E254F90702D5DE
:104DB000201CE2689047F60907D080232B752B76DC
:104DC0007B0602D5636A201C9847F8BD940A002030
:104DD000AC0A0020F0B55F4656464D464446F0B456
:104DE00091B0051C0C1C161C2960081CAD4B984783
:104DF000021C23680520D90700D54BE123681C203D
:104E00009F0700D546E1A84B186A911C01278F40E7
:104E1000391C014319620FA92D27F35D0B70143261
:104E2000D2B29046101CA14B98474046A04B9847E1
:104E3000F05D00219F4B9847F37A6B712423F35C5C
:104E4000AB712523F35CEB71F37E2B72337F6B72B6
:104E500029688846081C934B9847143000226B46FB
:104E6000DA84328A02928023DB019A4221D08023A5
:104E7000DB019A4204D880239B019A4211D008E0BA
:104E8000C023DB01029F9F420FD080231B029F4261
:104E900003D01027069700270EE003270697002768
:104EA0000AE010270697012706E008270697012742
:104EB00002E008270697002731680391F2689146BF
:104EC00073690493317E8A462623F35C9B4673689C
:104ED000002B13D08022520593422ED12723F35C5E
:104EE000002B2ED1376AC0B2734B9847011C381C77
:104EF0006A462632714B9847031C1FE02723F35C58
:104F0000002B0AD0069A0092306AB16A6A462632AD
:104F10003B1C6B4FB847031C10E0316A0791C0B2CD
:104F2000654B9847011C069A009207986A462632FC
:104F30003B1C634FB847031C00E00023181E00D041
:104F4000A8E0737E002B02D0B37E41468B732A68A3
:104F5000029FD369002BFCD102976B4626331B8836
:104F6000424693814B46039F3B43049F3B437168FA
:104F70000B43029F1F43524613021F4359464B07E0
:104F80001F432723F35C002B01D104231F43717EB1
:104F90008902337F5B021943F27AB37A13431943D0
:104FA000737F1B0219432423F35C5B0419432523FD
:104FB000F35C1B0419433389FF2B0BD0F27E002ACC
:104FC00003D0A022D204174302E0802252041743E8
:104FD000194305E0F37E002B02D08023DB041F433E
:104FE0002C23F35C002B03D1364B9B789A0701D519
:104FF00080231F432A68D369002BFCD143465960A4
:105000002A68D369002BFCD141460F600EAB802289
:105010001A7000225A70DA709A70326B0A92736BAF
:105020000B93B76B0C97F66B0D9600270EAEF9B28B
:10503000BB000AAA9858002802D1201C224A904797
:10504000431C05D03070000CC0B2311C1F4A904781
:105050000137042FEBD10023EB602B616B61AB6157
:10506000EB612B62AB626B620022EB85AB85302378
:10507000EA543123EA543223EA543323EA542868A9
:10508000084B9847041C1249124B9847A400124B36
:10509000E550002011B03CBC90469946A246AB4674
:1050A000F0BDC0465948000000040040315A0000DD
:1050B000A5590000814600004D5A0000A944000097
:1050C000D144000000200041D14600000D5B0000EB
:1050D0009951000099480000940A002010B5021C64
:1050E0000368C4791C20002C0DD0D28D92B205200B
:1050F000002A08D1DA69002AFCD1198502211A7E1A
:105100000A42FCD0002010BD10B5031C046882794F
:105110001C20002A33D09B8D9BB20520002B2ED162
:10512000237E5A072BD5E369002BFCD1638BDBB2BE
:105130009A0621D09A0703D5022363831A201EE022
:105140005A0703D5042363831E2018E0DA0703D52A
:1051500001236383132012E0DA0605D5628B102346
:105160001343638342200AE09A0605D5628B20230D
:1051700013436383412002E0238D0B80002010BD88
:10518000931C9B00C3185960012393401A1C3023C1
:10519000C15C0A43C2547047F8B58000644BC558DF
:1051A0002C68E369002BFCD1237EA67D1E403123B1
:1051B000EB5C3022AF5C1F40F10720D5EB8D9BB23A
:1051C000002B1AD0AB6A1A78D2B2591CA96269793D
:1051D000012904D1597809020A430233AB62D3058D
:1051E000DB0D2385EB8D013B9BB2EB85002B06D1BC
:1051F000012323750223A37501E001232375B20760
:1052000009D50223237500223323EA54FB0702D574
:10521000281CE968884772076AD5AB8D9BB2002BC2
:1052200064D0638BDBB2190702D43F22134001E044
:1052300037221340002B37D09A0707D51A22322382
:10524000EA54628B02231343638327E0590707D58F
:105250001E223223EA54628B0423134363831DE02E
:10526000DA0707D513223223EA54628B0123134352
:10527000638313E0D90607D542223223EA54628BB6
:1052800010231343638309E020221A4206D04122EF
:105290003223EA54628B2023134363837A0727D592
:1052A000281C6B69984723E0228DD205D20DD3B21A
:1052B000696A0B706B6A591C69626979012904D1AA
:1052C000120A5A706B6A01336B62AB8D013B9BB261
:1052D000AB85002B0CD10423237500223223EA5422
:1052E000BA0705D5281C2B69984701E004232375CC
:1052F000F10607D5102323752376FA0602D5281C5C
:10530000EB699847B10607D52023237523763A0722
:1053100002D5281CAB699847310707D508232375A8
:105320002376BA0602D52B6A281C9847F8BDC046DA
:10533000940A002008B5082834D880001B4B1B585D
:105340009F468020000230E0194B18692DE0194B70
:10535000186A8005800F184BC340181C25E0144BB9
:10536000586922E0124B1B68022018401DD01149D9
:105370001022CB681A42FCD00D4B1B685A0713D57C
:1053800000200E4B98470A4B9B681B041B0C58438C
:105390000BE05023074AD35C00205A0705D5044B85
:1053A000D86802E0002000E0054808BDF8A200002F
:1053B0007C0800200008004000127A004D5A0000CE
:1053C000006CDC0270B50C4B1C6A01788578407863
:1053D0000122104080014026B44304432A40D001FA
:1053E00080229443221C0243032001400902034807
:1053F00002400A431A6270BD00080040FFFCFFFF34
:10540000F0B54F464646C0B4194A946941788C4677
:1054100005780679C7784379994680780123184042
:10542000800004218C43044360461840C0000821DA
:105430008C430443181C384080014027BC4304437C
:10544000181C3040C0018026B44304430720284084
:105450000002084D2C40044349460B4019030648FE
:10546000231C03400B4393610CBC90469946F0BD4E
:1054700000080040FFF8FFFFFFEFFFFFF0B55F46B9
:1054800056464D464446F0B4254A948A45780378FA
:10549000594259418A4683789C46C17888460379A7
:1054A0009946467B077B817B8B4680681D4B586104
:1054B00001235146880004218C4304434846184088
:1054C000C00008218C4304434046184000011021CD
:1054D0008C43044360461840400120218C43044320
:1054E000181C384080014027BC430443181C30403E
:1054F000C0018026B44304430720284000020A4D1F
:105500002C40044359460B4019030848231C034010
:105510000B4393823CBC90469946A246AB46F0BDF5
:10552000000800407C080020FFF8FFFFFFEFFFFFAE
:1055300010B5027A9206120C43899B059B0D1A4303
:10554000154B5A60818842881143C479827922437D
:105550000A434178C9010A431A600378042B0FD12A
:10556000027B9206038A1A43C3891B040B490B4032
:105570001A43094B9A60196804220A431A6009E029
:10558000202B07D1028A044B9A6019688422D2002A
:105590000A431A6010BDC0467C0800200000FF03CB
:1055A000082843D88000224B1B589F4600203EE02D
:1055B000204B196A02220A431A62002037E01D4B71
:1055C000996902220A439A61002030E0194B198A36
:1055D00002220A431A82002029E0164B998A0222ED
:1055E0000A439A82002022E0134B196802220A43E0
:1055F0001A601A68114B1A400E4B9A84191C10221B
:10560000CB681A42FCD00C4A91680A4BD9625168A7
:105610009962126892B29A84002008E0054A4423F5
:10562000D05C02210143D154002000E017207047D4
:105630001CA30000000800407C0800207FFF000041
:10564000F0B54F464646C0B491B0C222D2005B4B83
:105650009A605B4B5A681E218A4304210A435A60B0
:10566000032201AB1A700024564DE0B201A9A847ED
:105670000134252CF9D10CA80023037083708022FB
:1056800012028260C37001220271037383730322CA
:10569000427043734C4B984705204C4B9847474901
:1056A0000222CB681A42FCD0444B998A80220A43DA
:1056B0009A82474D2A68D104490E09049869454ADF
:1056C00002400A439A610AA80123437083700024B0
:1056D000C47003710723037044713F4B9847042043
:1056E0003A4B984705AB00225C809C809A71DA7136
:1056F0003F215981042119705A702B689B0E3F2B52
:1057000000D11F2305A80372344B038207230373C0
:105710003F23C381324B984704A8002545700126DA
:10572000867005702F4B98470620284FB8472E4BA0
:10573000984701AC02966570257265720523237047
:105740000120211C294B994698470120284A904660
:10575000904765702572657204232370202363606F
:105760000220211CC8470220C04726700020211CAF
:10577000144B984700201F4B98470720B8470F4904
:10578000D022CB681340D02BFBD11B4A00231372CD
:1057900053729372D37201A901224A604B700B724B
:1057A0004B7207230B700020104B98470020104BC2
:1057B000984711B00CBC90469946F0BD00080040D7
:1057C00000400041315A00007D540000A155000006
:1057D00024608000FFFF80FF01540000B905000035
:1057E00031550000C5530000FD570000215800004E
:1057F000D5580000A559000000040040064B9969E7
:1058000008220A439A610122044B1A70191C0B7872
:105810001342FCD17047C04600040040000C004019
:10582000F8B5061C071C0D782D0205434B78002B9C
:1058300002D08023DB021D434B7A002B02D0802351
:105840001B031D434C68012C17D9631E1C420FD14A
:10585000022C06D90223002201325B009C42FBD8B5
:1058600000E000221702374380235B031D4304E05E
:105870002702374380239B021D430B7A002B02D063
:1058800080239B031D430F4A53785BB2002BFBDB45
:105890000D4B98470D4B1E700A4A53785BB2002B94
:1058A000FBDB084B9F601A1C53785BB2002BFBDBC1
:1058B000044B5968802252020A4015435D60044B34
:1058C0009847F8BD000C0040ED410000080C004076
:1058D0002D42000010B5041C0B4A53785BB2002B1C
:1058E000FBDB0A4B98470A4B1C70074A53785BB2A4
:1058F000002BFBDB044B5968802252020A435A609A
:10590000044B984710BDC046000C0040ED4100001C
:10591000040C00402D42000070B5041C1A4A537854
:105920005BB2002BFBDB194B9847194B1C70164AD6
:1059300053785BB2002BFBDB134E7068C004C00EC3
:10594000144B9847051C124B1C707668F602F60F34
:10595000114B1C700C4A53785BB2002BFBDB0A4BDB
:105960009C68240AA4B20D4B9847002E07D1012C45
:1059700007D9281C211C0A4B9847051C01E001345B
:10598000E540281C70BDC046000C0040ED41000001
:10599000040C004035530000080C00402D4200006C
:1059A0007572000010B5041C064B9847064B1C701E
:1059B000064B59888022D2010A435A80044B9847EB
:1059C00010BDC046ED410000020C0040000C00403C
:1059D0002D42000010B5041C0F4B98470F4B1C7054
:1059E0000F4B58880005000F59880E4A0A405A800C
:1059F00059880D4A0A405A80191C8022D2014B88CE
:105A00001342FCD1064B01025888064A02400A4361
:105A10005A80064B984710BDED410000020C004033
:105A2000000C0040FFF0FFFFFFBFFFFF2D42000012
:105A300010B50C7824020443024B9847A4B2024BE1
:105A40005C8010BDD5590000000C004010B5041C4E
:105A5000064B9847064B1C70064B5C882405240FA8
:105A6000054B9847201C054B984710BDED410000A1
:105A7000020C0040000C00402D42000019590000AB
:105A800030B5D378002B1ED11378802B04D01B06A1
:105A900080246402234300E0002354780225AC43B1
:105AA0000AD19478002C03D18024A402234302E07D
:105AB000C024E402234341605478013C012C04D803
:105AC000114C234001E0416000230D042D0CA02463
:105AD000E4052C431C4384620D0CD02424062C4383
