S025000057494E43313530305F54494D455F434C49454E545F4558414D504C45312E73726563C0
S113000040280020F5450000F1450000F1450000BE
S113001000000000000000000000000000000000DC
S1130020000000000000000000000000F145000096
S11300300000000000000000F1450000F145000050
S1130040F1450000F1450000F1450000F1450000D4
S1130050812E0000F1450000F1450000F14500004B
S1130060F14500008134000091340000A134000007
S1130070B1340000C1340000D1340000F145000067
S1130080F1450000F1450000F1450000F145000094
S1130090F14500000000000000000000F1450000F0
S11300A0F1450000F1450000F1450000F145000074
S11300B010B5064C2378002B07D1054B002B02D03A
S11300C0044800E000BF0123237010BD7800002025
S11300D0000000003C6F000008B5084B002B03D063
S11300E00748084900E000BF07480368002B03D015
S11300F0064B002B00D0984708BDC0460000000006
S11301003C6F00007C0000203C6F000000000000F9
S113011010B50020084B9847084CFA218900A047E5
S1130120074B1860FA218900A047064B1860052286
S1130130054B1A6010BDC046A9430000054C0000E1
S1130140040000200000002010E000E030B5084B5F
S11301501C68084A00258021490206E0002C04D0CE
S11301605460956013680B42FCD00138F6D230BD60
S11301700400002010E000E008B5034B1B68002BCE
S113018000D0984708BDC0469400002038B5002828
S113019006D0041C034D0120A847013C002CFAD1D1
S11301A038BDC0464D010000F8B5084C80277F05D6
S11301B067618026360566616420054DA847A761FE
S11301C00A20A847A6616420A847F8BD004400415E
S11301D08D01000070B582B00023134A136001AC96
S11301E001256570A37025701B20211C0F4EB0479C
S11301F01C20211CB0472820211CB0470C4B1B6835
S11302001D4203D00A4B1B689A0701D4094B984737
S1130210094B98470122094B1A70BFF35F8F62B6EE
S1130220002002B070BDC0469400002001300000E0
S113023010E000E011010000A901000010000020FE
S113024010B584B00E4B186001AC201C0D4B9847C0
S11302502923019300236360012323720223E372A1
S11302600920211C084B9847084809210022084B03
S1130270984709200021074B984704B010BDC04699
S113028094000020752F0000892F000079010000E0
S1130290112E0000412E000008B5002804D00920CA
S11302A00021044B984703E009200021024B9847A2
S11302B008BDC046412E0000612E000030B591B04B
S11302C02E4C0E23237000236370A37001A9012216
S11302D04A708B700A700E20294B98472378D909ED
S11302E00022002903D15A09D201264812181F21DD
S11302F00B400121081C9840906102AA1170002350
S113030053609360C0208003D0601374537491745D
S1130310D17413752421535409930A931A4B93628D
S11303201A4BD36201235B421363194B5363194B7A
S11303309361194819491A4B984700281AD1164D48
S11303402C68201C174B98471F2318400123834017
S1130350181C154B18602A68D369002BFCD122683D
S1130360022313432360114B98470120104B9847F5
S1130370002000E0FA2040B211B030BD0007002098
S1130380013000000044004102000C0002000D0096
S113039002000F00001BB7000407002000100042F9
S11303A0E13400005534000000E100E0A901000040
S11303B08D010000F0B55F4656464D464446F0B404
S11303C087B003286CD10E684D680F8900226B46F4
S11303D0DA751733002E05D0002D5FD10124029564
S11303E01D1C04E00024012002906E461736374895
S11303F037490122374B9847002F42D0334B9A4656
S11304000121042200208446042399461E208046AC
S1130410634263410393347850460368187E08426C
S1130420FCD0187E0842FCD09C62187E1042FCD09E
S1130430264884790195187E1042FCD05D8B604675
S1130440154205D0588B4D46284380B25883404608
S1130450012C04D19D6AED05ED0DAB4602E09D6AC9
S1130460EDB2AB460028E6D1019D58462870013F05
S1130470BFB2039BED18029C63426341F618002F40
S1130480C9D1124B196802220B7E1342FCD00F48CB
S11304900F4900220F4B984700200EE0FA200CE091
S11304A00D480E49862252000D4B98470D480E4BBD
S11304B098470D200D4B9847FF2040B207B03CBC35
S11304C090469946A246AB46F0BDC04604070020BC
S11304D000070020BD360000E45D0000D45D00008C
S11304E0594D0000F85D0000794E00008D4D00006C
S11304F038B50B4D2C68201C0A4B98471F23184015
S113050001238340181C8023074AD0502A68D369EA
S1130510002BFCD12368022293432360002038BDC2
S1130520040700205534000000E100E0002A06D052
S113053082180B780370013001319042F9D1704771
S1130540002A04D08218017001309042FBD1704718
S1130550031C0278002A07D00020013080B2013346
S11305601A78002AF9D100E000207047024B1A786B
S11305700132D2B21A7070479C0000207047C04606
S113058000B583B00120094B9847094801A9094BDC
S11305909847002806D10221019B19430191044880
S11305A0054B984740B203B000BDC0469902000015
S11305B070100000C9180000D518000008B5104BD1
S11305C01B78002B13D10F4B1B78032B04D00D4B3E
S11305D01B780020042B0BD10B4B984700280CD11F
S11305E00A480B490B4B9847002801D005E000202E
S11305F0034B1A780132D2B21A7040B208BDC04619
S1130600B4000020A4000020351200007410000083
S113061078560000D518000000B583B0174B1B783E
S1130620002B04D0154B1A78013AD2B21A70134B2E
S11306301B780020002B1ED1114B1B78032B03D0F9
S11306400F4B1B78042B16D1002301930D480E4940
S11306500E4B984700280ED1012001A90C4B984756
S1130660002808D101998B0705D5022399430191EC
S11306700120064B984740B203B000BDB4000020EF
S1130680A40000207410000021430000D5180000CD
S1130690C9180000F0B557464E464546E0B486B04A
S11306A082460D1C914698460EAB04CB1E8810ABB7
S11306B01F887F230B4005AC637020700823638080
S11306C0002A05D062889219BA1892B2628004E0B6
S11306D005AB5A88424492B25A80554B9847041E3F
S11306E000D08BE0002303936A46D3800293029BDD
S11306F0524613430293029B2D021D43029505AB00
S11307005B88029A1B0413430293029949484A4B9B
S11307109847041E00D083E000230293029A022328
S11307201343029302994548434B9847041E77D1DB
S1130730002203926B46DA80DA8892B2404B9A42E6
S11307401DD83E4B9A463F4D504602A9A847002863
S113075015D1029B9A0708D43B4803A9394B984703
S113076000280CD00023039309E06C46E38801338E
S11307709BB2E380E28892B2314B9A42E4D9039B64
S1130780002B4CD0039B049305A94B889BB24B8050
S1130790049808222D4B9847041E41D1049B08332A
S11307A004934B46002B09D0049849464246274BF4
S11307B09847041E34D1049B434404930E9A002AA0
S11307C00ED0049B4246BF1AFF18049704980E9952
S11307D0321C1E4B9847041E22D1049BF618049623
S11307E0039B9B000293029A0223134302930299F0
S11307F01748114B9847041E12D10CE015481649AE
S11308009622FF32154B98471548164B98470D20F2
S1130810154B984704E0154B9847041C00E0FD2451
S113082060B206B01CBC90469946A246F0BDC046D4
S1130830BD0500008C100000D518000078100000E1
S1130840E7030000C9180000000415005519000052
S11308506C100000E45D00001C5E0000594D0000B7
S1130860405E0000794E00008D4D00001906000026
S1130870F0B55F4656464D46E0B486B0A44A92466B
S11308809146A44E37E14A461378013BDBB213701C
S1130890A14FB047041E00D010E1A04803A9A04B0B
S11308A09847041E00D0FCE0039BDB0700D4ECE077
S11308B000209C4B9847994803A9994B9847041EDC
S11308C000D00CE101230399994303919348964B7B
S11308D09847041E00D002E1904803A9904B984722
S11308E0041E0FD08C489149E0225200904B984747
S11308F09048914B98470D20904B98470120894B85
S11309009847ECE000228E4B1A70039A93041B0D57
S11309109B4600D1ACE0002305938A4805A9804B8F
S11309209847041E0FD07C488049E7225200804B30
S113093098478548804B98470D20804B9847012065
S1130940784B9847C9E004AD0598291C04227F4BD5
S11309509847041C6B889BB26B8000280FD06E48AC
S11309607249EB225200724B98477948724B984770
S11309700D20724B984701206A4B9847ADE004ABB9
S11309805B889BB29B451DD004AB5B885A46D31A47
S1130990042B17DD60486549E022FF32644CA04710
S11309A004A94A8892B20B78DBB24978009169486D
S11309B05946A0470D20614B98470120594B984751
S11309C0FA248AE004AB1B78012B0DD1624B1B681F
S11309D0002B3BD004AA5078C0B25188083989B2A0
S11309E0059A0832984731E004AB1B78022B0DD1ED
S11309F05A4B1C68002C29D004AB5878C0B25988D3
S1130A00083989B2059A0832A0471FE004AB1B7865
S1130A10042B0DD1524B1B68002B17D004AA50781D
S1130A20C0B25188083989B2059A083298470DE056
S1130A3039483E49FC2252003D4B984749483E4BB9
S1130A4098470D203D4B9847FA2446E03C4B1B78D1
S1130A50002B3FD130483549434A354B98474348EA
S1130A60354B98470D20354B9847414B984731E01B
S1130A7029482E493F4A2E4B98473F482E4B9847CA
S1130A800D202E4B9847FE2429E0234827493B4A52
S1130A90274CA0473A480399A0470D20274B984775
S1130AA018E01D48214985229200214B984735487A
S1130AB0214B98470D20214B984710E0381C1B49C7
S1130AC0314A1B4B984731481B4B98470D201B4B11
S1130AD0984704E02E4B9847041C002C0BD00E487A
S1130AE02C492D4A124DA84761B22C48A8470D2025
S1130AF0124B9847CDE652461378002B00D0C2E63D
S1130B00002006B01CBC91469A46A346F0BDC046E0
S1130B109C000020BD050000E45D00007010000092
S1130B20C918000099020000D5180000385E0000C2
S1130B30594D00005C5E0000794E00008D4D0000B0
S1130B40AC00002084100000805E0000E11800006A
S1130B50A45E0000BC5E000098000020A8000020F5
S1130B60B0000020FC5E0000FF010000145F0000E4
S1130B708105000007020000385F00000E0200003B
S1130B804C5F0000685F00001A0200008C5F0000E8
S1130B90190600000C5E000039020000AC5F000082
S1130BA0F0B54F464646C0B483B0051C0F1C161C56
S1130BB09846002803D0002901D0002A14D14346C6
S1130BC0002B04D001222F4B1A702F4B98472F482B
S1130BD02F49304A304B98473048314B98470D20C5
S1130BE0304B9847F42446E02F4869462F4A9047F3
S1130BF0041E40D1009B99462D4801A92B4B9847D0
S1130C00041E38D1281C391C321C2A4B9847041E58
S1130C1031D14B469F043F0DBE420DD91B481C49A0
S1130C20254A1D4CA0472548311C3A1CA0470D20DD
S1130C301C4B9847F4241EE0019B9D4203D3AD193D
S1130C40FF18BD420CD9114811491D4A124B98474F
S1130C501C48134B98470D20124B9847F4240AE084
S1130C60BD4202D04346002B05D00122054B1A7029
S1130C70054B9847041C60B203B00CBC90469946DF
S1130C80F0BDC046AC00002081050000E45D00001A
S1130C90906000005E020000594D0000DC5F00001F
S1130CA0794E00008D4D000070100000C91800003E
S1130CB084100000E118000071020000FC5F0000D5
S1130CC0770200004060000038B5041E022C09D0F1
S1130CD0022802D8012809D014E003280ED00428E1
S1130CE008D00FE00E4B1960002017E00D4B19607F
S1130CF0002013E00C4B196000200FE00B4B19602F
S1130D0000200BE00A480B490B4A0C4DA8470C483D
S1130D10211CA8470D200B4B9847F42040B238BD46
S1130D20A800002098000020B0000020A0000020AF
S1130D30E45D0000285E0000A6020000594D00009A
S1130D40846000008D4D000008B50023094A13603B
S1130D50094A1360094A1370094A1370094A137047
S1130D6009480A4B9847032009490A4B9847002031
S1130D7008BDC04698000020A8000020B400002050
S1130D80A40000209C0000206D050000410200002A
S1130D907D050000C90C000030B59FB0041C151C73
S1130DA02C2811D1101C03A9042200237C4CA04739
S1130DB0002800D0F1E07B4B1B68002B00D1ECE055
S1130DC02C2003A99847E8E0062811D1101C03A998
S1130DD030220123724CA047002800D0DDE0714B83
S1130DE01B68002B00D1D8E0062003A99847D4E063
S1130DF00E2800D1D1E0362811D1101C03A91022ED
S1130E000023674CA047002800D0C6E0654B1B6850
S1130E10002B00D1C1E0362003A99847BDE0332858
S1130E2016D103A8002164225F4B9847281C03A90C
S1130E30642200235A4CA047002800D0ADE0594B4F
S1130E401B68002B00D1A8E0332003A99847A4E035
S1130E50382823D1101C03A904220023504CA04796
S1130E60002800D099E05148514CA0470398FF2333
S1130E70191C0140020A1A40050C2B40000E009078
S1130E804C48A0470D204C4B9847464B1B68002B01
S1130E9000D182E03820002198477EE0112816D145
S1130EA00022464B1A70281C03A9042200233C4C40
S1130EB0A047002871D103AB1A78414B1A70394B03
S1130EC01B68002B69D0112003A9984765E01328FB
S1130ED00FD1101C03A92C220023314CA047002859
S1130EE05BD1304B1B68002B57D0132003A99847C4
S1130EF053E004280FD1101C1CA904220023284C01
S1130F00A047002849D1274B1B68002B45D004205B
S1130F101CA9984741E015280FD1101C1CA90422D4
S1130F2000231F4CA047002837D11E4B1B68002B01
S1130F3033D015201CA998472FE009280FD1101C85
S1130F4003A964220123164CA047002825D1154B80
S1130F501B68002B21D0092003A998471DE02A28EB
S1130F600FD1101C03A9042201230D4CA047002813
S1130F7013D10C4B1B68002B0FD02A2003A99847D0
S1130F800BE01048104988225200094DA8470F4829
S1130F90211CA8470D20084B98471FB030BDC04600
S1130FA0A10B0000B800002041050000A86000006B
S1130FB0594D0000B46000008D4D0000BC000020BD
S1130FC0BD000020E45D00009C600000D4600000CF
S1130FD010B502680C4B1A6000220C4B1A700020EA
S1130FE00B4B9847041E0CD100200A4B9847041E53
S1130FF004D101200849094B984702E00020084B1E
S1131000984760B210BDC046B8000020BC00002064
S1131010C9190000490D0000990D0000C90C000019
S1131020CD1B000008B5014B984708BD71080000AE
S1131030F0B557464E464546E0B4A0B081460F1C75
S1131040141C1E1C28AB1B88984629AB1B789A4697
S1131050012A19D0002E09D0301C604B9847002873
S113106004D0301C5D4B984740280DD95C485D493D
S1131070D92252005C4B98475C485D4B98470D2041
S11310805C4B9847F420A1E07B1E1F2B0DD95448DC
S11310905449BA22FF32544B98475748544B984707
S11310A00D20544B9847F42090E041460D290FD968
S11310B0FF290DD04A484B49E12252004A4B984738
S11310C04E484B4B98470D204A4B9847F4207DE0FF
S11310D005AD68465A3049463A1C494B9847EF19C2
S11310E040370023BB7144234246EA525246531E02
S11310F09A416723EA544123EC54032C38D13378C2
S1131100013BDBB205AA1370032B0ED934483549D1
S1131110DA22FF32344CA04705AB19783948A0478E
S11311200D20344B9847F42050E07278511E05ABE3
S113113059701023111C99430B290ED028482949B2
S1131140F0225200284CA04705AB59782E48A047FE
S11311500D20284B9847F42038E0B11C684616301F
S1131160274B9847737805AAD31800229A7023E076
S1131170022C09D1301C194B9847421CD2B205A845
S1131180311C1F4B984717E0042C05D105A8311CCE
S11311903E221B4B98470FE0012C0DD010481149FB
S11311A0FA22FF32104B98471848114B98470D20EC
S11311B0104B9847F42009E0002300930193029315
S11311C00120282105AA6C23114CA04740B220B06D
S11311D01CBC90469946A246F0BDC046510500008D
S11311E0E45D000080620000594D00008061000051
S11311F0794E00008D4D000090610000A461000054
S11312002D050000B0610000CC610000E861000021
S11312109506000010B582B004AC24880094002424
S11312200194024CA04702B010BDC046311000002A
S113123000207047F0B55F4656464D464446F0B42C
S113124083B0012001A9394B984780460024002827
S11312500BD0374837494B22374B98473748384BE0
S113126098470D20374B98474CE0374B9B46374BFC
S11312709A462E4B99460221019B19430120D847D7
S1131280534618686946C8478046002806D1009B23
S1131290002B03D02E4D2F4F2C4E29E00E222B4B2A
S11312A01A600E206946214B984780460028F1D0E9
S11312B01F4820496122204B98472748204B9847D4
S11312C00D20204B98471DE00120B847306869463F
S11312D0164B9847009B5B070AD41548154974229E
S11312E0154B98471D48164B98470D20154B9847AA
S11312F0009B5B0706D40134201C0321A847002966
S1131300E2D002E0434658B209E00221019B1943AE
S113131001200D4B9847009B5B07ACD5F2E703B067
S11313203CBC90469946A246AB46F0BDC9180000A5
S1131330E45D0000C0630000594D0000AC62000091
S1131340794E00008D4D0000D51800000C000020DF
S11313508D4C00008D010000CC620000EC620000A6
S113136000B583B000230193012001A9064B9847DF
S113137001998B0705D50223994301910120034B61
S1131380984703B000BDC046C9180000D518000036
S113139038B50620DB210C4CA04707200621A047C6
S11313A00A200A4DA847A42040010021A04708486C
S11313B00021A0470A20A84706200021A0470720B3
S11313C00021A04738BDC046D51800008D0100009B
S11313D08414000000B583B0164801A9164B984741
S11313E000281ED180214900019B19430191114815
S11313F0124B9847002816D1D020400101A90E4B6A
S11314009847002811D180214902019B1943019179
S1131410D0204001094B98470023002806D0FA2326
S113142004E0FA2302E0FA2300E0FA2358B203B0FE
S113143000BDC04608140000C9180000D5180000FB
S113144010B582B025480021254CA047254800212D
S1131450A04725480021A047244801A9244B9847C8
S113146000280AD023482449CA22244B98472448F8
S1131470244B98470D20244B98470121019A11438E
S113148001911A48164CA04720480121A047041C8A
S1131490A020400101A9164B98472418E4B2019BEF
S11314A05A0501D4E4B208E0194919400191A02079
S11314B040010B4B98472418E4B28021C900019BDA
S11314C019430191A0204001054B98472418E4B228
S11314D00120104B984760B202B010BD0C000C0004
S11314E0D51800008C100000AC0702001811000091
S11314F0C9180000E45D000094620000594D00002A
S113150010630000794E00008D4D0000140015009A
S1131510FFFBFFFF8D01000000B583B0214B1B686A
S1131520002B3AD1802040011E491F4B98470028C8
S113153003D000221B4B1A602DE01C4801A91A4B52
S11315409847002803D00022164B1A6023E0154B5D
S11315501B68174A934206D10199012912D0154AF2
S1131560104B1A600EE0144A93420BD1019B032BDB
S113157008D0042B03D1114A0A4B1A6002E0104A26
S1131580084B1A60074B0F4A19680A40A021C90288
S11315900A431A6001E0002001E0024B186803B01E
S11315A000BDC046C0000020C9180000F4130000AC
S11315B0A0021000A1021000B0021000B10210003D
S11315C0B2021000FFFFF0FF08B5064B9847000574
S11315D0000D054B984203D904480549054B98472B
S11315E008BDC04619150000AF020000481E0000E7
S11315F0CE6984B7D5180000F8B5084C201C084BF8
S113160098470126071CB743201C391C054DA847E1
S1131610391C3143201CA847F8BDC04628140000DB
S1131620BD180000D518000010B5064C201C064B50
S113163098470423011C1943201C044B9847044B6E
S1131640984710BD1C140000BD180000D5180000F8
S1131650F915000010B5044B9847041E01D1034B43
S11316609847201C10BDC04635120000911300009D
S113167010B5074B9847A02040010021054B98471F
S1131680041C3220044B9847044B9847201C10BD7F
S113169029160000D51800008D010000C9150000AE
S11316A0F0B5474680B480461B4D1C4C1C4E281C8C
S11316B0A047002802DB0120B047F8E71948174B80
S11316C09847C30719D508E00120B8471648B04722
S11316D0013C002C0ED0A842F6D14346022B03D184
S11316E012481349134B98470F481349114B984715
S11316F0002000E0FB2040B20BE00120084B98479B
S11317000948064B9847FA24E4000C4D044F034E55
S1131710E1E704BC9046F0BD14100000BD180000C1
S11317208D010000BC0702000C000C00AC07020095
S11317307DD51C3CD5180000612F52EF9ED0AD1012
S113174070B582B0144B0193144B009302280CD152
S1131750134B0193134B009307E00220B047019809
S1131760A847013C002C04D111E00F4C00200F4E7F
S11317700F4D009B8342F0D1009A0020074B9A4200
S113178006D1054800210B4B9847002000E0FB20C0
S113179040B202B070BDC0468C1000003626530221
S11317A0AC070200C3C15DD7D10700008D01000062
S11317B0BD180000D5180000F0B5474680B482B0CB
S11317C000230193A020400101A9294B9847002838
S11317D00AD028482849294A294B984729482A4B9E
S11317E098470D20294B98472949019A11400191A6
S11317F0A0204001274B9847061C0A2400280CD03F
S11318001C481D49244A1E4B984724481E4B9847A0
S11318100D201E4B9847301C25E0A0256D01144F68
S11318201C4B9846281C01A9B847061E0DD0114828
S113183011498B229200124B98471948124B984732
S11318400D20124B9847301C0DE0019B5A0509D519
S11318500F4919400191281CC047013CE4B2002CF7
S1131860E0D100E0002040B202B004BC9046F0BDDC
S1131870C9180000E45D0000A06200001F0200001F
S1131880594D000038630000794E00008D4D000072
S1131890FFFBFFFFD5180000250200005063000085
S11318A06863000008B5014B984708BDBD020000FD
S11318B008B5014B984708BDF104000008B5014B79
S11318C0984708BDE521000008B5014B984708BDBD
S11318D0F921000008B5014B984708BD112200000A
S11318E0F8B55F4656464D464446F0B48B46161C42
S11318F0164B1B88083B9BB298461D1C9A4208D87D
S1131900041C00275B46D919B2B2201C104B98471F
S113191014E0D61A041C00270B1A9A460C4B99465D
S113192053461919201C4246C847002806D17F197E
S11319306419731BAE42E5D91E1CF1E740B23CBCEE
S113194090469946A246AB46F8BDC0460800002022
S11319504D230000F8B55F4656464D464446F0B464
S11319608B46161C164B1B88083B9BB298461D1CC5
S11319709A4208D8041C00275B46D919B2B2201C2D
S1131980104B984714E0D61A041C00270B1A9A46E9
S11319900C4B994653461919201C4246C847002847
S11319A006D17F196419731BAE42E5D91E1CF1E7F9
S11319B040B23CBC90469946A246AB46F8BDC046F0
S11319C00800002029240000F0B55F4656464D4625
S11319D04446F0B48DB0002805D000780238434264
S11319E05841451C00E0012500205A4B9847041E2D
S11319F00BD059485949A422594B984759485A4B36
S1131A0098470D20594B98479CE0594B9847041C24
S1131A100A20584B9847002C0BD04F484F49AF220F
S1131A204F4B98475448504B98470D204F4B98477D
S1131A3086E052484A4CA047514B9847011C5148F4
S1131A40A0470D20494B98474F4B9847041E77D128
S1131A504E4B98474E4B98474E4B9847041E6FD1B8
S1131A60281C4D4B9847041E6AD1281C4B4B9847A1
S1131A70041E65D1022D65D0494B9847041E0BD036
S1131A8035483649DC22364B98474648364B98470A
S1131A900D20364B984753E0A52040010021424BCE
S1131AA09847002189460391404803A9404B984731
S1131AB0039F3B0C9A4699B28B46BBB21A0A00921A
S1131AC01B090F26334001932D4B98472B4B984607
S1131AD0181C234DA8473B1C334036480099019AF3
S1131AE0A8470D20214FB8474046A8475A46110A37
S1131AF012093240534633402F48A8470D20B847B7
S1131B004046A8472D48122103224B46A8470D20E2
S1131B10B84704AB009919706A46019951741A8840
S1131B20274B9A420ED00C480C49EC220C4B984798
S1131B3024480D4B98470D200C4B9847F32401E0A3
S1131B40214B984760B20DB03CBC90469946A246E2
S1131B50AB46F0BDA5180000E45D0000E864000099
S1131B60594D0000D0630000794E00008D4D0000F7
S1131B70551600008D010000FC630000A860000001
S1131B8019150000EC630000711600002922000002
S1131B906113000041140000A11600004117000069
S1131BA0D51300001C640000D5180000AC07020027
S1131BB0C91800003C64000058640000746400000C
S1131BC01203000090640000B118000010B5134B1C
S1131BD09847041E0CD01248124981225200124B1D
S1131BE098471248124B98470D20124B984712E021
S1131BF0114B9847041E0CD009480A49842252000C
S1131C00094B98470D480A4B98470D20094B9847B4
S1131C1001E00B4B984760B210BDC046B9170000F5
S1131C20E45D0000F4640000594D0000AC64000061
S1131C30794E00008D4D0000B1180000CC64000006
S1131C40D521000000B585B001AB002201920290BD
S1131C5019810320191C024B984705B000BDC046EA
S1131C60B5030000F0B583B0061ECF2E04D0031CCC
S1131C703B33DBB2012B07D8684607300121254BE3
S1131C8098470023002841D10B246D460735214F86
S1131C90281C0121B84700280DD01F481F493C22A9
S1131CA0FF321F4B98471F481F4B98470D201F4B6F
S1131CB0984700232AE02B78B34204D10B246D46C5
S1131CC00735144E04E0013CE4B2002CE0D1F5E702
S1131CD0281C0121B04700280DD00F480F494A2283
S1131CE0FF320F4B98470F480F4B98470D200F4B6F
S1131CF0984700230AE02B78002B04D0013CE4B27F
S1131D00002CE5D101E0012300E0012358B203B027
S1131D10F0BDC046451C0000E45D0000286A0000D8
S1131D20594D000084650000794E00008D4D00007F
S1131D30F0B55F4656464D464446F0B483B08246FD
S1131D400F1C934600229046404E80239B019F42E5
S1131D5002D8BBB2994602E080239B0199460A242B
S1131D606D460335281C0121B04700280DD03848A2
S1131D7038496C22FF32384B98473848384B9847DB
S1131D800D20384B9847002057E02B781B090F2B68
S1131D9005D0013CA4B223B20133E3D102E024B262
S1131DA0002C0EDC2A482B497822FF322A4CA0470B
S1131DB06B46D9782C48A0470D202A4B9847002021
S1131DC03BE04A4694B2434618B25044211C1F4A91
S1131DD0904700280DD01E481E49C02252001E4BB9
S1131DE0984722481E4B98470D201E4B98470020C9
S1131DF023E05B46002B17D11D4A1378002B13D127
S1131E0001A80221114B984700280DD01048114910
S1131E108C22FF32104B98471648114B98470D20DF
S1131E20104B9847002008E04246A3189BB29846FE
S1131E303F1BBFB2002F88D1012040B203B03CBC8D
S1131E4090469946A246AB46F0BDC046451C0000EC
S1131E50E45D0000506B0000594D0000B8650000BF
S1131E60794E00008D4D0000EC6500001C660000FA
S1131E70C40000204C66000000B585B001AB0190A1
S1131E800022029219810320191C024B984705B0C5
S1131E9000BDC046B503000070B584B008AC257819
S1131EA001AC20703F30C4B20E2C00D99CE0A000DD
S1131EB0524C2058874601AB0A0C5A700A0A9A7091
S1131EC0D970052193E00B0ADBB2002D02D101AADF
S1131ED0537004E080225242134301AA537001ABB1
S1131EE099700022DA70052181E001AB00225A705A
S1131EF09A70DA7005217AE001AB00225A709A7068
S1131F00DA70052173E001ABFF225A709A70DA701F
S1131F1005216CE001AA080C5070080A9070D17079
S1131F20190A11715371072161E001AA080C50705C
S1131F30080A9070D170190C1171190A51719371BA
S1131F40082154E00B0ADBB2002D02D101A8437032
S1131F5004E080204042034301A8437001AB997020
S1131F60110ED970110C1971110A59719A71082145
S1131F703DE001AB080C5870080A9870D970110E36
S1131F801971110C5971110A9971DA7109212EE034
S1131F904E1E002E0DD001AB03226A4455187F2239
S1131FA0174C187852004240A25C0133AB42F8D17E
S1131FB000E07F22520001AB9A5501E00139C9B219
S1131FC001A8104B9847012300280ED00E480F4952
S1131FD08E2252000E4B98470E480F4B98470D2007
S1131FE00E4B9847002300E0002358B204E00C4B4A
S1131FF01B78002BCCD0E1E704B070BD0465000071
S1132000506A0000791E0000E45D00007C65000059
S1132010594D000080660000794E00008D4D00008F
S1132020C400002070B582B0041C0A1C302802D8F9
S11320300123C32501E00023C9250093281C211C8A
S11320400423164EB04701280CD015481549164AEA
S1132050164DA8471648211CA8470D20154B984734
S1132060002318E0281C144B98470123012812D0A0
S11320700B480C49114A0D4DA8471148211CA8478B
S11320800D200C4B984700230093CF200021002201
S1132090024CA047002358B202B070BD991E000044
S11320A0E45D00005C650000FF010000594D000084
S11320B0AC6600008D4D0000651C000005020000A8
S11320C0D8660000F0B5474680B484B0041C884646
S11320D0FF2802D80126C42501E00026CA2500965F
S11320E0281C211C002204232C4FB84701280CD0A3
S11320F02B482C492C4A2D4DA8472D48211CA84774
S11321000D202C4B9847002042E0281C2A4B98476E
S1132110012813D022482349284A244DA847284897
S1132120211CA8470D20234B984700230093CF2060
S113213000210022194CA047002029E003A8042113
S1132140321C204B9847012813D0154815491E4AC4
S1132150164B98471D481E4B98470D20154B984722
S113216000230093CF20002100220C4CA047002024
S11321700EE003AB597809029A78120411431A78D5
S11321801143DA7812060B1C1343424613600120F4
S113219040B204B004BC9046F0BDC046991E000095
S11321A0E45D0000346A000059020000594D00004B
S11321B0106700008D4D0000651C00005F020000E8
S11321C03C670000311D00006702000070670000DA
S11321D0794E00000022024B1A7000207047C0465E
S11321E0C400002000B583B001A9024B98470198B0
S11321F003B000BDC520000008B5044B9847012872
S113220001D1002000E0FA2040B208BDC520000042
S113221008B5044B9847012801D1002000E0FA20BA
S113222040B208BD2520000010B582B00023009301
S1132230354A137035486946354B9847002820D1F4
S11322400122314B1A7033483349344A344B98478E
S11322503448354B98470D20344B98472B486946F2
S11322602B4B9847041E0CD12A482B49B7229200C5
S11322702B4B98472E482C4B98470D202B4B9847B7
S11322803FE0214B1B78002B19D17C230099994303
S11322905023194300911D48264B9847041E0BD127
S11322A01C481D49244A1E4B984724481E4B9847F6
S11322B00D201E4B984724E00122134B1A708020F6
S11322C0400101A9124B984700280DD11148124929
S11322D0BC229200124B98471948134B98470D2083
S11322E0124B9847FA240CE0084C201C154B9847D5
S11322F07023011C994350231943201C124B984707
S1132300002460B202B010BDC400002024E8000024
S1132310C5200000E45D000050650000D902000003
S1132320594D000090670000794E00008D4D00006B
S1132330E067000025200000E60200000C680000B1
S113234040680000E521000011220000F0B583B0D0
S1132350041C0F1C151C00230093C820211C002200
S11323602B1C254EB04701280CD024482449A22216
S11323709200244DA8472448211CA8470D20234B34
S1132380984735E0C820224B9847012812D01B48B3
S11323901B49204A1B4DA8471F48211CA8470D2054
S11323A01A4B984700230093CF2000210022124C9F
S11323B0A0471DE0381C291C0022184B9847002315
S11323C0012813D00D480E49A62292000D4B9847C0
S11323D01348144B98470D200C4B98470023009347
S11323E0CF2000210022044CA04701E058B201E0B4
S11323F0FA23FBE703B0F0BD991E0000E45D000082
S1132400446A0000594D0000646800008D4D0000CE
S1132410651C00008E02000094680000311D00005D
S1132420CC680000794E0000F0B557464E4645464C
S1132430E0B484B0051C8846141C00230093C72014
S1132440291C0022231C554EB04701280BD05448A8
S11324505449554A554CA0475548291CA0470D20BE
S1132460544B98478FE0C720534B9847012812D00C
S11324704B484C49514A4D4CA0475148291CA04750
S11324800D204C4B984700230093CF2000210022BD
S1132490424CA04777E0002203AB1A800025802736
S11324A0BF01BA46474B9946261CBC4200D9564642
S11324B0B6B2002D04D10123BC4206D8032304E0A4
S11324C0A7429B415B420322D31A68460B30102279
S11324D05242134303700121C84700280CD03048EE
S11324E03949DE225200314B98473848384B9847D7
S11324F00D20304B984733E028B24044311C314B17
S1132500984700280CD026482F49C622FF32274B73
S1132510984730482E4B98470D20264B98471FE08C
S11325202D4B1B78002B12D103A80221254B984771
S113253000280CD01A482449D022FF321B4B98475C
S11325402648234B98470D201A4B984708E07519E5
S1132550ADB2A41BA4B2002CA6D116E040B216E082
S11325600F4810491E4A114B98471E48184B98476C
S11325700D20104B984700230093CF200021002208
S1132580064CA04701E0FA20E8E70020E6E704B0A3
S11325901CBC90469946A246F0BDC046991E000058
S11325A0E45D00006C65000023020000594D00004A
S11325B0F46800008D4D0000651C00002902000035
S11325C024690000791E0000406500005C69000079
S11325D0794E000094690000C4000020C86900001E
S11325E03A020000006A0000F0B55F4656464D46C8
S11325F04446F0B483B00E1C924698460CAB1D883A
S1132600002D59D04200121892002F4BD358002BA2
S113261052D0131C2C4AD3189B889BB2002B4BD04E
S113262043001B189B00D3189B79012B44D1F580E0
S113263043001918890089469346CB444346804693
S113264001935A469388EB1A1BB2002B06DD1E4FEA
S11326503B1C4B449C88A4B2002301E02C1C0123A6
S11326604846194FC1590198221C184FB8470028F1
S113267019D1154B4846C3583360B480F3881B1BEB
S1132680F380134B1B68002B05D0114B1B6840468D
S11326905146321C98472D1BADB2019A1219019272
S11326A0002DCED108E00B480B4CA0470B48291C49
S11326B0A0470D200A4B984703B03CBC904699466E
S11326C0A246AB46F0BDC04644070020A10B000063
S11326D0C8070020A8600000594D0000606B00008E
S11326E08D4D0000F0B55F4656464D464446F0B465
S11326F09BB00D1C141C41281AD1101C09A90422DA
S11327000023A14CA047002800D036E109AB5A7839
S113271005AB1A709D4B1B68002B00D12DE19B4B20
S11327201B6809AA00201056012105AA984724E134
S113273042281AD1101C09A904220023924CA04754
S1132740002800D019E109AB5A7805AB1A708F4BF9
S11327501B68002B00D110E18C4B1B6809AA0020D8
S11327601056022105AA984707E1432844D1101CBA
S113277005A90C220023844CA047002800D0FCE0CB
S113278005AB5A7A53B2002B1FDB5900C9188900D4
S11327907F4841180020C871012088717D4908884C
S11327A0013080B20880098889B2002904D17949AE
S11327B00888013080B208807649098889B25800B7
S11327C0C3189B007248C318598109AB1A700222BE
S11327D09A8005AA5188D980069A0B926B4B1B6884
S11327E0002B00D1C9E0694B1B6805AA08201056CC
S11327F0042109AA9847C0E0442801D04B281AD1E3
S1132800201C09A9042200235F4CA047002800D003
S1132810B3E009AA107805AB187052785A705B4B74
S11328201B68002B00D1A8E0584B1B6840B205215F
S113283005AA9847A1E04A2813D1101C09A94422EB
S11328400023514CA047002800D096E01999524B20
S11328501B68002B00D190E04F4B1B6809A89847D8
S11328608BE0462806D0482807D04D2857D10620AB
S1132870804604E00621884601E009229046201C97
S113288005A910220023404EB047002875D105AE9B
S1132890337B0393F08984465FB23D4B7A00D119B0
S11328A089005818002101723089814671898A464D
S11328B009A970884881069E0C96D21992009B182B
S11328C05A8992B2624521D149460BB2002B0CDDE4
S11328D0AB420ADA039A50B2514663184A46009250
S11328E009A942462D4CA04747E009AB48469880C9
S11328F000230993254B1B68002B3ED0234B1B68F8
S1132900039948B2414609AA984736E0102D34D9B4
S113291000200021002201231B4CA0472DE0452864
S113292005D0472805D007254C2803D025E00725E6
S113293000E00825201C09A908220023124CA04706
S113294000281AD109AB18789A88598805AB1980E0
S113295043B25900CB189B000D49CB1808335B8850
S11329609BB2934209D1094B1B68002B05D0074B3E
S11329701B6840B2291C05AA98471BB03CBC904672
S11329809946A246AB46F0BDA10B0000C807002043
S113299044070020C6000020CC070020E9250000E1
S11329A008B50A4B1B78002B0ED10948002184225C
S11329B0084B984702200849084B98470122034BCB
S11329C01A700022064B1A8008BDC046C5000020BC
S11329D04407002041050000E5260000C90C000062
S11329E0C6000020024B1860024B19607047C046B5
S11329F0C8070020CC07002030B587B0FF24022888
S1132A0047D1012947D00B240720022945D0FF24B0
S1132A103FE0011C43001B189B00EB189B79002B23
S1132A2032D14B005B189B00224CE31801249C71AB
S1132A30214B1C880134A4B21C801B889BB2002B40
S1132A4004D11D4B1C880134A4B21C801A4B1C8871
S1132A50A4B24B005B189B00164DEB185C81C4B20A
S1132A60D30716D505AA14704B00591889006B18A2
S1132A700121D97100230093019302930220502174
S1132A8004230E4DA84704E00130C0B28442C0D8EC
S1132A90FF2460B20BE007240020011C43001B1834
S1132AA09B00044DEB189B79002BBAD0ECE707B0E0
S1132AB030BDC04644070020C60000209506000033
S1132AC030B589B0041C002926D0002826DB430039
S1132AD01B189B001548C3189B79012B20D1002A91
S1132AE020D005AD2C72281C0822114B9847630096
S1132AF01C19A4000D4B1C1963896B8100230093DE
S1132B0001930293022041212A1C0C23094CA04763
S1132B10002808D0F72006E0FA2004E0FA2002E0BA
S1132B20FA2000E0FA2040B209B030BD440700208A
S1132B302D05000095060000F0B5474680B488B026
S1132B40041C8846171C0E9E00283BDB00293BD042
S1132B50AF23DB009A4239D843001B189B00204A5C
S1132B60D3189B79012B33D143001B189B00D31836
S1132B709B79002B2ED004AD281C00211022194B68
S1132B8098472C706F8063001C19A400144B1C1907
S1132B906389AB81002E06D004AB32889A80728898
S1132BA0DA8076680696424600920197442302939F
S1132BB00220C72104AA10230B4CA04700280AD0E6
S1132BC00A4808E00A4806E0094804E0084802E028
S1132BD0074800E0064800B208B004BC9046F0BDC7
S1132BE0440700204105000095060000F2FF0000A4
S1132BF0FAFF000030B587B0041E2EDB43001B181B
S1132C009B00194AD3189B79012B28D105AA10706F
S1132C1043001B189B001449CB185889508000228C
S1132C209A715A81DB794E21DA0700D449210023B5
S1132C30009301930293022005AA04230B4DA84795
S1132C40051E00D0F725600000198000064BC0184F
S1132C5000210C22064B984702E0FA2500E0FA25F1
S1132C6068B207B030BDC046440700209506000096
S1132C704105000070B586B0002840DB002940D033
S1132C80002A40D044002418A400224D2C19A47911
S1132C90012C3AD144002418A4002C19A57900244D
S1132CA0002D33D01B4C45002E18B6003151A1190C
S1132CB08A800A7A0024002A28D116498A19012117
S1132CC01172002B03D101235B42049300E00493AF
S1132CD004AA10714300181880000E4B1818438979
S1132CE0D3800023009301930293022048210823F8
S1132CF0094CA0470024002808D0084C06E0084CE2
S1132D0004E0074C02E0064C00E0054C20B206B09B
S1132D1070BDC0464407002095060000F2FF000085
S1132D20FAFF000010B584B0041C0D4B9847C3B2E1
S1132D30402B0ED8FF231840431C00210091019121
S1132D4002910220CA21221C064CA047002803D06D
S1132D5001E0FA2000E0F72040B204B010BDC04604
S1132D6051050000950600000C4B1B68002B10D188
S1132D70EFF31083002B09D172B6BFF35F8F0022EB
S1132D80074B1A700122074B1A7002E00022054B10
S1132D901A70024B1A6801321A607047C80000208A
S1132DA010000020CC000020084B1A68013A1A6079
S1132DB01B68002B09D1064B1B78002B05D0012280
S1132DC0044B1A70BFF35F8F62B67047C8000020CF
S1132DD0CC00002010000020F0B583B001AC012528
S1132DE065700027A77025701720211C064EB04778
S1132DF080221204054B9A61277065703720211CCC
S1132E00B04703B0F0BDC0460130000000440041AB
S1132E101723002A0FD18B00084A9A58002A04D19C
S1132E20191C064BC850002305E01D23121A501E1E
S1132E30824152421340181C7047C046D4070020F8
S1132E401723002907D100231F2800D8034B012290
S1132E508240DA600023181C7047C0460018004006
S1132E601723002907D100231F2800D8034B012270
S1132E7082409A600023181C7047C0460018004026
S1132E8070B50022164B1A7000231F26154D144CE2
S1132E901F2B10D919E0144900E000210A619B009E
S1132EA05B59002B00D0984723780133DBB22370A1
S1132EB00F2B14D8ECE7321C1A40012191400A1C54
S1132EC0094909691142E6D1EEE7321C1A40012191
S1132ED091400A1C002109691142DED1E4E770BD6A
S1132EE0D0070020D407002000180040054B1978B3
S1132EF002220A431A701A1C53785BB2002BFBDBC4
S1132F007047C0460018004000B583B0124B996961
S1132F1040220A439A6101A900230B7005200F4B3C
S1132F20984705200E4B98470E4B197801220A4307
S1132F301A701A1C53785BB2002BFBDB0A4B191C6A
S1132F404031002204C38B42FCD11022074B1A608B
S1132F50074B984703B000BD00040040C144000083
S1132F603544000000180040D407002000E100E0D0
S1132F70ED2E0000002303604360012202724272BE
S1132F8083720223C3727047F0B583B0051C0C1C16
S1132F9001A900234B70CB7063680B70237A8B708C
S1132FA02078154B984700231F2D00D8134B072179
S1132FB029408900E07AA27A002A01D0082210432D
S1132FC0EA0892009A18966988400F278F40BE43FA
S1132FD0311C01439161627A002A06D05A690121A9
S1132FE0A9400D1C15435D6104E05A690121A94003
S1132FF08A435A6103B0F0BD9D45000000180040AB
S113300000B583B001AB80221A700A785A704A78EE
S11330109A708A78DA70191C014B984703B000BD86
S11330209D45000010B5031C4908402099420CD36B
S11330300024C91A601C80B28B4201D8041CF8E732
S11330404020FF2C01D81480002010BD0000000097
S1133050F0B55F4656464D464446F0B487B0061C6C
S11330600D1C049210AA1078321C424340248A4258
S113307000D9B3E0002B4BD10021321C5E4CA04799
S113308083462E1C002700200021002200233F2419
S1133090A4460125A846029003916146203903D431
S11330A040468840814605E0202165464C1B404649
S11330B0E040814641466446A1408A46101C191CE2
S11330C080185941021C0B1C5D464C46254202D017
S11330D0424602430B1C9F420CD801D1964209D8A8
S11330E0921BBB415046029D28434946039C214301
S11330F0029003916546013DAC46CED202980399F5
S11331003C4B3B4A121A8B41120C1B041A4362E0DB
S11331100022012B5FD14F0FB946CD00AB460021F1
S1133120321C0023344CA047061C0F1C002301252D
S1133130029603979A465046C0B2059000218846ED
S1133140002200233F24271C203F03D42E1CBE4012
S1133150019604E02020071B291CF94001912E1C34
S1133160A6400096101C191C80185941021C0B1C07
S11331705F463740BC46019E4F463E4067463E434D
S113318002D02A1C02430B1C039898420BD802D18C
S11331900299914207D8029E039F921BBB41474666
S11331A000980743B846013CCDD2414652468B1A9B
S11331B0DB08124CA34208D9059A0132D2B2059217
S11331C00126B2445746082FB5D140240598082853
S11331D004D042031A43049C22800024201C07B01C
S11331E03CBC90469946A246AB46F0BDC046C0469C
S11331F00000000001000000A54C0000FF1F0000BB
S113320010B582B0041C0F4B1B78002B01D0002991
S11332100DD001A90C7013200B4B984713200B4BB6
S11332209847084B5C7001221A70002007E0054B98
S11332305A781D20141B621E94416442204002B03F
S113324010BDC046D0000020C14400003544000039
S1133250444B984233D006D8434B98420DD0434B4D
S113326098421BD06FE0424B98424AD0414B98425F
S113327058D0414B984266D132E0012965D00029EB
S113328004D0022906D0032906D001E03B4867E0B8
S1133290002065E03A4863E03A4861E0012956D0ED
S11332A0002904D0022906D0032906D001E0032016
S11332B056E0002054E0344852E0344850E00129FC
S11332C047D0002904D0022906D0032906D001E002
S11332D02F4845E0002043E02E4841E02E483FE0DF
S11332E0012938D0002904D0022906D0032906D0A8
S11332F001E02A4834E0002032E0294830E029483F
S11333002EE0012929D0002904D0022906D003295E
S113331006D001E0244823E0002021E023481FE0F8
S113332023481DE001291AD0002904D0022906D01F
S1133330032906D001E01F4812E0002010E01E48D7
S11333400EE01E480CE000200AE01D4808E01D487D
S113335006E01D4804E01D4802E01D4800E01D4849
S11333607047C0460010004200080042000C0042B2
S113337000180042001C0042001400420300040034
S1133380030006000300070003001E0003001F00E3
S11333900300080003000A0003000B0003001000F0
S11333A0030012000300130003000C0003000E00CE
S11333B003000F00030016000300180003001900A7
S11333C003000500030001000300090003001100CD
S11333D003000D000300170070B586B00C4A6B465D
S11333E070CA70C332CA32C3009E864206D001231B
S11333F09A0069465258824203D100E00023D8B2B1
S113340003E00133062BF3D1002006B070BDC046A3
S1133410BC6B00007047C046F0B50A4B1B78002B0C
S11334200CD1094F094E0A4D0024DE515A1914607B
S11334300433182BF9D10122024B1A708000024B7D
S1133440C150F0BDD4000020D80000201534000085
S11334501408002010B582B0041C684605490622F1
S1133460054B9847201C054B98476B46185602B0ED
S113347010BDC046D46B0000354D0000D9330000A8
S113348008B5024B1B680020984708BDD8000020EF
S113349008B5024B5B680120984708BDD80000209E
S11334A008B5024B9B680220984708BDD80000204D
S11334B008B5024BDB680320984708BDD8000020FC
S11334C008B5024B1B690420984708BDD8000020AA
S11334D008B5024B5B690520984708BDD800002059
S11334E0F0B5474680B488B0051C0C1C161C296036
S11334F00B681C209A0700D5C1E00B680520DA0789
S113350000D5BCE0081C604B9847604B196A821CCC
S1133510012797403A1C0A431A6207A92427F35D3E
S11335200B701430C0B28046594B98474046594BF3
S11335309847F05D0021584B98473378012B00D011
S11335409AE022680C231343236095E0EA18D160C3
S113355004331C2BFAD10023EB62AB620024AB864C
S11335602B863623EC543723EC543823EC540323B2
S11335706B722C712868444B9847071C4749484B89
S11335809847BF00474BFD502F6802AB80221A704A
S11335905C7001229A70DC703378002B02D1002217
S11335A002AB9A70B36A0393F06A0490326B05928B
S11335B0736B06930024E1B2A30003AA9858002871
S11335C002D1381C384A9047431C06D06A46107210
S11335D0000CC0B202A9354B98470134042CEAD13F
S11335E033786B71337CAB71B37CEB71337D2B72AD
S11335F000226B46DA803378012B14D12868224BE1
S113360098471430C0B22A4B9847011CB0696A46E7
S11336100632284B9847031C1720002B2FD16B46EA
S113362006331B783B73B26870680243F3681A432D
S1133630337C717C002903D11F498978880701D51F
S113364080210A43B17C002902D0802189020B43E6
S1133650F17C002902D0802189000B43317D0029AF
S113366002D0802189010B4339680A433A607A68A1
S113367013437B60002002E00023002166E708B0CA
S113368004BC9046F0BDC046D9330000000400409D
S1133690C14400003544000001320000A937000095
S11336A01934000014080020513200009D45000028
S11336B0DD440000253000000020004110B54479AD
S11336C01523012C6CD1047A0023002C68D1002A24
S11336D057D04B78002B44D00268137EDC070FD4FC
S11336E00B78D9090022002903D15A09D2012D49A6
S11336F052181F210B4001219940916105234FE08D
S11337000B78DC090022002C03D15A09D201254C84
S113371012191F24234001249C40546189780368B2
S11337201A7ED40700D59962C2790023002A37D1C2
S113373002680421137E0B42FCD0117E00234C0747
S11337402ED5538B590703D5518B04230B43538335
S11337508379012B02D1936A002321E0936A002329
S11337601EE00B78D9090022002903D15A09D2019D
S11337700C4C12191F210B40012199405161002367
S11337800EE00B78D9090022002903D15A09D2018D
S1133790044952181F210B400121994091610023D3
S11337A0181C10BD00440041F8B58000674BC45894
S11337B025683623E35C3722A25C171C1F402B7E4E
S11337C0AE7D1E40F1073BD56379012B38D1637A76
S11337D0002B0FD15E4B1B88AB62638E013B9BB207
S11337E06386638E9BB2002B01D101232B75637911
S11337F0012B25D1637A002B22D02268E36A197841
S1133800C9B2581CE062A079012804D1587800029A
S113381001430233E362CB05DB0D9362A38E013BCC
S11338209BB2A386A38E9BB2002B09D101232B75D7
S1133830637A012B04D1E379002B01D10223AB7508
S1133840720761D56B8B590714D5637A012B0BD0A2
S11338501E223823E2540323637205232B753A078F
S113386002D5201CA3699847AB6A6A8B04231343CF
S11338706B8349E0637A012B16D123689B6A638EBC
S1133880013B9BB26386638E9BB2002B3CD1042325
S11338902B7500223823E25403236372F90733D5CE
S11338A0201CE26890472FE023689A6AD205D20D63
S11338B0D3B2A16A0B70A36A591CA162A179012930
S11338C004D1120A5A70A36A0133A362238E013B06
S11338D09BB22386238E9BB2002B15D10022382362
S11338E0E25404232B75637A022B05D17A070BD596
S11338F0201C6369984707E0637A002B04D1B90759
S113390002D5201C22699047B30714D56379012B93
S113391011D1637A012B0ED1E379002B0BD1022351
S11339202B750323637200223823E254F90702D56E
S1133930201CE2689047F60907D080232B752B766C
S11339407B0602D5636A201C9847F8BD1408002042
S11339502C080020F0B55F4656464D464446F0B468
S113396091B0051C0C1C161C2960081CAD4B984713
S1133970021C23680520D90700D54BE123681C20CD
S11339809F0700D546E1A84B186A911C01278F4078
S1133990391C014319620FA92D27F35D0B701432F2
S11339A0D2B29046101CA14B98474046A04B984772
S11339B0F05D00219F4B9847F37A6B712423F35CED
S11339C0AB712523F35CEB71F37E2B72337F6B7247
S11339D029688846081C934B9847143000226B468C
S11339E0DA84328A02928023DB019A4221D0802336
S11339F0DB019A4204D880239B019A4211D008E04B
S1133A00C023DB01029F9F420FD080231B029F42F1
S1133A1003D01027069700270EE0032706970027F8
S1133A200AE010270697012706E0082706970127D2
S1133A3002E008270697002731680391F26891464F
S1133A4073690493317E8A462623F35C9B4673682C
S1133A50002B13D08022520593422ED12723F35CEE
S1133A60002B2ED1376AC0B2734B9847011C381C07
S1133A706A462632714B9847031C1FE02723F35CE8
S1133A80002B0AD0069A0092306AB16A6A4626323E
S1133A903B1C6B4FB847031C10E0316A0791C0B25E
S1133AA0654B9847011C069A009207986A4626328D
S1133AB03B1C634FB847031C00E00023181E00D0D2
S1133AC0A8E0737E002B02D0B37E41468B732A6834
S1133AD0029FD369002BFCD102976B4626331B88C7
S1133AE0424693814B46039F3B43049F3B4371688B
S1133AF00B43029F1F43524613021F4359464B0771
S1133B001F432723F35C002B01D104231F43717E41
S1133B108902337F5B021943F27AB37A1343194360
S1133B20737F1B0219432423F35C5B04194325238D
S1133B30F35C1B0419433389FF2B0BD0F27E002A5C
S1133B4003D0A022D204174302E080225204174378
S1133B50194305E0F37E002B02D08023DB041F43CE
S1133B602C23F35C002B03D1364B9B789A0701D5A9
S1133B7080231F432A68D369002BFCD14346596034
S1133B802A68D369002BFCD141460F600EAB80221A
S1133B901A7000225A70DA709A70326B0A92736B40
S1133BA00B93B76B0C97F66B0D9600270EAEF9B21C
S1133BB0BB000AAA9858002802D1201C224A904728
S1133BC0431C05D03070000CC0B2311C1F4A904712
S1133BD00137042FEBD10023EB602B616B61AB61E8
S1133BE0EB612B62AB626B620022EB85AB85302309
S1133BF0EA543123EA543223EA543323EA5428683A
S1133C00084B9847041C1249124B9847A400124BC6
S1133C10E550002011B03CBC90469946A246AB4604
S1133C20F0BDC046D933000000040040C144000088
S1133C303544000001320000DD440000253000005E
S1133C405130000000200041513200009D45000029
S1133C50013D0000193400001408002010B5021CB6
S1133C600368C4791C20002C0DD0D28D92B205209B
S1133C70002A08D1DA69002AFCD1198502211A7EAA
S1133C800A42FCD0002010BD10B5031C04688279E0
S1133C901C20002A33D09B8D9BB20520002B2ED1F3
S1133CA0237E5A072BD5E369002BFCD1638BDBB24F
S1133CB09A0621D09A0703D5022363831A201EE0B3
S1133CC05A0703D5042363831E2018E0DA0703D5BB
S1133CD001236383132012E0DA0605D5628B1023D7
S1133CE01343638342200AE09A0605D5628B20239E
S1133CF013436383412002E0238D0B80002010BD19
S1133D00F8B58000644BC5582C68E369002BFCD1DE
S1133D10237EA67D1E403123EB5C3022AF5C1F4026
S1133D20F10720D5EB8D9BB2002B1AD0AB6A1A7821
S1133D30D2B2591CA9626979012904D159780902BE
S1133D400A430233AB62D305DB0D2385EB8D013BC4
S1133D509BB2EB85002B06D1012323750223A375A7
S1133D6001E001232375B20709D50223237500223C
S1133D703323EA54FB0702D5281CE96888477207F5
S1133D806AD5AB8D9BB2002B64D0638BDBB2190771
S1133D9002D43F22134001E037221340002B37D0D6
S1133DA09A0707D51A223223EA54628B022313435B
S1133DB0638327E0590707D51E223223EA54628B16
S1133DC00423134363831DE0DA0707D51322322348
S1133DD0EA54628B01231343638313E0D90607D5A6
S1133DE042223223EA54628B10231343638309E093
S1133DF020221A4206D041223223EA54628B202325
S1133E00134363837A0727D5281C6B69984723E0FB
S1133E10228DD205D20DD3B2696A0B706B6A591C1C
S1133E2069626979012904D1120A5A706B6A0133F3
S1133E306B62AB8D013B9BB2AB85002B0CD1042391
S1133E40237500223223EA54BA0705D5281C2B69AE
S1133E50984701E004232375F10607D51023237541
S1133E602376FA0602D5281CEB699847B10607D5D4
S1133E702023237523763A0702D5281CAB6998477B
S1133E80310707D5082323752376BA0602D52B6A92
S1133E90281C9847F8BDC0461408002008B5082817
S1133EA034D880001B4B1B589F468020000230E012
S1133EB0194B18692DE0194B186A8005800F184BAF
S1133EC0C340181C25E0144B586922E0124B1B68B0
S1133ED0022018401DD011491022CB681A42FCD090
S1133EE00D4B1B685A0713D500200E4B98470A4BFD
S1133EF09B681B041B0C58430BE05023074AD35CFC
S1133F0000205A0705D5044BD86802E0002000E0E1
S1133F10054808BDDC6B0000F000002000080040EC
S1133F2000127A00DD440000006CDC0270B50C4B1A
S1133F301C6A01788578407801221040800140266F
S1133F40B44304432A40D00180229443221C0243F8
S1133F50032001400902034802400A431A6270BD6B
S1133F6000080040FFFCFFFFF0B55F4656464D4693
S1133F704446F0B4254A948A457803785942594115
S1133F808A4683789C46C178884603799946467B5D
S1133F90077B817B8B4680681D4B5861012351460A
S1133FA0880004218C43044348461840C00008217B
S1133FB08C43044340461840000110218C430443C1
S1133FC060461840400120218C430443181C3840AB
S1133FD080014027BC430443181C3040C0018026A4
S1133FE0B44304430720284000020A4D2C400443F4
S1133FF059460B4019030848231C03400B43938282
S11340003CBC90469946A246AB46F0BD0008004031
S1134010F0000020FFF8FFFFFFEFFFFF10B5027A6A
S11340209206120C43899B059B0D1A43154B5A604B
S1134030818842881143C479827922430A434178B2
S1134040C9010A431A600378042B0FD1027B92063C
S1134050038A1A43C3891B040B490B401A43094BB7
S11340609A60196804220A431A6009E0202B07D1D8
S1134070028A044B9A6019688422D2000A431A60A7
S113408010BDC046F00000200000FF03082843D8FC
S11340908000224B1B589F4600203EE0204B196AAB
S11340A002220A431A62002037E01D4B996902225A
S11340B00A439A61002030E0194B198A02220A430C
S11340C01A82002029E0164B998A02220A439A8216
S11340D0002022E0134B196802220A431A601A686E
S11340E0114B1A400E4B9A84191C1022CB681A42A9
S11340F0FCD00C4A91680A4BD962516899621268E3
S113410092B29A84002008E0054A4423D05C02213C
S11341100143D154002000E017207047006C0000D8
S113412000080040F00000207FFF0000F0B58FB0D1
S1134130C222D200474B9A60474B5A681E218A43D9
S113414004210A435A60022201AB1A700024434D31
S1134150E0B201A9A8470134252CF9D10AA800230B
S113416003708370802212028260C3700122027184
S113417003738373032242704373394B98470520BA
S1134180384B984733490222CB681A42FCD0314B52
S1134190998A80220A439A8205AB00210022598021
S11341A099809A71DA713F215981042119705A70EA
S11341B02D4B1B689B0E3F2B00D11F2305A80372B8
S11341C02A4B0382072303733F23C381284B984759
S11341D004A800254570012686700570254B984774
S11341E00620204FB847244B984701AC02966570CF
S11341F025726572052323700120211C1F4B9847EB
S113420001201F4B984726700020211C134B984710
S113421000201C4B98470720B8470E49D022CB6892
S11342201340D02BFBD1184A00231372537293729C
S1134230D37201A901224A604B700B724B7207239F
S11342400B7000200D4B984700200D4B98470FB082
S1134250F0BDC0460008004000400041C1440000D9
S1134260693F00008D40000024608000B905000013
S11342701D4000002D3F00008D420000B1420000AF
S1134280654300003544000000040040064B996972
S113429008220A439A610122044B1A70191C0B78F4
S11342A01342FCD17047C04600040040000C00409B
S11342B0F8B5061C071C0D782D0205434B78002B1E
S11342C002D08023DB021D434B7A002B02D08023D3
S11342D01B031D434C68012C17D9631E1C420FD1CC
S11342E0022C06D90223002201325B009C42FBD837
S11342F000E000221702374380235B031D4304E0E0
S11343002702374380239B021D430B7A002B02D0E4
S113431080239B031D430F4A53785BB2002BFBDBC6
S11343200D4B98470D4B1E700A4A53785BB2002B15
S1134330FBDB084B9F601A1C53785BB2002BFBDB42
S1134340044B5968802252020A4015435D60044BB5
S11343509847F8BD000C0040692D0000080C00408F
S1134360A92D000010B5041C0B4A53785BB2002B36
S1134370FBDB0A4B98470A4B1C70074A53785BB225
S1134380002BFBDB044B5968802252020A435A601B
S1134390044B984710BDC046000C0040692D000036
S11343A0040C0040A92D000070B5041C1A4A53786F
S11343B05BB2002BFBDB194B9847194B1C70164A58
S11343C053785BB2002BFBDB134E7068C004C00E45
S11343D0144B9847051C124B1C707668F602F60FB6
S11343E0114B1C700C4A53785BB2002BFBDB0A4B5D
S11343F09C68240AA4B20D4B9847002E07D1012CC7
S113440007D9281C211C0A4B9847051C01E00134DC
S1134410E540281C70BDC046000C0040692D00001A
S1134420040C00409D3E0000080C0040A92D000033
S1134430054C000010B5041C064B9847064B1C7035
S1134440064B59888022D2010A435A80044B98476C
S113445010BDC046692D0000020C0040000C004055
S1134460A92D000010B5041C0F4B98470F4B1C706E
S11344700F4B58880005000F59880E4A0A405A808D
S113448059880D4A0A405A80191C8022D2014B884F
S11344901342FCD1064B01025888064A02400A43E3
S11344A05A80064B984710BD692D0000020C00404D
S11344B0000C0040FFF0FFFFFFBFFFFFA92D00002D
S11344C010B50C7824020443024B9847A4B2024B63
S11344D05C8010BD65440000000C004010B5041C55
S11344E0064B9847064B1C70064B5C882405240F2A
S11344F0054B9847201C054B984710BD692D0000BB
S1134500020C0040000C0040A92D0000A94300004B
S113451030B5D378002B1ED11378802B04D01B0622
S113452080246402234300E0002354780225AC4332
S11345300AD19478002C03D18024A402234302E0FE
S1134540C024E402234341605478013C012C04D884
S1134550114C234001E0416000230D042D0CA024E4
S1134560E4052C431C4384620D0CD02424062C4304
S11345701C438462D478002C0CD15C0305D5937859
S1134580012B01D1816100E041615378013B012B92
S113459000D8816030BDC046FFFFFBFF08B5031C97
S11345A00A1CC1090020002903D15809C00104498B
S11345B040181F210B4001219940024B984708BD28
S11345C000440041114500007047C04608B5044B43
S11345D09847044B9847044B9847044B984708BDA9
S11345E02D410000D92D0000C9450000092F00000D
S11345F0FEE7C04670B52C4B2C4A9A4203D02C4B94
S1134600294A9A4204D32B4B2B4A9A4210D31BE0DB
S11346102A4B27480330C01A800801308000002349
S11346202149224AD458CC5004338342FAD1EAE7D0
S1134630214B1A1D1F490331891A89088900521810
S1134640002102C39342FCD11D4BFF211D4A8A4322
S11346509A60022190235B001B4AD1501B4BD878EF
S11346600321884302221043D870DD780C24A5432B
S113467008200543DD70164B9E7B3025AE43202574
S113468035439D739D7BA54328439873987B88434A
S113469002439A730F4B596880220A435A600E4BA7
S11346A098470E4B9847FEE7000000203C6F00003F
S11346B0780000204008002078000020040000203A
S11346C000ED00E0000000000070004100500041D7
S11346D00048004100400041E94C0000214A00002C
S11346E0F0B5474680B40C1C904600280CD1002A33
S11346F00DDD8F18094E0A4D3068211C2B68984730
S11347000134BC42F8D104E00120404202E0002020
S113471000E0404604BC9046F0BDC0463808002086
S113472030080020F0B5474680B40E1C151C013833
S1134730022810D8002A11D000240D4B98460D4FA2
S113474043461868315D3B689847002808DB01340C
S1134750A542F5D107E00120404205E0002003E036
S11347600120404200E0201C04BC9046F0BDC0463D
S11347703808002034080020064B1B68002B02D1A7
S1134780054A044B1A60034A136818181060181C71
S11347907047C04608010020402800200120404204
S11347A07047C04680239B014B6000207047C04681
S11347B0012070470020704730B593B0041C0D1CD5
S11347C002AB00220292039204920592069207928F
S11347D0089209920A920B920C920D921B221A7063
S11347E00F48211C0F4B98470F4B187843B2002BEE
S11347F014DB0EAB02221A80F622D2015A800F95E6
S113480040B200931023019302A930220023074CE5
S1134810A047002802D00648064B984713B030BD85
S1134820246C0000594D000011000020392B0000B9
S1134830406C0000794E0000F0B5474680B4041C7B
S1134840012902D0092914D05AE0002A0DD00023EE
S1134850D356002B09D12C492C4A2D4CA0470028B3
S11348604ED02C482C4B98474AE02C482A4B98476A
S113487046E01368002B43D00421525E002A3FD047
S113488028229E5C29229D5C2A22995C2B22985C1A
S11348901B7807221340042B03D021481E4B984752
S11348A02EE036062D042E433043090208431D4BE7
S11348B0C6181D4D301C1D49A8471D4F081CE12179
S11348C00901B8478046301CE1210901A847081CAA
S11348D03C21B847071C301C3C21A8470B1C154839
S11348E041463A1C144DA84780221204134B5A61C6
S11348F0201C134B9847002802D1FF22114B1A7039
S113490004BC9046F0BDC04640010020B405000040
S1134910752C0000646C0000794E00007C6C000073
S1134920946C00008081557C8D4C00008051010006
S1134930054C0000C86C0000594D000000440041C3
S1134940F52B00001100002010B582B02C2802D0F5
S113495036281AD028E00B78012B05D11348144BC4
S11349609847144B98471FE0002B1DD11248104B59
S113497098470022114B1A70FF2300931048062118
S11349800222104B104CA0470EE00C784A788B782A
S1134990C97800910D48211C0D4CA0470122074BFA
S11349A01A700C480C4B984702B010BDF86C00000C
S11349B0794E000031120000306D0000F406002032
S11349C0686D0000706D0000151200007C6D000021
S11349D0594D0000B46D0000252D000070B582B063
S11349E0051C0E1C00226B46DA80064C281C694606
S11349F00631A0470028F9D16B4606331B88337073
S1134A0002B070BD893C000070B5061C0D1C034C3F
S1134A10301C291CA0470028FAD170BD5D3C000061
S1134A20F0B59DB0524B984702AA8023DB05029350
S1134A3000235360FF21118100219372D372012658
S1134A4024201654252016542620135427201354AA
S1134A5093622C2013542D20135453611382D37664
S1134A60117611775176132393765177C4239B03E0
S1134A70D36001235B42136353633E4B93633E4B0A
S1134A80D363E1235B0213623C4C3D4B1C603D4904
S1134A903D4B19603D493E4B1960201C3D493E4B3E
S1134AA098473E4F3B68986800213D4DA8473B68B6
S1134AB058680021A8472568281C3A4B98471F23AB
S1134AC018408640384B1E602268D369002BFCD105
S1134AD02A68022313432B603448354B9847354BDF
S1134AE0984700231793189319931A931B93324BE7
S1134AF0169316A8314B9847011E03D03048314B0A
S1134B009847FEE7802212042F4B9A612F4B984757
S1134B102F483049304B9847FF2300932F480621F4
S1134B2002222F4B2F4CA0472F4D304C304E0020EB
S1134B30A8472378002BFAD033787F2BF7D90220AB
S1134B40022100222B4B9847294B1870002803DAC6
S1134B502948174B9847EAE712A902230B8001233F
S1134B605B424B60254B4B801022254B9847DEE778
S1134B70CD45000003002A0003002B000C01002097
S1134B8038080020094A000034080020DD490000EC
S1134B90300800200018004255390000740000203D
S1134BA08D4E00005534000000E100E0C46D0000AB
S1134BB0794E0000D501000049490000D10F0000E2
S1134BC02C6E0000594D000000440041A129000052
S1134BD039480000B9470000E5290000686D00006D
S1134BE0706D00001512000025100000F40600206E
S1134BF011000020F9290000546E00001A0A000078
S1134C00C12A0000002934D00123002210B48842B4
S1134C102CD301242407A14204D2814202D20901E7
S1134C201B01F8E7E400A14204D2814202D2490008
S1134C305B00F8E7884201D3401A1A434C08A042AB
S1134C4002D3001B5C0822438C08A04202D3001B41
S1134C509C082243CC08A04202D3001BDC08224358
S1134C60002803D01B0901D00909E3E7101C10BC7C
S1134C707047002801D00020C04307B4024802A1B5
S1134C804018029003BDC046190000000029F0D06E
S1134C9003B5FFF7B9FF0EBC4243891A1847C04653
S1134CA07047C0469C460304F0B51B0C17043F0C28
S1134CB0150C1E1C041C000C7E436B4347434543E8
S1134CC0FB18300C1818874202D980235B02ED18B8
S1134CD0030CED1863465C434A433604360CA118B2
S1134CE0000480194919F0BD70B50E4B0E4D002417
S1134CF0ED1AAD101E1CAC4204D0A300F358984723
S1134D000134F8E702F00AF9084B094D0024ED1AC2
S1134D10AD101E1CAC4204D0A300F35898470134D4
S1134D20F8E770BD286F0000286F0000286F0000AE
S1134D302C6F000010B50023934203D0CC5CC45404
S1134D400133F9E710BD031C8218934202D0197095
S1134D500133FAE7704700000FB40B4B13B51C681E
S1134D60002C05D0A369002B02D1201C00F0ACFD5F
S1134D7005ABA168201C049A019300F03FF916BC0E
S1134D8008BC04B01847C0467400002038B5084B6E
S1134D90051C1C68002C05D0A369002B02D1201C23
S1134DA000F092FD291CA268201C00F0FFFE38BD13
S1134DB07400002070B5051C0E1C002804D0826904
S1134DC0002A01D100F080FDAC68A3891A0702D53E
S1134DD02369002B19D1281C211C00F0F9FB0028A1
S1134DE013D00120404245E03178002B1BDAA26940
S1134DF0934211DA281C221C00F092FB013043423A
S1134E005841C0B20028ECD10136A3683278013B86
S1134E10A360002AE8D10CE023681970236819788C
S1134E200A2903D1E6E7226811702368013323605D
S1134E30EAE7002B17DAA269934208DB22680A2307
S1134E401370236819780A2911D1281C01E0281C41
S1134E500A21221C00F064FB013043425841C0B2D5
S1134E60002806D0BDE722680A23137023680133A3
S1134E7023600A2070BD000008B5034B011C1868AC
S1134E80FFF798FF08BDC0467400002008B54A42E9
S1134E904A4180235200DB0000F002F808BD000004
S1134EA0F7B51E1C3C4B041C1D680F1C0192002D01
S1134EB005D0AA69002A02D1281C00F005FD374B51
S1134EC09C4201D16C6808E0354B9C4201D1AC682E
S1134ED003E0344B9C4200D1EC68019B022B57D871
S1134EE0002E55DB281C211C00F06EFC002363609F
S1134EF0A361A3891A0603D5281C216900F0BAFD11
S1134F00A38983229343A381019B022B13D0002FF7
S1134F1025D1002E01D18026F600301C00F094FD2E
S1134F20071E18D18020C00000F08EFD071E10D18E
S1134F300120404200E00020A38902221343A38100
S1134F400023A360231C473323602361012363618F
S1134F5020E08026F600A38980221343A381019ACE
S1134F60012A04D1A3891343A3817342A3610E4B85
S1134F700020AB62A3892760276166611A0709D5FF
S1134F80032213405A4253415B421E40A66001E093
S1134F9001204042FEBDC04674000020BC6E0000EB
S1134FA0DC6E0000FC6E000021580000936810B510
S1134FB0013B9360002B05DA9469A34208DBCBB272
S1134FC00A2B05D01368581C10601970C8B201E090
S1134FD000F0A6FA10BDF8B5061C0F1C141CD51859
S1134FE0AC4208D02178301C3A1CFFF7DFFF0134B3
S1134FF0431CF5D100E00020F8BD0000F0B59FB0DF
S1135000061C0F1C03920593002804D08169002913
S113501001D100F059FC754B9F4201D1776808E03B
S1135020734B9F4201D1B76803E0724B9F4200D19A
S1135030F768BB891A070AD53B69002B07D006AD70
S113504000236B6120236B763023AB763BE0301C6E
S1135050391C00F0BDFA0028F1D001204042C2E022
S1135060059A111D12680591002A76DB0992013414
S113507023782E2B00D181E021785F48032200F0B1
S1135080EDFC002807D05C492A68431A4020984068
S11350901043286001342178631C58480622039386
S11350A0297600F0DBFC002800D18AE0544B002B69
S11350B07ED1059B072207339343083305936A691E
S11350C0049953186B61039C2378002B04D1039932
S11350D0611A029110D003E0252BF8D00134F3E7D4
S11350E0301C391C039A029BFFF775FF013075D001
S11350F06A69029953186B612378002B6ED00122E0
S113510052426A606A4600235B3201342B60EB60D2
S1135110AB601370AB6521783A48052200F09EFC21
S1135120002808D0374A0134831A012098402B689C
S113513018432860EFE72B68D90603D56A46202177
S11351405B3211701A0703D56A462B215B3211704A
S113515022782A2A84D0099B05E05242EA6002227E
S113516013432B6083E72278303A092A04D80A21B2
S11351704B4301349B18F6E7099379E763782A2BAC
S113518009D1059B02341A1D1B680592002B0DDA08
S113519001235B420AE0013400232278303A092AD1
S11351A004D80A214B4301349B18F6E7079363E7BD
S11351B005AB0093301C291C3A1C134B00E000BFC4
S11351C007E005AB0093301C291C3A1C0E4B00F081
S11351D091F804900499013100D070E7BB895A0614
S11351E000D53AE70B981FB0F0BDC046BC6E000076
S11351F0DC6E0000FC6E00008E6E0000926E0000FB
S113520000000000886E0000D74F0000F7B5151CA1
S113521001930A698B68061C0C1C934200DA131C68
S1135220221C2B6043321278002A01D001332B60F8
S11352302068800602D52B6802332B60216806277C
S11352400F401FD0231C43331B785A1E93412268FE
S113525092061FD5E11840313020C870211C5A1C19
S113526045310978A21840320233D17012E0221C71
S1135270301C019919320123089FB847013011D01D
S1135280009F01370097E0682968009F431A9F42F6
S1135290EDDBD7E7221C301C01994332089FB84745
S11352A0013002D10120404223E0206806212B680E
S11352B0E26801400025042903D1D51AEB43DB172A
S11352C01D40A26823699A4201DDD31AED18002714
S11352D00097009FAF420BDA221C301C01991A324E
S11352E00123089FB8470130DCD0009F0137EFE766
S11352F00020FEBDF0B50D1C8BB043350692059021
S1135300079304950B7E0C1C109A6E2B00D1A7E01A
S113531011D8632B22D009D8002B00D1B0E0582B30
S113532000D0C0E045310B707B4D4EE0642B1CD0A7
S1135330692B1AD0B7E0732B00D1A5E009D86F2BE5
S113534029D0702B00D0AEE00E68202333430B60CD
S113535036E0752B1FD0782B32D0A4E013680D1CD7
S1135360191D423511601B689FE0216813680E0601
S113537003D5191D11601E6805E04806F9D5191DED
S1135380116000215E5E644B002E3BDA049D2D22E9
S113539076422A7036E0216813680E0603D5191D7B
S11353A011601E6804E04806F9D5191D1E881160B5
S11353B0594B227E039308276F2A1ED00A271CE02C
S11353C0231C78214533554D197011682368081D35
S11353D0039510601E0601D50E6802E05806FBD541
S11353E00E88D90702D52022134323601027002EEC
S11353F003D1226820239A432260231C00224333D2
S11354001A7001E003930A276368A360002B03DB8F
S11354102568042295432560002E02D1049D002BAB
S11354200ED0049D301C391CFFF730FC0398013D5D
S1135430435C301C2B70391CFFF7E4FB061EF1D1D2
S1135440082F09D12168C90706D5626823699A42E1
S113545002DC013D30232B70049E731B23612AE080
S1135460086813684969050604D5181D10601B688F
S1135470196005E04606F8D5181D10601B681980F0
S113548000232361049D16E01368191D11601D6833
S1135490281C00F025FC63682061984200D9236130
S11354A02069606004E0251C42352B7001232361D0
S11354B0049E00233370079E05980096211C09AAB8
S11354C0069BFFF7A3FE013002D10120404221E0F8
S11354D02A1C059806992369079DA8470130F4D032
S11354E02668B60705D4099BE068984212DA181CAE
S11354F010E00025E0680999431A9D42F3DA221C62
S11355000598069919320123079EB0470130DCD073
S11355100135EFE70BB0F0BD996E0000AA6E0000F4
S113552070B5051C0E1C141C002804D08269002AC6
S113553001D100F0C9F9234B9C4201D16C6808E009
S1135540214B9C4201D1AC6803E0204B9C4200D12A
S1135550EC68A369A360A3891A070AD52369002B01
S113556007D022682369F6B2D01A626990420FDB31
S113557008E0281C211C00F02BF80028F1D00120A1
S113558040421DE0281C211C00F01EF90028F6D121
S1135590A3680130013BA36023685A1C22601E707B
S11355A06369984205D0A389301CDA0708D50A2E0E
S11355B006D1281C211C00F007F90028DFD1301C7B
S11355C070BDC046BC6E0000DC6E0000FC6E0000C6
S11355D0344B70B51D68061C0C1C002D05D0A96940
S11355E0002902D1281C00F06FF92F4B9C4201D1F5
S11355F06C6808E02D4B9C4201D1AC6803E02C4B55
S11356009C4200D1EC68A28993B2190721D4D9062F
S113561005D40923336040231A43A2813FE05A078B
S113562013D5616B002908D0231C4433994202D05E
S1135630301C00F01FFA00236363A38924229343E0
S1135640A3810023636023692360A3890822134391
S1135650A381216900290BD1A389A02292001A40B9
S113566080239B009A4203D0301C211C00F09CF93B
S1135670A38901221A4005D061690022A2604A422E
S1135680A26103E0990700D46269A2602269002044
S1135690824206D1190604D540221343A381012076
S11356A0404270BD74000020BC6E0000DC6E00003F
S11356B0FC6E0000F7B58B89051C0C1C19075ED421
S11356C06268002A02DC276C002F1ADDE76A002FCB
S11356D017D000222E682A60802252011A4001D07D
S11356E0626D15E0281C216A0123B847021C411C85
S11356F00ED12B68002B0BD01D2B01D0162B02D101
S11357002E6000205EE0A38940210B43A38159E071
S1135710A3895F0706D56168636B521A002B01D019
S1135720276CD21B281C216A0023E76AB847A28988
S1135730411C06D12B68002B03D01D2B01D0162B46
S113574019D10023636023692360D70405D5411C64
S113575002D12A68002A00D16065616B2E6000299D
S1135760CFD0231C4433994202D0281C00F082F984
S11357700020606326E040231A43A28122E02669C8
S1135780002EBED027680022BF1B01972660990710
S113579000D16269A260019F002FB2DD281C216A3A
S11357A0321C019BA76AB847002806DCA389402263
S11357B013430120A381404204E0019F36183F1A9D
S11357C00197E8E7FEBD00000A6938B5051C0C1C0A
S11357D0002A01D100201CE0002804D08369002B9A
S11357E001D100F071F80B4B9C4201D16C6808E0C8
S11357F0094B9C4201D1AC6803E0084B9C4200D1A8
S1135800EC680C22A35E002BE4D0281C211CFFF7BB
S113581051FF38BDBC6E0000DC6E0000FC6E000061
S1135820F8B5041C071C4834002C12D0A56866681F
S1135830013E0CD4AB89012B07D90E22AB5E013398
S113584003D0381C291CFFF7BFFF6835F0E7246834
S1135850EAE7F8BD002310B5041C036043608360CD
S113586081814366C281036143618361191C0822FB
S11358705C30FFF768FA054B24626362044BA36251
S1135880044BE362044B236310BDC046495C000033
S1135890715C0000A95C0000D55C000070B54B1E73
S11358A068255D430E1C291C743100F02BF9041E7D
S11358B008D00021016046602A1C0C30A0606832C8
S11358C0FFF741FA201C70BD836913B5041C002B3B
S11358D027D18364C3640365124B134A1B68826235
S11358E0984201D101238361201C00F01FF86060FD
S11358F0201C00F01BF8A060201C00F017F8042105
S1135900E06000226068FFF7A5FFA068092101227A
S1135910FFF7A0FFE06812210222FFF79BFF01239B
S1135920A36113BD846E000021580000F8B51D4B1F
S1135930071C1E68B269002A02D1301CFFF7C4FF9D
S11359404836B4687368013B05D40C22A55E002D6B
S113595010D06834F7E73368002B06D1381C0421D3
S1135960FFF79CFF3060002801D03668E9E70C237C
S11359703B6016E001235B42E381201C0123A381E9
S113598065662560A560656025616561A5615C301B
S1135990291C0822FFF7D7F96563A563A564E564AC
S11359A0201CF8BD846E0000F0B58B8991B0051CF5
S11359B00C1C9A0725D40E23C95E002906DAA78990
S11359C080231F400FD0002740260EE001AA00F0DC
S11359D0B5F90028F3DB029BF0273F02184A1F4069
S11359E0BF187B425F418026F600281C311C00F062
S11359F089F800280CD1A3899A051FD402221343E5
S1135A00A381231C4733236023610123636115E0D1
S1135A100C4B8022AB62A38920601343A3812061D5
S1135A206661002F0AD00E23E15E281C00F098F96D
S1135A30002803D0A38901221343A38111B0F0BD30
S1135A4000E0FFFF2158000008B5034B011C186853
S1135A5000F058F808BDC04674000020C9B282188E
S1135A60904204D003788B4202D00130F8E7002042
S1135A707047000030B5002940D004390B68002B72
S1135A8000DAC9181E4A1368141C002B02D14B609B
S1135A90116033E099420FD208680A189A4205D17E
S1135AA013685268C01808604A6000E04B602160C7
S1135AB024E08A4203D8131C5A68002AF9D11D68CD
S1135AC05C198C420BD10968691858181960904206
S1135AD014D114685268091919605A600EE08C4296
S1135AE002D90C23036009E008680C18944203D11E
S1135AF014685268001908604A60596030BDC04695
S1135B00FC06002070B50323CD1C9D430835061CFC
S1135B100C2D01D20C2501E0002D3FDB8D423DD33D
S1135B20204B1C681A1C211C002913D00868431B35
S1135B300DD40B2B02D90B60CC181EE08C4202D181
S1135B40636813601AE0486860600C1C16E00C1C63
S1135B504968E9E7144C2068002803D1301C00F0A0
S1135B6061F82060301C291C00F05CF8431C15D03F
S1135B70C41C03239C4384420AD12560201C0B309F
S1135B800722231D9043C31A0BD05A42E25008E067
S1135B90211A301C00F046F80130EED10C2333609A
S1135BA0002070BDFC060020F806002070B5051C1E
S1135BB00E1C141C002804D08269002A01D1FFF7AE
S1135BC083FE154B9C4201D16C6808E0134B9C4248
S1135BD001D1AC6803E0124B9C4200D1EC68A3688D
S1135BE0013BA360002B10DAA269934207DB236810
S1135BF01E70236819780A290AD1281C01E0281C80
S1135C00311C221CFFF78CFC05E022681670236807
S1135C105A1C2260187870BDBC6E0000DC6E000057
S1135C20FC6E000038B5074C0023051C081C2360DB
S1135C30FEF7A2FD431C03D12368002B00D02B6088
S1135C4038BDC0463C08002038B50C1C0E25495F01
S1135C5000F0ACF8002803DB626D1318636503E001
S1135C60A289024B1340A38138BDC046FFEFFFFF5A
S1135C70F8B51E1C8B89051C0C1C171CDA0505D5F0
S1135C800E23C95E0022022300F07CF8A289054B92
S1135C90281C1340A3810E22A15E331C3A1C00F081
S1135CA027F8F8BDFFEFFFFF38B50C1C0E25495F40
S1135CB000F068F8A389421C03D1054A1340A3816C
S1135CC004E0802252011343A381606538BDC046BD
S1135CD0FFEFFFFF08B50E23C95E00F01DF808BDF5
